{
  "_format": "hh-sol-artifact-1",
  "contractName": "Exchange",
  "sourceName": "contracts/compromised/Exchange.sol",
  "abi": [
    {
      "inputs": [
        {
          "internalType": "address",
          "name": "oracleAddress",
          "type": "address"
        }
      ],
      "stateMutability": "payable",
      "type": "constructor"
    },
    {
      "anonymous": false,
      "inputs": [
        {
          "indexed": true,
          "internalType": "address",
          "name": "buyer",
          "type": "address"
        },
        {
          "indexed": false,
          "internalType": "uint256",
          "name": "tokenId",
          "type": "uint256"
        },
        {
          "indexed": false,
          "internalType": "uint256",
          "name": "price",
          "type": "uint256"
        }
      ],
      "name": "TokenBought",
      "type": "event"
    },
    {
      "anonymous": false,
      "inputs": [
        {
          "indexed": true,
          "internalType": "address",
          "name": "seller",
          "type": "address"
        },
        {
          "indexed": false,
          "internalType": "uint256",
          "name": "tokenId",
          "type": "uint256"
        },
        {
          "indexed": false,
          "internalType": "uint256",
          "name": "price",
          "type": "uint256"
        }
      ],
      "name": "TokenSold",
      "type": "event"
    },
    {
      "inputs": [],
      "name": "buyOne",
      "outputs": [
        {
          "internalType": "uint256",
          "name": "",
          "type": "uint256"
        }
      ],
      "stateMutability": "payable",
      "type": "function"
    },
    {
      "inputs": [],
      "name": "oracle",
      "outputs": [
        {
          "internalType": "contract TrustfulOracle",
          "name": "",
          "type": "address"
        }
      ],
      "stateMutability": "view",
      "type": "function"
    },
    {
      "inputs": [
        {
          "internalType": "uint256",
          "name": "tokenId",
          "type": "uint256"
        }
      ],
      "name": "sellOne",
      "outputs": [],
      "stateMutability": "nonpayable",
      "type": "function"
    },
    {
      "inputs": [],
      "name": "token",
      "outputs": [
        {
          "internalType": "contract DamnValuableNFT",
          "name": "",
          "type": "address"
        }
      ],
      "stateMutability": "view",
      "type": "function"
    },
    {
      "stateMutability": "payable",
      "type": "receive"
    }
  ],
  "bytecode": "0x60c060405260405162004f2638038062004f268339818101604052810190620000299190620000f6565b60016000819055506040516200003f90620000d1565b604051809103906000f0801580156200005c573d6000803e3d6000fd5b5073ffffffffffffffffffffffffffffffffffffffff1660808173ffffffffffffffffffffffffffffffffffffffff1660601b815250508073ffffffffffffffffffffffffffffffffffffffff1660a08173ffffffffffffffffffffffffffffffffffffffff1660601b81525050506200017b565b613890806200169683390190565b600081519050620000f08162000161565b92915050565b6000602082840312156200010f576200010e6200015c565b5b60006200011f84828501620000df565b91505092915050565b600062000135826200013c565b9050919050565b600073ffffffffffffffffffffffffffffffffffffffff82169050919050565b600080fd5b6200016c8162000128565b81146200017857600080fd5b50565b60805160601c60a05160601c6114b0620001e6600039600081816101880152818161045c01526106fc0152600081816101c40152818161031a015281816104ce015281816105fb015281816107380152818161088c0152818161091b0152610a2b01526114b06000f3fe6080604052600436106100435760003560e01c80636b5e28961461004f5780637dc0d1d01461006d578063bdcb587c14610098578063fc0c546a146100c15761004a565b3661004a57005b600080fd5b6100576100ec565b604051610064919061102f565b60405180910390f35b34801561007957600080fd5b5061008261045a565b60405161008f9190610ef2565b60405180910390f35b3480156100a457600080fd5b506100bf60048036038101906100ba9190610c66565b61047e565b005b3480156100cd57600080fd5b506100d6610a29565b6040516100e39190610ed7565b60405180910390f35b600060026000541415610134576040517f08c379a000000000000000000000000000000000000000000000000000000000815260040161012b9061100f565b60405180910390fd5b6002600081905550600034905060008111610184576040517f08c379a000000000000000000000000000000000000000000000000000000000815260040161017b90610f4f565b60405180910390fd5b60007f000000000000000000000000000000000000000000000000000000000000000073ffffffffffffffffffffffffffffffffffffffff1663d965b3087f000000000000000000000000000000000000000000000000000000000000000073ffffffffffffffffffffffffffffffffffffffff166395d89b416040518163ffffffff1660e01b815260040160006040518083038186803b15801561022857600080fd5b505afa15801561023c573d6000803e3d6000fd5b505050506040513d6000823e3d601f19601f820116820180604052508101906102659190610c1d565b6040518263ffffffff1660e01b81526004016102819190610f0d565b60206040518083038186803b15801561029957600080fd5b505afa1580156102ad573d6000803e3d6000fd5b505050506040513d601f19601f820116820180604052508101906102d19190610c93565b905080821015610316576040517f08c379a000000000000000000000000000000000000000000000000000000000815260040161030d90610fcf565b60405180910390fd5b60007f000000000000000000000000000000000000000000000000000000000000000073ffffffffffffffffffffffffffffffffffffffff166340d097c3336040518263ffffffff1660e01b81526004016103719190610e85565b602060405180830381600087803b15801561038b57600080fd5b505af115801561039f573d6000803e3d6000fd5b505050506040513d601f19601f820116820180604052508101906103c39190610c93565b90506103f982846103d491906110f0565b3373ffffffffffffffffffffffffffffffffffffffff16610a4d90919063ffffffff16565b3373ffffffffffffffffffffffffffffffffffffffff167f28cab0d660ed8aedd61a8c9db00b97f6a2d67e07d87795994f440b18bc5f1aa3828460405161044192919061104a565b60405180910390a2809350505050600160008190555090565b7f000000000000000000000000000000000000000000000000000000000000000081565b600260005414156104c4576040517f08c379a00000000000000000000000000000000000000000000000000000000081526004016104bb9061100f565b60405180910390fd5b60026000819055507f000000000000000000000000000000000000000000000000000000000000000073ffffffffffffffffffffffffffffffffffffffff16636352211e826040518263ffffffff1660e01b8152600401610525919061102f565b60206040518083038186803b15801561053d57600080fd5b505afa158015610551573d6000803e3d6000fd5b505050506040513d601f19601f820116820180604052508101906105759190610bf0565b73ffffffffffffffffffffffffffffffffffffffff163373ffffffffffffffffffffffffffffffffffffffff16146105e2576040517f08c379a00000000000000000000000000000000000000000000000000000000081526004016105d990610f2f565b60405180910390fd5b3073ffffffffffffffffffffffffffffffffffffffff167f000000000000000000000000000000000000000000000000000000000000000073ffffffffffffffffffffffffffffffffffffffff1663081812fc836040518263ffffffff1660e01b8152600401610652919061102f565b60206040518083038186803b15801561066a57600080fd5b505afa15801561067e573d6000803e3d6000fd5b505050506040513d601f19601f820116820180604052508101906106a29190610bf0565b73ffffffffffffffffffffffffffffffffffffffff16146106f8576040517f08c379a00000000000000000000000000000000000000000000000000000000081526004016106ef90610fef565b60405180910390fd5b60007f000000000000000000000000000000000000000000000000000000000000000073ffffffffffffffffffffffffffffffffffffffff1663d965b3087f000000000000000000000000000000000000000000000000000000000000000073ffffffffffffffffffffffffffffffffffffffff166395d89b416040518163ffffffff1660e01b815260040160006040518083038186803b15801561079c57600080fd5b505afa1580156107b0573d6000803e3d6000fd5b505050506040513d6000823e3d601f19601f820116820180604052508101906107d99190610c1d565b6040518263ffffffff1660e01b81526004016107f59190610f0d565b60206040518083038186803b15801561080d57600080fd5b505afa158015610821573d6000803e3d6000fd5b505050506040513d601f19601f820116820180604052508101906108459190610c93565b90508047101561088a576040517f08c379a000000000000000000000000000000000000000000000000000000000815260040161088190610faf565b60405180910390fd5b7f000000000000000000000000000000000000000000000000000000000000000073ffffffffffffffffffffffffffffffffffffffff166323b872dd3330856040518463ffffffff1660e01b81526004016108e793929190610ea0565b600060405180830381600087803b15801561090157600080fd5b505af1158015610915573d6000803e3d6000fd5b505050507f000000000000000000000000000000000000000000000000000000000000000073ffffffffffffffffffffffffffffffffffffffff166342966c68836040518263ffffffff1660e01b8152600401610972919061102f565b600060405180830381600087803b15801561098c57600080fd5b505af11580156109a0573d6000803e3d6000fd5b505050506109cd813373ffffffffffffffffffffffffffffffffffffffff16610a4d90919063ffffffff16565b3373ffffffffffffffffffffffffffffffffffffffff167f35ea94addbc62df281ade49cc2ad9b3d9259166170cf702928b4ddc045f7256e8383604051610a1592919061104a565b60405180910390a250600160008190555050565b7f000000000000000000000000000000000000000000000000000000000000000081565b80471015610a90576040517f08c379a0000000000000000000000000000000000000000000000000000000008152600401610a8790610f8f565b60405180910390fd5b60008273ffffffffffffffffffffffffffffffffffffffff1682604051610ab690610e70565b60006040518083038185875af1925050503d8060008114610af3576040519150601f19603f3d011682016040523d82523d6000602084013e610af8565b606091505b5050905080610b3c576040517f08c379a0000000000000000000000000000000000000000000000000000000008152600401610b3390610f6f565b60405180910390fd5b505050565b6000610b54610b4f84611098565b611073565b905082815260208101848484011115610b7057610b6f61126f565b5b610b7b8482856111a8565b509392505050565b600081519050610b928161144c565b92915050565b600082601f830112610bad57610bac61126a565b5b8151610bbd848260208601610b41565b91505092915050565b600081359050610bd581611463565b92915050565b600081519050610bea81611463565b92915050565b600060208284031215610c0657610c05611279565b5b6000610c1484828501610b83565b91505092915050565b600060208284031215610c3357610c32611279565b5b600082015167ffffffffffffffff811115610c5157610c50611274565b5b610c5d84828501610b98565b91505092915050565b600060208284031215610c7c57610c7b611279565b5b6000610c8a84828501610bc6565b91505092915050565b600060208284031215610ca957610ca8611279565b5b6000610cb784828501610bdb565b91505092915050565b610cc981611124565b82525050565b610cd881611160565b82525050565b610ce781611172565b82525050565b6000610cf8826110c9565b610d0281856110df565b9350610d128185602086016111a8565b610d1b8161127e565b840191505092915050565b6000610d336018836110df565b9150610d3e8261128f565b602082019050919050565b6000610d566025836110df565b9150610d61826112b8565b604082019050919050565b6000610d79603a836110df565b9150610d8482611307565b604082019050919050565b6000610d9c601d836110df565b9150610da782611356565b602082019050919050565b6000610dbf6019836110df565b9150610dca8261137f565b602082019050919050565b6000610de26019836110df565b9150610ded826113a8565b602082019050919050565b6000610e056000836110d4565b9150610e10826113d1565b600082019050919050565b6000610e286022836110df565b9150610e33826113d4565b604082019050919050565b6000610e4b601f836110df565b9150610e5682611423565b602082019050919050565b610e6a81611156565b82525050565b6000610e7b82610df8565b9150819050919050565b6000602082019050610e9a6000830184610cc0565b92915050565b6000606082019050610eb56000830186610cc0565b610ec26020830185610cc0565b610ecf6040830184610e61565b949350505050565b6000602082019050610eec6000830184610ccf565b92915050565b6000602082019050610f076000830184610cde565b92915050565b60006020820190508181036000830152610f278184610ced565b905092915050565b60006020820190508181036000830152610f4881610d26565b9050919050565b60006020820190508181036000830152610f6881610d49565b9050919050565b60006020820190508181036000830152610f8881610d6c565b9050919050565b60006020820190508181036000830152610fa881610d8f565b9050919050565b60006020820190508181036000830152610fc881610db2565b9050919050565b60006020820190508181036000830152610fe881610dd5565b9050919050565b6000602082019050818103600083015261100881610e1b565b9050919050565b6000602082019050818103600083015261102881610e3e565b9050919050565b60006020820190506110446000830184610e61565b92915050565b600060408201905061105f6000830185610e61565b61106c6020830184610e61565b9392505050565b600061107d61108e565b905061108982826111db565b919050565b6000604051905090565b600067ffffffffffffffff8211156110b3576110b261123b565b5b6110bc8261127e565b9050602081019050919050565b600081519050919050565b600081905092915050565b600082825260208201905092915050565b60006110fb82611156565b915061110683611156565b9250828210156111195761111861120c565b5b828203905092915050565b600061112f82611136565b9050919050565b600073ffffffffffffffffffffffffffffffffffffffff82169050919050565b6000819050919050565b600061116b82611184565b9050919050565b600061117d82611184565b9050919050565b600061118f82611196565b9050919050565b60006111a182611136565b9050919050565b60005b838110156111c65780820151818401526020810190506111ab565b838111156111d5576000848401525b50505050565b6111e48261127e565b810181811067ffffffffffffffff821117156112035761120261123b565b5b80604052505050565b7f4e487b7100000000000000000000000000000000000000000000000000000000600052601160045260246000fd5b7f4e487b7100000000000000000000000000000000000000000000000000000000600052604160045260246000fd5b600080fd5b600080fd5b600080fd5b600080fd5b6000601f19601f8301169050919050565b7f53656c6c6572206d75737420626520746865206f776e65720000000000000000600082015250565b7f416d6f756e742070616964206d7573742062652067726561746572207468616e60008201527f207a65726f000000000000000000000000000000000000000000000000000000602082015250565b7f416464726573733a20756e61626c6520746f2073656e642076616c75652c207260008201527f6563697069656e74206d61792068617665207265766572746564000000000000602082015250565b7f416464726573733a20696e73756666696369656e742062616c616e6365000000600082015250565b7f4e6f7420656e6f7567682045544820696e2062616c616e636500000000000000600082015250565b7f416d6f756e742070616964206973206e6f7420656e6f75676800000000000000600082015250565b50565b7f53656c6c6572206d757374206861766520617070726f766564207472616e736660008201527f6572000000000000000000000000000000000000000000000000000000000000602082015250565b7f5265656e7472616e637947756172643a207265656e7472616e742063616c6c00600082015250565b61145581611124565b811461146057600080fd5b50565b61146c81611156565b811461147757600080fd5b5056fea26469706673582212207d69abb055eab7d109cab36a961ea03f31b9a7846fd39950a8c40cd5320ae5e064736f6c6343000807003360806040523480156200001157600080fd5b506040518060400160405280600f81526020017f44616d6e56616c7561626c654e465400000000000000000000000000000000008152506040518060400160405280600581526020017f44564e46540000000000000000000000000000000000000000000000000000008152508160009080519060200190620000969291906200027a565b508060019080519060200190620000af9291906200027a565b505050620000c76000801b33620000ff60201b60201c565b620000f97f9f2df0fed2c77648de5860a4cc508cd0818c85b8b8a1ab4ceeef8d981c8956a633620000ff60201b60201c565b6200038f565b6200011182826200011560201b60201c565b5050565b6200012782826200020760201b60201c565b620002035760016006600084815260200190815260200160002060000160008373ffffffffffffffffffffffffffffffffffffffff1673ffffffffffffffffffffffffffffffffffffffff16815260200190815260200160002060006101000a81548160ff021916908315150217905550620001a86200027260201b60201c565b73ffffffffffffffffffffffffffffffffffffffff168173ffffffffffffffffffffffffffffffffffffffff16837f2f8788117e7eff1d82e926ec794901d17c78024a50270940304540a733656f0d60405160405180910390a45b5050565b60006006600084815260200190815260200160002060000160008373ffffffffffffffffffffffffffffffffffffffff1673ffffffffffffffffffffffffffffffffffffffff16815260200190815260200160002060009054906101000a900460ff16905092915050565b600033905090565b82805462000288906200032a565b90600052602060002090601f016020900481019282620002ac5760008555620002f8565b82601f10620002c757805160ff1916838001178555620002f8565b82800160010185558215620002f8579182015b82811115620002f7578251825591602001919060010190620002da565b5b5090506200030791906200030b565b5090565b5b80821115620003265760008160009055506001016200030c565b5090565b600060028204905060018216806200034357607f821691505b602082108114156200035a576200035962000360565b5b50919050565b7f4e487b7100000000000000000000000000000000000000000000000000000000600052602260045260246000fd5b6134f1806200039f6000396000f3fe608060405234801561001057600080fd5b50600436106101425760003560e01c80636352211e116100b8578063a22cb4651161007c578063a22cb46514610399578063b88d4fde146103b5578063c87b56dd146103d1578063d539139314610401578063d547741f1461041f578063e985e9c51461043b57610142565b80636352211e146102cd57806370a08231146102fd57806391d148541461032d57806395d89b411461035d578063a217fddf1461037b57610142565b8063248a9ca31161010a578063248a9ca3146101fd5780632f2ff15d1461022d57806336568abe1461024957806340d097c31461026557806342842e0e1461029557806342966c68146102b157610142565b806301ffc9a71461014757806306fdde0314610177578063081812fc14610195578063095ea7b3146101c557806323b872dd146101e1575b600080fd5b610161600480360381019061015c9190612373565b61046b565b60405161016e9190612837565b60405180910390f35b61017f61047d565b60405161018c919061286d565b60405180910390f35b6101af60048036038101906101aa91906123cd565b61050f565b6040516101bc91906127d0565b60405180910390f35b6101df60048036038101906101da91906122c6565b610594565b005b6101fb60048036038101906101f691906121b0565b6106ac565b005b61021760048036038101906102129190612306565b61070c565b6040516102249190612852565b60405180910390f35b61024760048036038101906102429190612333565b61072c565b005b610263600480360381019061025e9190612333565b610755565b005b61027f600480360381019061027a9190612143565b6107d8565b60405161028c9190612aaf565b60405180910390f35b6102af60048036038101906102aa91906121b0565b610838565b005b6102cb60048036038101906102c691906123cd565b610858565b005b6102e760048036038101906102e291906123cd565b6108b4565b6040516102f491906127d0565b60405180910390f35b61031760048036038101906103129190612143565b610966565b6040516103249190612aaf565b60405180910390f35b61034760048036038101906103429190612333565b610a1e565b6040516103549190612837565b60405180910390f35b610365610a89565b604051610372919061286d565b60405180910390f35b610383610b1b565b6040516103909190612852565b60405180910390f35b6103b360048036038101906103ae9190612286565b610b22565b005b6103cf60048036038101906103ca9190612203565b610ca3565b005b6103eb60048036038101906103e691906123cd565b610d05565b6040516103f8919061286d565b60405180910390f35b610409610dac565b6040516104169190612852565b60405180910390f35b61043960048036038101906104349190612333565b610dd0565b005b61045560048036038101906104509190612170565b610df9565b6040516104629190612837565b60405180910390f35b600061047682610e8d565b9050919050565b60606000805461048c90612d62565b80601f01602080910402602001604051908101604052809291908181526020018280546104b890612d62565b80156105055780601f106104da57610100808354040283529160200191610505565b820191906000526020600020905b8154815290600101906020018083116104e857829003601f168201915b5050505050905090565b600061051a82610f07565b610559576040517f08c379a0000000000000000000000000000000000000000000000000000000008152600401610550906129cf565b60405180910390fd5b6004600083815260200190815260200160002060009054906101000a900473ffffffffffffffffffffffffffffffffffffffff169050919050565b600061059f826108b4565b90508073ffffffffffffffffffffffffffffffffffffffff168373ffffffffffffffffffffffffffffffffffffffff161415610610576040517f08c379a000000000000000000000000000000000000000000000000000000000815260040161060790612a2f565b60405180910390fd5b8073ffffffffffffffffffffffffffffffffffffffff1661062f610f73565b73ffffffffffffffffffffffffffffffffffffffff16148061065e575061065d81610658610f73565b610df9565b5b61069d576040517f08c379a00000000000000000000000000000000000000000000000000000000081526004016106949061294f565b60405180910390fd5b6106a78383610f7b565b505050565b6106bd6106b7610f73565b82611034565b6106fc576040517f08c379a00000000000000000000000000000000000000000000000000000000081526004016106f390612a4f565b60405180910390fd5b610707838383611112565b505050565b600060066000838152602001908152602001600020600101549050919050565b6107358261070c565b61074681610741610f73565b61136e565b610750838361140b565b505050565b61075d610f73565b73ffffffffffffffffffffffffffffffffffffffff168173ffffffffffffffffffffffffffffffffffffffff16146107ca576040517f08c379a00000000000000000000000000000000000000000000000000000000081526004016107c190612a8f565b60405180910390fd5b6107d482826114ec565b5050565b60007f9f2df0fed2c77648de5860a4cc508cd0818c85b8b8a1ab4ceeef8d981c8956a661080c81610807610f73565b61136e565b600061081860076115ce565b905061082484826115dc565b61082e60076115fa565b8092505050919050565b61085383838360405180602001604052806000815250610ca3565b505050565b610869610863610f73565b82611034565b6108a8576040517f08c379a000000000000000000000000000000000000000000000000000000000815260040161089f90612a6f565b60405180910390fd5b6108b181611610565b50565b6000806002600084815260200190815260200160002060009054906101000a900473ffffffffffffffffffffffffffffffffffffffff169050600073ffffffffffffffffffffffffffffffffffffffff168173ffffffffffffffffffffffffffffffffffffffff16141561095d576040517f08c379a00000000000000000000000000000000000000000000000000000000081526004016109549061298f565b60405180910390fd5b80915050919050565b60008073ffffffffffffffffffffffffffffffffffffffff168273ffffffffffffffffffffffffffffffffffffffff1614156109d7576040517f08c379a00000000000000000000000000000000000000000000000000000000081526004016109ce9061296f565b60405180910390fd5b600360008373ffffffffffffffffffffffffffffffffffffffff1673ffffffffffffffffffffffffffffffffffffffff168152602001908152602001600020549050919050565b60006006600084815260200190815260200160002060000160008373ffffffffffffffffffffffffffffffffffffffff1673ffffffffffffffffffffffffffffffffffffffff16815260200190815260200160002060009054906101000a900460ff16905092915050565b606060018054610a9890612d62565b80601f0160208091040260200160405190810160405280929190818152602001828054610ac490612d62565b8015610b115780601f10610ae657610100808354040283529160200191610b11565b820191906000526020600020905b815481529060010190602001808311610af457829003601f168201915b5050505050905090565b6000801b81565b610b2a610f73565b73ffffffffffffffffffffffffffffffffffffffff168273ffffffffffffffffffffffffffffffffffffffff161415610b98576040517f08c379a0000000000000000000000000000000000000000000000000000000008152600401610b8f9061290f565b60405180910390fd5b8060056000610ba5610f73565b73ffffffffffffffffffffffffffffffffffffffff1673ffffffffffffffffffffffffffffffffffffffff16815260200190815260200160002060008473ffffffffffffffffffffffffffffffffffffffff1673ffffffffffffffffffffffffffffffffffffffff16815260200190815260200160002060006101000a81548160ff0219169083151502179055508173ffffffffffffffffffffffffffffffffffffffff16610c52610f73565b73ffffffffffffffffffffffffffffffffffffffff167f17307eab39ab6107e8899845ad3d59bd9653f200f220920489ca2b5937696c3183604051610c979190612837565b60405180910390a35050565b610cb4610cae610f73565b83611034565b610cf3576040517f08c379a0000000000000000000000000000000000000000000000000000000008152600401610cea90612a4f565b60405180910390fd5b610cff84848484611721565b50505050565b6060610d1082610f07565b610d4f576040517f08c379a0000000000000000000000000000000000000000000000000000000008152600401610d4690612a0f565b60405180910390fd5b6000610d5961177d565b90506000815111610d795760405180602001604052806000815250610da4565b80610d8384611794565b604051602001610d94929190612772565b6040516020818303038152906040525b915050919050565b7f9f2df0fed2c77648de5860a4cc508cd0818c85b8b8a1ab4ceeef8d981c8956a681565b610dd98261070c565b610dea81610de5610f73565b61136e565b610df483836114ec565b505050565b6000600560008473ffffffffffffffffffffffffffffffffffffffff1673ffffffffffffffffffffffffffffffffffffffff16815260200190815260200160002060008373ffffffffffffffffffffffffffffffffffffffff1673ffffffffffffffffffffffffffffffffffffffff16815260200190815260200160002060009054906101000a900460ff16905092915050565b60007f7965db0b000000000000000000000000000000000000000000000000000000007bffffffffffffffffffffffffffffffffffffffffffffffffffffffff1916827bffffffffffffffffffffffffffffffffffffffffffffffffffffffff19161480610f005750610eff826118f5565b5b9050919050565b60008073ffffffffffffffffffffffffffffffffffffffff166002600084815260200190815260200160002060009054906101000a900473ffffffffffffffffffffffffffffffffffffffff1673ffffffffffffffffffffffffffffffffffffffff1614159050919050565b600033905090565b816004600083815260200190815260200160002060006101000a81548173ffffffffffffffffffffffffffffffffffffffff021916908373ffffffffffffffffffffffffffffffffffffffff160217905550808273ffffffffffffffffffffffffffffffffffffffff16610fee836108b4565b73ffffffffffffffffffffffffffffffffffffffff167f8c5be1e5ebec7d5bd14f71427d1e84f3dd0314c0f7b2291e5b200ac8c7c3b92560405160405180910390a45050565b600061103f82610f07565b61107e576040517f08c379a00000000000000000000000000000000000000000000000000000000081526004016110759061292f565b60405180910390fd5b6000611089836108b4565b90508073ffffffffffffffffffffffffffffffffffffffff168473ffffffffffffffffffffffffffffffffffffffff1614806110f857508373ffffffffffffffffffffffffffffffffffffffff166110e08461050f565b73ffffffffffffffffffffffffffffffffffffffff16145b8061110957506111088185610df9565b5b91505092915050565b8273ffffffffffffffffffffffffffffffffffffffff16611132826108b4565b73ffffffffffffffffffffffffffffffffffffffff1614611188576040517f08c379a000000000000000000000000000000000000000000000000000000000815260040161117f906129ef565b60405180910390fd5b600073ffffffffffffffffffffffffffffffffffffffff168273ffffffffffffffffffffffffffffffffffffffff1614156111f8576040517f08c379a00000000000000000000000000000000000000000000000000000000081526004016111ef906128ef565b60405180910390fd5b6112038383836119d7565b61120e600082610f7b565b6001600360008573ffffffffffffffffffffffffffffffffffffffff1673ffffffffffffffffffffffffffffffffffffffff168152602001908152602001600020600082825461125e9190612c44565b925050819055506001600360008473ffffffffffffffffffffffffffffffffffffffff1673ffffffffffffffffffffffffffffffffffffffff16815260200190815260200160002060008282546112b59190612b63565b92505081905550816002600083815260200190815260200160002060006101000a81548173ffffffffffffffffffffffffffffffffffffffff021916908373ffffffffffffffffffffffffffffffffffffffff160217905550808273ffffffffffffffffffffffffffffffffffffffff168473ffffffffffffffffffffffffffffffffffffffff167fddf252ad1be2c89b69c2b068fc378daa952ba7f163c4a11628f55a4df523b3ef60405160405180910390a4505050565b6113788282610a1e565b6114075761139d8173ffffffffffffffffffffffffffffffffffffffff1660146119dc565b6113ab8360001c60206119dc565b6040516020016113bc929190612796565b6040516020818303038152906040526040517f08c379a00000000000000000000000000000000000000000000000000000000081526004016113fe919061286d565b60405180910390fd5b5050565b6114158282610a1e565b6114e85760016006600084815260200190815260200160002060000160008373ffffffffffffffffffffffffffffffffffffffff1673ffffffffffffffffffffffffffffffffffffffff16815260200190815260200160002060006101000a81548160ff02191690831515021790555061148d610f73565b73ffffffffffffffffffffffffffffffffffffffff168173ffffffffffffffffffffffffffffffffffffffff16837f2f8788117e7eff1d82e926ec794901d17c78024a50270940304540a733656f0d60405160405180910390a45b5050565b6114f68282610a1e565b156115ca5760006006600084815260200190815260200160002060000160008373ffffffffffffffffffffffffffffffffffffffff1673ffffffffffffffffffffffffffffffffffffffff16815260200190815260200160002060006101000a81548160ff02191690831515021790555061156f610f73565b73ffffffffffffffffffffffffffffffffffffffff168173ffffffffffffffffffffffffffffffffffffffff16837ff6391f5c32d9c69d2a47ea670b442974b53935d1edc7fd64eb21e047a839171b60405160405180910390a45b5050565b600081600001549050919050565b6115f6828260405180602001604052806000815250611c18565b5050565b6001816000016000828254019250508190555050565b600061161b826108b4565b9050611629816000846119d7565b611634600083610f7b565b6001600360008373ffffffffffffffffffffffffffffffffffffffff1673ffffffffffffffffffffffffffffffffffffffff16815260200190815260200160002060008282546116849190612c44565b925050819055506002600083815260200190815260200160002060006101000a81549073ffffffffffffffffffffffffffffffffffffffff021916905581600073ffffffffffffffffffffffffffffffffffffffff168273ffffffffffffffffffffffffffffffffffffffff167fddf252ad1be2c89b69c2b068fc378daa952ba7f163c4a11628f55a4df523b3ef60405160405180910390a45050565b61172c848484611112565b61173884848484611c73565b611777576040517f08c379a000000000000000000000000000000000000000000000000000000000815260040161176e906128af565b60405180910390fd5b50505050565b606060405180602001604052806000815250905090565b606060008214156117dc576040518060400160405280600181526020017f300000000000000000000000000000000000000000000000000000000000000081525090506118f0565b600082905060005b6000821461180e5780806117f790612dc5565b915050600a826118079190612bb9565b91506117e4565b60008167ffffffffffffffff81111561182a57611829612efb565b5b6040519080825280601f01601f19166020018201604052801561185c5781602001600182028036833780820191505090505b5090505b600085146118e9576001826118759190612c44565b9150600a856118849190612e0e565b60306118909190612b63565b60f81b8183815181106118a6576118a5612ecc565b5b60200101907effffffffffffffffffffffffffffffffffffffffffffffffffffffffffffff1916908160001a905350600a856118e29190612bb9565b9450611860565b8093505050505b919050565b60007f80ac58cd000000000000000000000000000000000000000000000000000000007bffffffffffffffffffffffffffffffffffffffffffffffffffffffff1916827bffffffffffffffffffffffffffffffffffffffffffffffffffffffff191614806119c057507f5b5e139f000000000000000000000000000000000000000000000000000000007bffffffffffffffffffffffffffffffffffffffffffffffffffffffff1916827bffffffffffffffffffffffffffffffffffffffffffffffffffffffff1916145b806119d057506119cf82611e0a565b5b9050919050565b505050565b6060600060028360026119ef9190612bea565b6119f99190612b63565b67ffffffffffffffff811115611a1257611a11612efb565b5b6040519080825280601f01601f191660200182016040528015611a445781602001600182028036833780820191505090505b5090507f300000000000000000000000000000000000000000000000000000000000000081600081518110611a7c57611a7b612ecc565b5b60200101907effffffffffffffffffffffffffffffffffffffffffffffffffffffffffffff1916908160001a9053507f780000000000000000000000000000000000000000000000000000000000000081600181518110611ae057611adf612ecc565b5b60200101907effffffffffffffffffffffffffffffffffffffffffffffffffffffffffffff1916908160001a90535060006001846002611b209190612bea565b611b2a9190612b63565b90505b6001811115611bca577f3031323334353637383961626364656600000000000000000000000000000000600f861660108110611b6c57611b6b612ecc565b5b1a60f81b828281518110611b8357611b82612ecc565b5b60200101907effffffffffffffffffffffffffffffffffffffffffffffffffffffffffffff1916908160001a905350600485901c945080611bc390612d38565b9050611b2d565b5060008414611c0e576040517f08c379a0000000000000000000000000000000000000000000000000000000008152600401611c059061288f565b60405180910390fd5b8091505092915050565b611c228383611e74565b611c2f6000848484611c73565b611c6e576040517f08c379a0000000000000000000000000000000000000000000000000000000008152600401611c65906128af565b60405180910390fd5b505050565b6000611c948473ffffffffffffffffffffffffffffffffffffffff16612042565b15611dfd578373ffffffffffffffffffffffffffffffffffffffff1663150b7a02611cbd610f73565b8786866040518563ffffffff1660e01b8152600401611cdf94939291906127eb565b602060405180830381600087803b158015611cf957600080fd5b505af1925050508015611d2a57506040513d601f19601f82011682018060405250810190611d2791906123a0565b60015b611dad573d8060008114611d5a576040519150601f19603f3d011682016040523d82523d6000602084013e611d5f565b606091505b50600081511415611da5576040517f08c379a0000000000000000000000000000000000000000000000000000000008152600401611d9c906128af565b60405180910390fd5b805181602001fd5b63150b7a0260e01b7bffffffffffffffffffffffffffffffffffffffffffffffffffffffff1916817bffffffffffffffffffffffffffffffffffffffffffffffffffffffff191614915050611e02565b600190505b949350505050565b60007f01ffc9a7000000000000000000000000000000000000000000000000000000007bffffffffffffffffffffffffffffffffffffffffffffffffffffffff1916827bffffffffffffffffffffffffffffffffffffffffffffffffffffffff1916149050919050565b600073ffffffffffffffffffffffffffffffffffffffff168273ffffffffffffffffffffffffffffffffffffffff161415611ee4576040517f08c379a0000000000000000000000000000000000000000000000000000000008152600401611edb906129af565b60405180910390fd5b611eed81610f07565b15611f2d576040517f08c379a0000000000000000000000000000000000000000000000000000000008152600401611f24906128cf565b60405180910390fd5b611f39600083836119d7565b6001600360008473ffffffffffffffffffffffffffffffffffffffff1673ffffffffffffffffffffffffffffffffffffffff1681526020019081526020016000206000828254611f899190612b63565b92505081905550816002600083815260200190815260200160002060006101000a81548173ffffffffffffffffffffffffffffffffffffffff021916908373ffffffffffffffffffffffffffffffffffffffff160217905550808273ffffffffffffffffffffffffffffffffffffffff16600073ffffffffffffffffffffffffffffffffffffffff167fddf252ad1be2c89b69c2b068fc378daa952ba7f163c4a11628f55a4df523b3ef60405160405180910390a45050565b600080823b905060008111915050919050565b600061206861206384612aef565b612aca565b90508281526020810184848401111561208457612083612f2f565b5b61208f848285612cf6565b509392505050565b6000813590506120a681613448565b92915050565b6000813590506120bb8161345f565b92915050565b6000813590506120d081613476565b92915050565b6000813590506120e58161348d565b92915050565b6000815190506120fa8161348d565b92915050565b600082601f83011261211557612114612f2a565b5b8135612125848260208601612055565b91505092915050565b60008135905061213d816134a4565b92915050565b60006020828403121561215957612158612f39565b5b600061216784828501612097565b91505092915050565b6000806040838503121561218757612186612f39565b5b600061219585828601612097565b92505060206121a685828601612097565b9150509250929050565b6000806000606084860312156121c9576121c8612f39565b5b60006121d786828701612097565b93505060206121e886828701612097565b92505060406121f98682870161212e565b9150509250925092565b6000806000806080858703121561221d5761221c612f39565b5b600061222b87828801612097565b945050602061223c87828801612097565b935050604061224d8782880161212e565b925050606085013567ffffffffffffffff81111561226e5761226d612f34565b5b61227a87828801612100565b91505092959194509250565b6000806040838503121561229d5761229c612f39565b5b60006122ab85828601612097565b92505060206122bc858286016120ac565b9150509250929050565b600080604083850312156122dd576122dc612f39565b5b60006122eb85828601612097565b92505060206122fc8582860161212e565b9150509250929050565b60006020828403121561231c5761231b612f39565b5b600061232a848285016120c1565b91505092915050565b6000806040838503121561234a57612349612f39565b5b6000612358858286016120c1565b925050602061236985828601612097565b9150509250929050565b60006020828403121561238957612388612f39565b5b6000612397848285016120d6565b91505092915050565b6000602082840312156123b6576123b5612f39565b5b60006123c4848285016120eb565b91505092915050565b6000602082840312156123e3576123e2612f39565b5b60006123f18482850161212e565b91505092915050565b61240381612c78565b82525050565b61241281612c8a565b82525050565b61242181612c96565b82525050565b600061243282612b20565b61243c8185612b36565b935061244c818560208601612d05565b61245581612f3e565b840191505092915050565b600061246b82612b2b565b6124758185612b47565b9350612485818560208601612d05565b61248e81612f3e565b840191505092915050565b60006124a482612b2b565b6124ae8185612b58565b93506124be818560208601612d05565b80840191505092915050565b60006124d7602083612b47565b91506124e282612f4f565b602082019050919050565b60006124fa603283612b47565b915061250582612f78565b604082019050919050565b600061251d601c83612b47565b915061252882612fc7565b602082019050919050565b6000612540602483612b47565b915061254b82612ff0565b604082019050919050565b6000612563601983612b47565b915061256e8261303f565b602082019050919050565b6000612586602c83612b47565b915061259182613068565b604082019050919050565b60006125a9603883612b47565b91506125b4826130b7565b604082019050919050565b60006125cc602a83612b47565b91506125d782613106565b604082019050919050565b60006125ef602983612b47565b91506125fa82613155565b604082019050919050565b6000612612602083612b47565b915061261d826131a4565b602082019050919050565b6000612635602c83612b47565b9150612640826131cd565b604082019050919050565b6000612658602983612b47565b91506126638261321c565b604082019050919050565b600061267b602f83612b47565b91506126868261326b565b604082019050919050565b600061269e602183612b47565b91506126a9826132ba565b604082019050919050565b60006126c1603183612b47565b91506126cc82613309565b604082019050919050565b60006126e4601783612b58565b91506126ef82613358565b601782019050919050565b6000612707603083612b47565b915061271282613381565b604082019050919050565b600061272a601183612b58565b9150612735826133d0565b601182019050919050565b600061274d602f83612b47565b9150612758826133f9565b604082019050919050565b61276c81612cec565b82525050565b600061277e8285612499565b915061278a8284612499565b91508190509392505050565b60006127a1826126d7565b91506127ad8285612499565b91506127b88261271d565b91506127c48284612499565b91508190509392505050565b60006020820190506127e560008301846123fa565b92915050565b600060808201905061280060008301876123fa565b61280d60208301866123fa565b61281a6040830185612763565b818103606083015261282c8184612427565b905095945050505050565b600060208201905061284c6000830184612409565b92915050565b60006020820190506128676000830184612418565b92915050565b600060208201905081810360008301526128878184612460565b905092915050565b600060208201905081810360008301526128a8816124ca565b9050919050565b600060208201905081810360008301526128c8816124ed565b9050919050565b600060208201905081810360008301526128e881612510565b9050919050565b6000602082019050818103600083015261290881612533565b9050919050565b6000602082019050818103600083015261292881612556565b9050919050565b6000602082019050818103600083015261294881612579565b9050919050565b600060208201905081810360008301526129688161259c565b9050919050565b60006020820190508181036000830152612988816125bf565b9050919050565b600060208201905081810360008301526129a8816125e2565b9050919050565b600060208201905081810360008301526129c881612605565b9050919050565b600060208201905081810360008301526129e881612628565b9050919050565b60006020820190508181036000830152612a088161264b565b9050919050565b60006020820190508181036000830152612a288161266e565b9050919050565b60006020820190508181036000830152612a4881612691565b9050919050565b60006020820190508181036000830152612a68816126b4565b9050919050565b60006020820190508181036000830152612a88816126fa565b9050919050565b60006020820190508181036000830152612aa881612740565b9050919050565b6000602082019050612ac46000830184612763565b92915050565b6000612ad4612ae5565b9050612ae08282612d94565b919050565b6000604051905090565b600067ffffffffffffffff821115612b0a57612b09612efb565b5b612b1382612f3e565b9050602081019050919050565b600081519050919050565b600081519050919050565b600082825260208201905092915050565b600082825260208201905092915050565b600081905092915050565b6000612b6e82612cec565b9150612b7983612cec565b9250827fffffffffffffffffffffffffffffffffffffffffffffffffffffffffffffffff03821115612bae57612bad612e3f565b5b828201905092915050565b6000612bc482612cec565b9150612bcf83612cec565b925082612bdf57612bde612e6e565b5b828204905092915050565b6000612bf582612cec565b9150612c0083612cec565b9250817fffffffffffffffffffffffffffffffffffffffffffffffffffffffffffffffff0483118215151615612c3957612c38612e3f565b5b828202905092915050565b6000612c4f82612cec565b9150612c5a83612cec565b925082821015612c6d57612c6c612e3f565b5b828203905092915050565b6000612c8382612ccc565b9050919050565b60008115159050919050565b6000819050919050565b60007fffffffff0000000000000000000000000000000000000000000000000000000082169050919050565b600073ffffffffffffffffffffffffffffffffffffffff82169050919050565b6000819050919050565b82818337600083830152505050565b60005b83811015612d23578082015181840152602081019050612d08565b83811115612d32576000848401525b50505050565b6000612d4382612cec565b91506000821415612d5757612d56612e3f565b5b600182039050919050565b60006002820490506001821680612d7a57607f821691505b60208210811415612d8e57612d8d612e9d565b5b50919050565b612d9d82612f3e565b810181811067ffffffffffffffff82111715612dbc57612dbb612efb565b5b80604052505050565b6000612dd082612cec565b91507fffffffffffffffffffffffffffffffffffffffffffffffffffffffffffffffff821415612e0357612e02612e3f565b5b600182019050919050565b6000612e1982612cec565b9150612e2483612cec565b925082612e3457612e33612e6e565b5b828206905092915050565b7f4e487b7100000000000000000000000000000000000000000000000000000000600052601160045260246000fd5b7f4e487b7100000000000000000000000000000000000000000000000000000000600052601260045260246000fd5b7f4e487b7100000000000000000000000000000000000000000000000000000000600052602260045260246000fd5b7f4e487b7100000000000000000000000000000000000000000000000000000000600052603260045260246000fd5b7f4e487b7100000000000000000000000000000000000000000000000000000000600052604160045260246000fd5b600080fd5b600080fd5b600080fd5b600080fd5b6000601f19601f8301169050919050565b7f537472696e67733a20686578206c656e67746820696e73756666696369656e74600082015250565b7f4552433732313a207472616e7366657220746f206e6f6e20455243373231526560008201527f63656976657220696d706c656d656e7465720000000000000000000000000000602082015250565b7f4552433732313a20746f6b656e20616c7265616479206d696e74656400000000600082015250565b7f4552433732313a207472616e7366657220746f20746865207a65726f2061646460008201527f7265737300000000000000000000000000000000000000000000000000000000602082015250565b7f4552433732313a20617070726f766520746f2063616c6c657200000000000000600082015250565b7f4552433732313a206f70657261746f7220717565727920666f72206e6f6e657860008201527f697374656e7420746f6b656e0000000000000000000000000000000000000000602082015250565b7f4552433732313a20617070726f76652063616c6c6572206973206e6f74206f7760008201527f6e6572206e6f7220617070726f76656420666f7220616c6c0000000000000000602082015250565b7f4552433732313a2062616c616e636520717565727920666f7220746865207a6560008201527f726f206164647265737300000000000000000000000000000000000000000000602082015250565b7f4552433732313a206f776e657220717565727920666f72206e6f6e657869737460008201527f656e7420746f6b656e0000000000000000000000000000000000000000000000602082015250565b7f4552433732313a206d696e7420746f20746865207a65726f2061646472657373600082015250565b7f4552433732313a20617070726f76656420717565727920666f72206e6f6e657860008201527f697374656e7420746f6b656e0000000000000000000000000000000000000000602082015250565b7f4552433732313a207472616e73666572206f6620746f6b656e2074686174206960008201527f73206e6f74206f776e0000000000000000000000000000000000000000000000602082015250565b7f4552433732314d657461646174613a2055524920717565727920666f72206e6f60008201527f6e6578697374656e7420746f6b656e0000000000000000000000000000000000602082015250565b7f4552433732313a20617070726f76616c20746f2063757272656e74206f776e6560008201527f7200000000000000000000000000000000000000000000000000000000000000602082015250565b7f4552433732313a207472616e736665722063616c6c6572206973206e6f74206f60008201527f776e6572206e6f7220617070726f766564000000000000000000000000000000602082015250565b7f416363657373436f6e74726f6c3a206163636f756e7420000000000000000000600082015250565b7f4552433732314275726e61626c653a2063616c6c6572206973206e6f74206f7760008201527f6e6572206e6f7220617070726f76656400000000000000000000000000000000602082015250565b7f206973206d697373696e6720726f6c6520000000000000000000000000000000600082015250565b7f416363657373436f6e74726f6c3a2063616e206f6e6c792072656e6f756e636560008201527f20726f6c657320666f722073656c660000000000000000000000000000000000602082015250565b61345181612c78565b811461345c57600080fd5b50565b61346881612c8a565b811461347357600080fd5b50565b61347f81612c96565b811461348a57600080fd5b50565b61349681612ca0565b81146134a157600080fd5b50565b6134ad81612cec565b81146134b857600080fd5b5056fea26469706673582212201f3c3e40b0a0cb5fdc33ad1bba1c1a14b1998e8e91d7bc6333fed461f84e3a5c64736f6c63430008070033",
  "linkReferences": {},
  "deployedLinkReferences": {}
}