{
  "_format": "hh-sol-artifact-1",
  "contractName": "AccountingToken",
  "sourceName": "contracts/the-rewarder/AccountingToken.sol",
  "abi": [
    {
      "inputs": [],
      "stateMutability": "nonpayable",
      "type": "constructor"
    },
    {
      "anonymous": false,
      "inputs": [
        {
          "indexed": true,
          "internalType": "address",
          "name": "owner",
          "type": "address"
        },
        {
          "indexed": true,
          "internalType": "address",
          "name": "spender",
          "type": "address"
        },
        {
          "indexed": false,
          "internalType": "uint256",
          "name": "value",
          "type": "uint256"
        }
      ],
      "name": "Approval",
      "type": "event"
    },
    {
      "anonymous": false,
      "inputs": [
        {
          "indexed": true,
          "internalType": "bytes32",
          "name": "role",
          "type": "bytes32"
        },
        {
          "indexed": true,
          "internalType": "bytes32",
          "name": "previousAdminRole",
          "type": "bytes32"
        },
        {
          "indexed": true,
          "internalType": "bytes32",
          "name": "newAdminRole",
          "type": "bytes32"
        }
      ],
      "name": "RoleAdminChanged",
      "type": "event"
    },
    {
      "anonymous": false,
      "inputs": [
        {
          "indexed": true,
          "internalType": "bytes32",
          "name": "role",
          "type": "bytes32"
        },
        {
          "indexed": true,
          "internalType": "address",
          "name": "account",
          "type": "address"
        },
        {
          "indexed": true,
          "internalType": "address",
          "name": "sender",
          "type": "address"
        }
      ],
      "name": "RoleGranted",
      "type": "event"
    },
    {
      "anonymous": false,
      "inputs": [
        {
          "indexed": true,
          "internalType": "bytes32",
          "name": "role",
          "type": "bytes32"
        },
        {
          "indexed": true,
          "internalType": "address",
          "name": "account",
          "type": "address"
        },
        {
          "indexed": true,
          "internalType": "address",
          "name": "sender",
          "type": "address"
        }
      ],
      "name": "RoleRevoked",
      "type": "event"
    },
    {
      "anonymous": false,
      "inputs": [
        {
          "indexed": false,
          "internalType": "uint256",
          "name": "id",
          "type": "uint256"
        }
      ],
      "name": "Snapshot",
      "type": "event"
    },
    {
      "anonymous": false,
      "inputs": [
        {
          "indexed": true,
          "internalType": "address",
          "name": "from",
          "type": "address"
        },
        {
          "indexed": true,
          "internalType": "address",
          "name": "to",
          "type": "address"
        },
        {
          "indexed": false,
          "internalType": "uint256",
          "name": "value",
          "type": "uint256"
        }
      ],
      "name": "Transfer",
      "type": "event"
    },
    {
      "inputs": [],
      "name": "BURNER_ROLE",
      "outputs": [
        {
          "internalType": "bytes32",
          "name": "",
          "type": "bytes32"
        }
      ],
      "stateMutability": "view",
      "type": "function"
    },
    {
      "inputs": [],
      "name": "DEFAULT_ADMIN_ROLE",
      "outputs": [
        {
          "internalType": "bytes32",
          "name": "",
          "type": "bytes32"
        }
      ],
      "stateMutability": "view",
      "type": "function"
    },
    {
      "inputs": [],
      "name": "MINTER_ROLE",
      "outputs": [
        {
          "internalType": "bytes32",
          "name": "",
          "type": "bytes32"
        }
      ],
      "stateMutability": "view",
      "type": "function"
    },
    {
      "inputs": [],
      "name": "SNAPSHOT_ROLE",
      "outputs": [
        {
          "internalType": "bytes32",
          "name": "",
          "type": "bytes32"
        }
      ],
      "stateMutability": "view",
      "type": "function"
    },
    {
      "inputs": [
        {
          "internalType": "address",
          "name": "owner",
          "type": "address"
        },
        {
          "internalType": "address",
          "name": "spender",
          "type": "address"
        }
      ],
      "name": "allowance",
      "outputs": [
        {
          "internalType": "uint256",
          "name": "",
          "type": "uint256"
        }
      ],
      "stateMutability": "view",
      "type": "function"
    },
    {
      "inputs": [
        {
          "internalType": "address",
          "name": "spender",
          "type": "address"
        },
        {
          "internalType": "uint256",
          "name": "amount",
          "type": "uint256"
        }
      ],
      "name": "approve",
      "outputs": [
        {
          "internalType": "bool",
          "name": "",
          "type": "bool"
        }
      ],
      "stateMutability": "nonpayable",
      "type": "function"
    },
    {
      "inputs": [
        {
          "internalType": "address",
          "name": "account",
          "type": "address"
        }
      ],
      "name": "balanceOf",
      "outputs": [
        {
          "internalType": "uint256",
          "name": "",
          "type": "uint256"
        }
      ],
      "stateMutability": "view",
      "type": "function"
    },
    {
      "inputs": [
        {
          "internalType": "address",
          "name": "account",
          "type": "address"
        },
        {
          "internalType": "uint256",
          "name": "snapshotId",
          "type": "uint256"
        }
      ],
      "name": "balanceOfAt",
      "outputs": [
        {
          "internalType": "uint256",
          "name": "",
          "type": "uint256"
        }
      ],
      "stateMutability": "view",
      "type": "function"
    },
    {
      "inputs": [
        {
          "internalType": "address",
          "name": "from",
          "type": "address"
        },
        {
          "internalType": "uint256",
          "name": "amount",
          "type": "uint256"
        }
      ],
      "name": "burn",
      "outputs": [],
      "stateMutability": "nonpayable",
      "type": "function"
    },
    {
      "inputs": [],
      "name": "decimals",
      "outputs": [
        {
          "internalType": "uint8",
          "name": "",
          "type": "uint8"
        }
      ],
      "stateMutability": "view",
      "type": "function"
    },
    {
      "inputs": [
        {
          "internalType": "address",
          "name": "spender",
          "type": "address"
        },
        {
          "internalType": "uint256",
          "name": "subtractedValue",
          "type": "uint256"
        }
      ],
      "name": "decreaseAllowance",
      "outputs": [
        {
          "internalType": "bool",
          "name": "",
          "type": "bool"
        }
      ],
      "stateMutability": "nonpayable",
      "type": "function"
    },
    {
      "inputs": [
        {
          "internalType": "bytes32",
          "name": "role",
          "type": "bytes32"
        }
      ],
      "name": "getRoleAdmin",
      "outputs": [
        {
          "internalType": "bytes32",
          "name": "",
          "type": "bytes32"
        }
      ],
      "stateMutability": "view",
      "type": "function"
    },
    {
      "inputs": [
        {
          "internalType": "bytes32",
          "name": "role",
          "type": "bytes32"
        },
        {
          "internalType": "address",
          "name": "account",
          "type": "address"
        }
      ],
      "name": "grantRole",
      "outputs": [],
      "stateMutability": "nonpayable",
      "type": "function"
    },
    {
      "inputs": [
        {
          "internalType": "bytes32",
          "name": "role",
          "type": "bytes32"
        },
        {
          "internalType": "address",
          "name": "account",
          "type": "address"
        }
      ],
      "name": "hasRole",
      "outputs": [
        {
          "internalType": "bool",
          "name": "",
          "type": "bool"
        }
      ],
      "stateMutability": "view",
      "type": "function"
    },
    {
      "inputs": [
        {
          "internalType": "address",
          "name": "spender",
          "type": "address"
        },
        {
          "internalType": "uint256",
          "name": "addedValue",
          "type": "uint256"
        }
      ],
      "name": "increaseAllowance",
      "outputs": [
        {
          "internalType": "bool",
          "name": "",
          "type": "bool"
        }
      ],
      "stateMutability": "nonpayable",
      "type": "function"
    },
    {
      "inputs": [
        {
          "internalType": "address",
          "name": "to",
          "type": "address"
        },
        {
          "internalType": "uint256",
          "name": "amount",
          "type": "uint256"
        }
      ],
      "name": "mint",
      "outputs": [],
      "stateMutability": "nonpayable",
      "type": "function"
    },
    {
      "inputs": [],
      "name": "name",
      "outputs": [
        {
          "internalType": "string",
          "name": "",
          "type": "string"
        }
      ],
      "stateMutability": "view",
      "type": "function"
    },
    {
      "inputs": [
        {
          "internalType": "bytes32",
          "name": "role",
          "type": "bytes32"
        },
        {
          "internalType": "address",
          "name": "account",
          "type": "address"
        }
      ],
      "name": "renounceRole",
      "outputs": [],
      "stateMutability": "nonpayable",
      "type": "function"
    },
    {
      "inputs": [
        {
          "internalType": "bytes32",
          "name": "role",
          "type": "bytes32"
        },
        {
          "internalType": "address",
          "name": "account",
          "type": "address"
        }
      ],
      "name": "revokeRole",
      "outputs": [],
      "stateMutability": "nonpayable",
      "type": "function"
    },
    {
      "inputs": [],
      "name": "snapshot",
      "outputs": [
        {
          "internalType": "uint256",
          "name": "",
          "type": "uint256"
        }
      ],
      "stateMutability": "nonpayable",
      "type": "function"
    },
    {
      "inputs": [
        {
          "internalType": "bytes4",
          "name": "interfaceId",
          "type": "bytes4"
        }
      ],
      "name": "supportsInterface",
      "outputs": [
        {
          "internalType": "bool",
          "name": "",
          "type": "bool"
        }
      ],
      "stateMutability": "view",
      "type": "function"
    },
    {
      "inputs": [],
      "name": "symbol",
      "outputs": [
        {
          "internalType": "string",
          "name": "",
          "type": "string"
        }
      ],
      "stateMutability": "view",
      "type": "function"
    },
    {
      "inputs": [],
      "name": "totalSupply",
      "outputs": [
        {
          "internalType": "uint256",
          "name": "",
          "type": "uint256"
        }
      ],
      "stateMutability": "view",
      "type": "function"
    },
    {
      "inputs": [
        {
          "internalType": "uint256",
          "name": "snapshotId",
          "type": "uint256"
        }
      ],
      "name": "totalSupplyAt",
      "outputs": [
        {
          "internalType": "uint256",
          "name": "",
          "type": "uint256"
        }
      ],
      "stateMutability": "view",
      "type": "function"
    },
    {
      "inputs": [
        {
          "internalType": "address",
          "name": "recipient",
          "type": "address"
        },
        {
          "internalType": "uint256",
          "name": "amount",
          "type": "uint256"
        }
      ],
      "name": "transfer",
      "outputs": [
        {
          "internalType": "bool",
          "name": "",
          "type": "bool"
        }
      ],
      "stateMutability": "nonpayable",
      "type": "function"
    },
    {
      "inputs": [
        {
          "internalType": "address",
          "name": "sender",
          "type": "address"
        },
        {
          "internalType": "address",
          "name": "recipient",
          "type": "address"
        },
        {
          "internalType": "uint256",
          "name": "amount",
          "type": "uint256"
        }
      ],
      "name": "transferFrom",
      "outputs": [
        {
          "internalType": "bool",
          "name": "",
          "type": "bool"
        }
      ],
      "stateMutability": "nonpayable",
      "type": "function"
    }
  ],
  "bytecode": "0x60806040523480156200001157600080fd5b506040518060400160405280600681526020017f72546f6b656e00000000000000000000000000000000000000000000000000008152506040518060400160405280600481526020017f72544b4e00000000000000000000000000000000000000000000000000000000815250816003908051906020019062000096929190620002de565b508060049080519060200190620000af929190620002de565b505050620000c76000801b336200016360201b60201c565b620000f97f9f2df0fed2c77648de5860a4cc508cd0818c85b8b8a1ab4ceeef8d981c8956a6336200016360201b60201c565b6200012b7f5fdbd35e8da83ee755d5e62a539e5ed7f47126abede0b8b10f9ea43dc6eed07f336200016360201b60201c565b6200015d7f3c11d16cbaffd01df69ce1c404f6340ee057498f5f00246190ea54220576a848336200016360201b60201c565b620003f3565b6200017582826200017960201b60201c565b5050565b6200018b82826200026b60201b60201c565b620002675760016009600084815260200190815260200160002060000160008373ffffffffffffffffffffffffffffffffffffffff1673ffffffffffffffffffffffffffffffffffffffff16815260200190815260200160002060006101000a81548160ff0219169083151502179055506200020c620002d660201b60201c565b73ffffffffffffffffffffffffffffffffffffffff168173ffffffffffffffffffffffffffffffffffffffff16837f2f8788117e7eff1d82e926ec794901d17c78024a50270940304540a733656f0d60405160405180910390a45b5050565b60006009600084815260200190815260200160002060000160008373ffffffffffffffffffffffffffffffffffffffff1673ffffffffffffffffffffffffffffffffffffffff16815260200190815260200160002060009054906101000a900460ff16905092915050565b600033905090565b828054620002ec906200038e565b90600052602060002090601f0160209004810192826200031057600085556200035c565b82601f106200032b57805160ff19168380011785556200035c565b828001600101855582156200035c579182015b828111156200035b5782518255916020019190600101906200033e565b5b5090506200036b91906200036f565b5090565b5b808211156200038a57600081600090555060010162000370565b5090565b60006002820490506001821680620003a757607f821691505b60208210811415620003be57620003bd620003c4565b5b50919050565b7f4e487b7100000000000000000000000000000000000000000000000000000000600052602260045260246000fd5b61292d80620004036000396000f3fe608060405234801561001057600080fd5b506004361061018e5760003560e01c80637028e2cd116100de5780639dc29fac11610097578063a9059cbb11610071578063a9059cbb146104d3578063d539139314610503578063d547741f14610521578063dd62ed3e1461053d5761018e565b80639dc29fac14610469578063a217fddf14610485578063a457c2d7146104a35761018e565b80637028e2cd1461037f57806370a082311461039d57806391d14854146103cd57806395d89b41146103fd5780639711715a1461041b578063981b24d0146104395761018e565b8063282c51f31161014b57806336568abe1161012557806336568abe146102e7578063395093511461030357806340c10f19146103335780634ee2cd7e1461034f5761018e565b8063282c51f31461028f5780632f2ff15d146102ad578063313ce567146102c95761018e565b806301ffc9a71461019357806306fdde03146101c3578063095ea7b3146101e157806318160ddd1461021157806323b872dd1461022f578063248a9ca31461025f575b600080fd5b6101ad60048036038101906101a89190611d82565b61056d565b6040516101ba9190612083565b60405180910390f35b6101cb6105e7565b6040516101d891906120b9565b60405180910390f35b6101fb60048036038101906101f69190611cd5565b610679565b6040516102089190612083565b60405180910390f35b610219610697565b604051610226919061223b565b60405180910390f35b61024960048036038101906102449190611c82565b6106a1565b6040516102569190612083565b60405180910390f35b61027960048036038101906102749190611d15565b610799565b604051610286919061209e565b60405180910390f35b6102976107b9565b6040516102a4919061209e565b60405180910390f35b6102c760048036038101906102c29190611d42565b6107dd565b005b6102d1610806565b6040516102de9190612256565b60405180910390f35b61030160048036038101906102fc9190611d42565b61080f565b005b61031d60048036038101906103189190611cd5565b610892565b60405161032a9190612083565b60405180910390f35b61034d60048036038101906103489190611cd5565b61093e565b005b61036960048036038101906103649190611cd5565b6109b5565b604051610376919061223b565b60405180910390f35b610387610a25565b604051610394919061209e565b60405180910390f35b6103b760048036038101906103b29190611c15565b610a49565b6040516103c4919061223b565b60405180910390f35b6103e760048036038101906103e29190611d42565b610a91565b6040516103f49190612083565b60405180910390f35b610405610afc565b60405161041291906120b9565b60405180910390f35b610423610b8e565b604051610430919061223b565b60405180910390f35b610453600480360381019061044e9190611daf565b610c06565b604051610460919061223b565b60405180910390f35b610483600480360381019061047e9190611cd5565b610c37565b005b61048d610cae565b60405161049a919061209e565b60405180910390f35b6104bd60048036038101906104b89190611cd5565b610cb5565b6040516104ca9190612083565b60405180910390f35b6104ed60048036038101906104e89190611cd5565b610da0565b6040516104fa9190612083565b60405180910390f35b61050b610dbe565b604051610518919061209e565b60405180910390f35b61053b60048036038101906105369190611d42565b610de2565b005b61055760048036038101906105529190611c42565b610e0b565b604051610564919061223b565b60405180910390f35b60007f7965db0b000000000000000000000000000000000000000000000000000000007bffffffffffffffffffffffffffffffffffffffffffffffffffffffff1916827bffffffffffffffffffffffffffffffffffffffffffffffffffffffff191614806105e057506105df82610e92565b5b9050919050565b6060600380546105f690612495565b80601f016020809104026020016040519081016040528092919081815260200182805461062290612495565b801561066f5780601f106106445761010080835404028352916020019161066f565b820191906000526020600020905b81548152906001019060200180831161065257829003601f168201915b5050505050905090565b600061068d610686610efc565b8484610f04565b6001905092915050565b6000600254905090565b60006106ae848484610f3f565b6000600160008673ffffffffffffffffffffffffffffffffffffffff1673ffffffffffffffffffffffffffffffffffffffff16815260200190815260200160002060006106f9610efc565b73ffffffffffffffffffffffffffffffffffffffff1673ffffffffffffffffffffffffffffffffffffffff16815260200190815260200160002054905082811015610779576040517f08c379a00000000000000000000000000000000000000000000000000000000081526004016107709061215b565b60405180910390fd5b61078d85610785610efc565b858403610f04565b60019150509392505050565b600060096000838152602001908152602001600020600101549050919050565b7f3c11d16cbaffd01df69ce1c404f6340ee057498f5f00246190ea54220576a84881565b6107e682610799565b6107f7816107f2610efc565b610f7a565b6108018383611017565b505050565b60006012905090565b610817610efc565b73ffffffffffffffffffffffffffffffffffffffff168173ffffffffffffffffffffffffffffffffffffffff1614610884576040517f08c379a000000000000000000000000000000000000000000000000000000000815260040161087b906121fb565b60405180910390fd5b61088e82826110f8565b5050565b600061093461089f610efc565b8484600160006108ad610efc565b73ffffffffffffffffffffffffffffffffffffffff1673ffffffffffffffffffffffffffffffffffffffff16815260200190815260200160002060008873ffffffffffffffffffffffffffffffffffffffff1673ffffffffffffffffffffffffffffffffffffffff1681526020019081526020016000205461092f9190612298565b610f04565b6001905092915050565b6109687f9f2df0fed2c77648de5860a4cc508cd0818c85b8b8a1ab4ceeef8d981c8956a633610a91565b6109a7576040517f08c379a000000000000000000000000000000000000000000000000000000000815260040161099e9061213b565b60405180910390fd5b6109b182826111da565b5050565b6000806000610a0284600560008873ffffffffffffffffffffffffffffffffffffffff1673ffffffffffffffffffffffffffffffffffffffff16815260200190815260200160002061133a565b9150915081610a1957610a1485610a49565b610a1b565b805b9250505092915050565b7f5fdbd35e8da83ee755d5e62a539e5ed7f47126abede0b8b10f9ea43dc6eed07f81565b60008060008373ffffffffffffffffffffffffffffffffffffffff1673ffffffffffffffffffffffffffffffffffffffff168152602001908152602001600020549050919050565b60006009600084815260200190815260200160002060000160008373ffffffffffffffffffffffffffffffffffffffff1673ffffffffffffffffffffffffffffffffffffffff16815260200190815260200160002060009054906101000a900460ff16905092915050565b606060048054610b0b90612495565b80601f0160208091040260200160405190810160405280929190818152602001828054610b3790612495565b8015610b845780601f10610b5957610100808354040283529160200191610b84565b820191906000526020600020905b815481529060010190602001808311610b6757829003601f168201915b5050505050905090565b6000610bba7f5fdbd35e8da83ee755d5e62a539e5ed7f47126abede0b8b10f9ea43dc6eed07f33610a91565b610bf9576040517f08c379a0000000000000000000000000000000000000000000000000000000008152600401610bf09061213b565b60405180910390fd5b610c01611430565b905090565b6000806000610c1684600661133a565b9150915081610c2c57610c27610697565b610c2e565b805b92505050919050565b610c617f3c11d16cbaffd01df69ce1c404f6340ee057498f5f00246190ea54220576a84833610a91565b610ca0576040517f08c379a0000000000000000000000000000000000000000000000000000000008152600401610c979061213b565b60405180910390fd5b610caa8282611486565b5050565b6000801b81565b60008060016000610cc4610efc565b73ffffffffffffffffffffffffffffffffffffffff1673ffffffffffffffffffffffffffffffffffffffff16815260200190815260200160002060008573ffffffffffffffffffffffffffffffffffffffff1673ffffffffffffffffffffffffffffffffffffffff16815260200190815260200160002054905082811015610d81576040517f08c379a0000000000000000000000000000000000000000000000000000000008152600401610d78906121db565b60405180910390fd5b610d95610d8c610efc565b85858403610f04565b600191505092915050565b6000610db4610dad610efc565b8484610f3f565b6001905092915050565b7f9f2df0fed2c77648de5860a4cc508cd0818c85b8b8a1ab4ceeef8d981c8956a681565b610deb82610799565b610dfc81610df7610efc565b610f7a565b610e0683836110f8565b505050565b6000600160008473ffffffffffffffffffffffffffffffffffffffff1673ffffffffffffffffffffffffffffffffffffffff16815260200190815260200160002060008373ffffffffffffffffffffffffffffffffffffffff1673ffffffffffffffffffffffffffffffffffffffff16815260200190815260200160002054905092915050565b60007f01ffc9a7000000000000000000000000000000000000000000000000000000007bffffffffffffffffffffffffffffffffffffffffffffffffffffffff1916827bffffffffffffffffffffffffffffffffffffffffffffffffffffffff1916149050919050565b600033905090565b6040517f08c379a0000000000000000000000000000000000000000000000000000000008152600401610f369061217b565b60405180910390fd5b6040517f08c379a0000000000000000000000000000000000000000000000000000000008152600401610f719061217b565b60405180910390fd5b610f848282610a91565b61101357610fa98173ffffffffffffffffffffffffffffffffffffffff16601461165d565b610fb78360001c602061165d565b604051602001610fc8929190612049565b6040516020818303038152906040526040517f08c379a000000000000000000000000000000000000000000000000000000000815260040161100a91906120b9565b60405180910390fd5b5050565b6110218282610a91565b6110f45760016009600084815260200190815260200160002060000160008373ffffffffffffffffffffffffffffffffffffffff1673ffffffffffffffffffffffffffffffffffffffff16815260200190815260200160002060006101000a81548160ff021916908315150217905550611099610efc565b73ffffffffffffffffffffffffffffffffffffffff168173ffffffffffffffffffffffffffffffffffffffff16837f2f8788117e7eff1d82e926ec794901d17c78024a50270940304540a733656f0d60405160405180910390a45b5050565b6111028282610a91565b156111d65760006009600084815260200190815260200160002060000160008373ffffffffffffffffffffffffffffffffffffffff1673ffffffffffffffffffffffffffffffffffffffff16815260200190815260200160002060006101000a81548160ff02191690831515021790555061117b610efc565b73ffffffffffffffffffffffffffffffffffffffff168173ffffffffffffffffffffffffffffffffffffffff16837ff6391f5c32d9c69d2a47ea670b442974b53935d1edc7fd64eb21e047a839171b60405160405180910390a45b5050565b600073ffffffffffffffffffffffffffffffffffffffff168273ffffffffffffffffffffffffffffffffffffffff16141561124a576040517f08c379a00000000000000000000000000000000000000000000000000000000081526004016112419061221b565b60405180910390fd5b61125660008383611899565b80600260008282546112689190612298565b92505081905550806000808473ffffffffffffffffffffffffffffffffffffffff1673ffffffffffffffffffffffffffffffffffffffff16815260200190815260200160002060008282546112bd9190612298565b925050819055508173ffffffffffffffffffffffffffffffffffffffff16600073ffffffffffffffffffffffffffffffffffffffff167fddf252ad1be2c89b69c2b068fc378daa952ba7f163c4a11628f55a4df523b3ef83604051611322919061223b565b60405180910390a361133660008383611953565b5050565b60008060008411611380576040517f08c379a0000000000000000000000000000000000000000000000000000000008152600401611377906121bb565b60405180910390fd5b611388611958565b8411156113ca576040517f08c379a00000000000000000000000000000000000000000000000000000000081526004016113c1906120db565b60405180910390fd5b60006113e2858560000161196990919063ffffffff16565b90508360000180549050811415611400576000809250925050611429565b600184600101828154811061141857611417612554565b5b906000526020600020015492509250505b9250929050565b600061143c6008611a43565b6000611446611958565b90507f8030e83b04d87bef53480e26263266d6ca66863aa8506aca6f2559d18aa1cb6781604051611477919061223b565b60405180910390a18091505090565b600073ffffffffffffffffffffffffffffffffffffffff168273ffffffffffffffffffffffffffffffffffffffff1614156114f6576040517f08c379a00000000000000000000000000000000000000000000000000000000081526004016114ed9061219b565b60405180910390fd5b61150282600083611899565b60008060008473ffffffffffffffffffffffffffffffffffffffff1673ffffffffffffffffffffffffffffffffffffffff16815260200190815260200160002054905081811015611588576040517f08c379a000000000000000000000000000000000000000000000000000000000815260040161157f9061211b565b60405180910390fd5b8181036000808573ffffffffffffffffffffffffffffffffffffffff1673ffffffffffffffffffffffffffffffffffffffff1681526020019081526020016000208190555081600260008282546115df9190612379565b92505081905550600073ffffffffffffffffffffffffffffffffffffffff168373ffffffffffffffffffffffffffffffffffffffff167fddf252ad1be2c89b69c2b068fc378daa952ba7f163c4a11628f55a4df523b3ef84604051611644919061223b565b60405180910390a361165883600084611953565b505050565b606060006002836002611670919061231f565b61167a9190612298565b67ffffffffffffffff81111561169357611692612583565b5b6040519080825280601f01601f1916602001820160405280156116c55781602001600182028036833780820191505090505b5090507f3000000000000000000000000000000000000000000000000000000000000000816000815181106116fd576116fc612554565b5b60200101907effffffffffffffffffffffffffffffffffffffffffffffffffffffffffffff1916908160001a9053507f78000000000000000000000000000000000000000000000000000000000000008160018151811061176157611760612554565b5b60200101907effffffffffffffffffffffffffffffffffffffffffffffffffffffffffffff1916908160001a905350600060018460026117a1919061231f565b6117ab9190612298565b90505b600181111561184b577f3031323334353637383961626364656600000000000000000000000000000000600f8616601081106117ed576117ec612554565b5b1a60f81b82828151811061180457611803612554565b5b60200101907effffffffffffffffffffffffffffffffffffffffffffffffffffffffffffff1916908160001a905350600485901c9450806118449061246b565b90506117ae565b506000841461188f576040517f08c379a0000000000000000000000000000000000000000000000000000000008152600401611886906120fb565b60405180910390fd5b8091505092915050565b6118a4838383611a59565b600073ffffffffffffffffffffffffffffffffffffffff168373ffffffffffffffffffffffffffffffffffffffff1614156118ef576118e282611a5e565b6118ea611ab1565b61194e565b600073ffffffffffffffffffffffffffffffffffffffff168273ffffffffffffffffffffffffffffffffffffffff16141561193a5761192d83611a5e565b611935611ab1565b61194d565b61194383611a5e565b61194c82611a5e565b5b5b505050565b505050565b60006119646008611ac5565b905090565b600080838054905014156119805760009050611a3d565b600080848054905090505b808210156119e457600061199f8383611ad3565b9050848682815481106119b5576119b4612554565b5b906000526020600020015411156119ce578091506119de565b6001816119db9190612298565b92505b5061198b565b600082118015611a1c575083856001846119fe9190612379565b81548110611a0f57611a0e612554565b5b9060005260206000200154145b15611a3757600182611a2e9190612379565b92505050611a3d565b81925050505b92915050565b6001816000016000828254019250508190555050565b505050565b611aae600560008373ffffffffffffffffffffffffffffffffffffffff1673ffffffffffffffffffffffffffffffffffffffff168152602001908152602001600020611aa983610a49565b611af9565b50565b611ac36006611abe610697565b611af9565b565b600081600001549050919050565b60006002828418611ae491906122ee565b828416611af19190612298565b905092915050565b6000611b03611958565b905080611b1284600001611b74565b1015611b6f5782600001819080600181540180825580915050600190039060005260206000200160009091909190915055826001018290806001815401808255809150506001900390600052602060002001600090919091909150555b505050565b60008082805490501415611b8b5760009050611bbc565b8160018380549050611b9d9190612379565b81548110611bae57611bad612554565b5b906000526020600020015490505b919050565b600081359050611bd08161289b565b92915050565b600081359050611be5816128b2565b92915050565b600081359050611bfa816128c9565b92915050565b600081359050611c0f816128e0565b92915050565b600060208284031215611c2b57611c2a6125b2565b5b6000611c3984828501611bc1565b91505092915050565b60008060408385031215611c5957611c586125b2565b5b6000611c6785828601611bc1565b9250506020611c7885828601611bc1565b9150509250929050565b600080600060608486031215611c9b57611c9a6125b2565b5b6000611ca986828701611bc1565b9350506020611cba86828701611bc1565b9250506040611ccb86828701611c00565b9150509250925092565b60008060408385031215611cec57611ceb6125b2565b5b6000611cfa85828601611bc1565b9250506020611d0b85828601611c00565b9150509250929050565b600060208284031215611d2b57611d2a6125b2565b5b6000611d3984828501611bd6565b91505092915050565b60008060408385031215611d5957611d586125b2565b5b6000611d6785828601611bd6565b9250506020611d7885828601611bc1565b9150509250929050565b600060208284031215611d9857611d976125b2565b5b6000611da684828501611beb565b91505092915050565b600060208284031215611dc557611dc46125b2565b5b6000611dd384828501611c00565b91505092915050565b611de5816123bf565b82525050565b611df4816123cb565b82525050565b6000611e0582612271565b611e0f818561227c565b9350611e1f818560208601612438565b611e28816125b7565b840191505092915050565b6000611e3e82612271565b611e48818561228d565b9350611e58818560208601612438565b80840191505092915050565b6000611e71601d8361227c565b9150611e7c826125c8565b602082019050919050565b6000611e9460208361227c565b9150611e9f826125f1565b602082019050919050565b6000611eb760228361227c565b9150611ec28261261a565b604082019050919050565b6000611eda60098361227c565b9150611ee582612669565b602082019050919050565b6000611efd60288361227c565b9150611f0882612692565b604082019050919050565b6000611f20600f8361227c565b9150611f2b826126e1565b602082019050919050565b6000611f4360218361227c565b9150611f4e8261270a565b604082019050919050565b6000611f6660168361227c565b9150611f7182612759565b602082019050919050565b6000611f8960178361228d565b9150611f9482612782565b601782019050919050565b6000611fac60258361227c565b9150611fb7826127ab565b604082019050919050565b6000611fcf60118361228d565b9150611fda826127fa565b601182019050919050565b6000611ff2602f8361227c565b9150611ffd82612823565b604082019050919050565b6000612015601f8361227c565b915061202082612872565b602082019050919050565b61203481612421565b82525050565b6120438161242b565b82525050565b600061205482611f7c565b91506120608285611e33565b915061206b82611fc2565b91506120778284611e33565b91508190509392505050565b60006020820190506120986000830184611ddc565b92915050565b60006020820190506120b36000830184611deb565b92915050565b600060208201905081810360008301526120d38184611dfa565b905092915050565b600060208201905081810360008301526120f481611e64565b9050919050565b6000602082019050818103600083015261211481611e87565b9050919050565b6000602082019050818103600083015261213481611eaa565b9050919050565b6000602082019050818103600083015261215481611ecd565b9050919050565b6000602082019050818103600083015261217481611ef0565b9050919050565b6000602082019050818103600083015261219481611f13565b9050919050565b600060208201905081810360008301526121b481611f36565b9050919050565b600060208201905081810360008301526121d481611f59565b9050919050565b600060208201905081810360008301526121f481611f9f565b9050919050565b6000602082019050818103600083015261221481611fe5565b9050919050565b6000602082019050818103600083015261223481612008565b9050919050565b6000602082019050612250600083018461202b565b92915050565b600060208201905061226b600083018461203a565b92915050565b600081519050919050565b600082825260208201905092915050565b600081905092915050565b60006122a382612421565b91506122ae83612421565b9250827fffffffffffffffffffffffffffffffffffffffffffffffffffffffffffffffff038211156122e3576122e26124c7565b5b828201905092915050565b60006122f982612421565b915061230483612421565b925082612314576123136124f6565b5b828204905092915050565b600061232a82612421565b915061233583612421565b9250817fffffffffffffffffffffffffffffffffffffffffffffffffffffffffffffffff048311821515161561236e5761236d6124c7565b5b828202905092915050565b600061238482612421565b915061238f83612421565b9250828210156123a2576123a16124c7565b5b828203905092915050565b60006123b882612401565b9050919050565b60008115159050919050565b6000819050919050565b60007fffffffff0000000000000000000000000000000000000000000000000000000082169050919050565b600073ffffffffffffffffffffffffffffffffffffffff82169050919050565b6000819050919050565b600060ff82169050919050565b60005b8381101561245657808201518184015260208101905061243b565b83811115612465576000848401525b50505050565b600061247682612421565b9150600082141561248a576124896124c7565b5b600182039050919050565b600060028204905060018216806124ad57607f821691505b602082108114156124c1576124c0612525565b5b50919050565b7f4e487b7100000000000000000000000000000000000000000000000000000000600052601160045260246000fd5b7f4e487b7100000000000000000000000000000000000000000000000000000000600052601260045260246000fd5b7f4e487b7100000000000000000000000000000000000000000000000000000000600052602260045260246000fd5b7f4e487b7100000000000000000000000000000000000000000000000000000000600052603260045260246000fd5b7f4e487b7100000000000000000000000000000000000000000000000000000000600052604160045260246000fd5b600080fd5b6000601f19601f8301169050919050565b7f4552433230536e617073686f743a206e6f6e6578697374656e74206964000000600082015250565b7f537472696e67733a20686578206c656e67746820696e73756666696369656e74600082015250565b7f45524332303a206275726e20616d6f756e7420657863656564732062616c616e60008201527f6365000000000000000000000000000000000000000000000000000000000000602082015250565b7f466f7262696464656e0000000000000000000000000000000000000000000000600082015250565b7f45524332303a207472616e7366657220616d6f756e742065786365656473206160008201527f6c6c6f77616e6365000000000000000000000000000000000000000000000000602082015250565b7f4e6f7420696d706c656d656e7465640000000000000000000000000000000000600082015250565b7f45524332303a206275726e2066726f6d20746865207a65726f2061646472657360008201527f7300000000000000000000000000000000000000000000000000000000000000602082015250565b7f4552433230536e617073686f743a206964206973203000000000000000000000600082015250565b7f416363657373436f6e74726f6c3a206163636f756e7420000000000000000000600082015250565b7f45524332303a2064656372656173656420616c6c6f77616e63652062656c6f7760008201527f207a65726f000000000000000000000000000000000000000000000000000000602082015250565b7f206973206d697373696e6720726f6c6520000000000000000000000000000000600082015250565b7f416363657373436f6e74726f6c3a2063616e206f6e6c792072656e6f756e636560008201527f20726f6c657320666f722073656c660000000000000000000000000000000000602082015250565b7f45524332303a206d696e7420746f20746865207a65726f206164647265737300600082015250565b6128a4816123ad565b81146128af57600080fd5b50565b6128bb816123cb565b81146128c657600080fd5b50565b6128d2816123d5565b81146128dd57600080fd5b50565b6128e981612421565b81146128f457600080fd5b5056fea2646970667358221220d87170f2a9209840442e16755f8ab46ff737f62532296aae9ad477ba75504a2d64736f6c63430008070033",
  "linkReferences": {},
  "deployedLinkReferences": {}
}