{
  "_format": "hh-sol-artifact-1",
  "contractName": "TheRewarderPool",
  "sourceName": "contracts/the-rewarder/TheRewarderPool.sol",
  "abi": [
    {
      "inputs": [
        {
          "internalType": "address",
          "name": "tokenAddress",
          "type": "address"
        }
      ],
      "stateMutability": "nonpayable",
      "type": "constructor"
    },
    {
      "inputs": [],
      "name": "accToken",
      "outputs": [
        {
          "internalType": "contract AccountingToken",
          "name": "",
          "type": "address"
        }
      ],
      "stateMutability": "view",
      "type": "function"
    },
    {
      "inputs": [
        {
          "internalType": "uint256",
          "name": "amountToDeposit",
          "type": "uint256"
        }
      ],
      "name": "deposit",
      "outputs": [],
      "stateMutability": "nonpayable",
      "type": "function"
    },
    {
      "inputs": [],
      "name": "distributeRewards",
      "outputs": [
        {
          "internalType": "uint256",
          "name": "",
          "type": "uint256"
        }
      ],
      "stateMutability": "nonpayable",
      "type": "function"
    },
    {
      "inputs": [],
      "name": "isNewRewardsRound",
      "outputs": [
        {
          "internalType": "bool",
          "name": "",
          "type": "bool"
        }
      ],
      "stateMutability": "view",
      "type": "function"
    },
    {
      "inputs": [],
      "name": "lastRecordedSnapshotTimestamp",
      "outputs": [
        {
          "internalType": "uint256",
          "name": "",
          "type": "uint256"
        }
      ],
      "stateMutability": "view",
      "type": "function"
    },
    {
      "inputs": [
        {
          "internalType": "address",
          "name": "",
          "type": "address"
        }
      ],
      "name": "lastRewardTimestamps",
      "outputs": [
        {
          "internalType": "uint256",
          "name": "",
          "type": "uint256"
        }
      ],
      "stateMutability": "view",
      "type": "function"
    },
    {
      "inputs": [],
      "name": "lastSnapshotIdForRewards",
      "outputs": [
        {
          "internalType": "uint256",
          "name": "",
          "type": "uint256"
        }
      ],
      "stateMutability": "view",
      "type": "function"
    },
    {
      "inputs": [],
      "name": "liquidityToken",
      "outputs": [
        {
          "internalType": "contract DamnValuableToken",
          "name": "",
          "type": "address"
        }
      ],
      "stateMutability": "view",
      "type": "function"
    },
    {
      "inputs": [],
      "name": "rewardToken",
      "outputs": [
        {
          "internalType": "contract RewardToken",
          "name": "",
          "type": "address"
        }
      ],
      "stateMutability": "view",
      "type": "function"
    },
    {
      "inputs": [],
      "name": "roundNumber",
      "outputs": [
        {
          "internalType": "uint256",
          "name": "",
          "type": "uint256"
        }
      ],
      "stateMutability": "view",
      "type": "function"
    },
    {
      "inputs": [
        {
          "internalType": "uint256",
          "name": "amountToWithdraw",
          "type": "uint256"
        }
      ],
      "name": "withdraw",
      "outputs": [],
      "stateMutability": "nonpayable",
      "type": "function"
    }
  ],
  "bytecode": "0x60c06040523480156200001157600080fd5b50604051620066c8380380620066c883398181016040528101906200003791906200026c565b8073ffffffffffffffffffffffffffffffffffffffff1660808173ffffffffffffffffffffffffffffffffffffffff1660601b815250506040516200007c9062000222565b604051809103906000f08015801562000099573d6000803e3d6000fd5b50600360006101000a81548173ffffffffffffffffffffffffffffffffffffffff021916908373ffffffffffffffffffffffffffffffffffffffff160217905550604051620000e89062000230565b604051809103906000f08015801562000105573d6000803e3d6000fd5b5073ffffffffffffffffffffffffffffffffffffffff1660a08173ffffffffffffffffffffffffffffffffffffffff1660601b815250506200014c6200015360201b60201c565b50620003c4565b600360009054906101000a900473ffffffffffffffffffffffffffffffffffffffff1673ffffffffffffffffffffffffffffffffffffffff16639711715a6040518163ffffffff1660e01b8152600401602060405180830381600087803b158015620001be57600080fd5b505af1158015620001d3573d6000803e3d6000fd5b505050506040513d601f19601f82011682018060405250810190620001f991906200029e565b60008190555042600181905550600460008154809291906200021b906200030e565b9190505550565b612d30806200133883390190565b612660806200406883390190565b6000815190506200024f8162000390565b92915050565b6000815190506200026681620003aa565b92915050565b6000602082840312156200028557620002846200038b565b5b600062000295848285016200023e565b91505092915050565b600060208284031215620002b757620002b66200038b565b5b6000620002c78482850162000255565b91505092915050565b6000620002dd82620002e4565b9050919050565b600073ffffffffffffffffffffffffffffffffffffffff82169050919050565b6000819050919050565b60006200031b8262000304565b91507fffffffffffffffffffffffffffffffffffffffffffffffffffffffffffffffff8214156200035157620003506200035c565b5b600182019050919050565b7f4e487b7100000000000000000000000000000000000000000000000000000000600052601160045260246000fd5b600080fd5b6200039b81620002d0565b8114620003a757600080fd5b50565b620003b58162000304565b8114620003c157600080fd5b50565b60805160601c60a05160601c610f3362000405600039600081816105b7015261082f0152600081816102de015281816103af01526107740152610f336000f3fe608060405234801561001057600080fd5b50600436106100a95760003560e01c806343cd8f7e1161007157806343cd8f7e146101545780634e2786fb146101725780636f4a2cd0146101905780637076b7cd146101ae578063b6b55f25146101cc578063f7c618c1146101e8576100a9565b80631a465d23146100ae5780632a4100ce146100cc5780632b7f81fe146100ea5780632e1a7d4d146101085780633b632b2514610124575b600080fd5b6100b6610206565b6040516100c39190610ba8565b60405180910390f35b6100d4610221565b6040516100e19190610bc3565b60405180910390f35b6100f2610247565b6040516100ff9190610c34565b60405180910390f35b610122600480360381019061011d9190610a71565b61024d565b005b61013e60048036038101906101399190610a17565b610395565b60405161014b9190610c34565b60405180910390f35b61015c6103ad565b6040516101699190610bde565b60405180910390f35b61017a6103d1565b6040516101879190610c34565b60405180910390f35b6101986103d7565b6040516101a59190610c34565b60405180910390f35b6101b6610691565b6040516101c39190610c34565b60405180910390f35b6101e660048036038101906101e19190610a71565b610697565b005b6101f061082d565b6040516101fd9190610bf9565b60405180910390f35b6000620697806001546102199190610c60565b421015905090565b600360009054906101000a900473ffffffffffffffffffffffffffffffffffffffff1681565b60015481565b600360009054906101000a900473ffffffffffffffffffffffffffffffffffffffff1673ffffffffffffffffffffffffffffffffffffffff16639dc29fac33836040518363ffffffff1660e01b81526004016102aa929190610b7f565b600060405180830381600087803b1580156102c457600080fd5b505af11580156102d8573d6000803e3d6000fd5b505050507f000000000000000000000000000000000000000000000000000000000000000073ffffffffffffffffffffffffffffffffffffffff1663a9059cbb33836040518363ffffffff1660e01b8152600401610337929190610b7f565b602060405180830381600087803b15801561035157600080fd5b505af1158015610365573d6000803e3d6000fd5b505050506040513d601f19601f820116820180604052508101906103899190610a44565b61039257600080fd5b50565b60026020528060005260406000206000915090505481565b7f000000000000000000000000000000000000000000000000000000000000000081565b60045481565b600080600090506103e6610206565b156103f4576103f3610851565b5b6000600360009054906101000a900473ffffffffffffffffffffffffffffffffffffffff1673ffffffffffffffffffffffffffffffffffffffff1663981b24d06000546040518263ffffffff1660e01b81526004016104539190610c34565b60206040518083038186803b15801561046b57600080fd5b505afa15801561047f573d6000803e3d6000fd5b505050506040513d601f19601f820116820180604052508101906104a39190610a9e565b90506000600360009054906101000a900473ffffffffffffffffffffffffffffffffffffffff1673ffffffffffffffffffffffffffffffffffffffff16634ee2cd7e336000546040518363ffffffff1660e01b8152600401610506929190610b7f565b60206040518083038186803b15801561051e57600080fd5b505afa158015610532573d6000803e3d6000fd5b505050506040513d601f19601f820116820180604052508101906105569190610a9e565b90506000811180156105685750600082115b156106885781670de0b6b3a76400006064836105849190610ce7565b61058e9190610ce7565b6105989190610cb6565b92506000831180156105b057506105ae3361091a565b155b15610687577f000000000000000000000000000000000000000000000000000000000000000073ffffffffffffffffffffffffffffffffffffffff166340c10f1933856040518363ffffffff1660e01b8152600401610610929190610b7f565b600060405180830381600087803b15801561062a57600080fd5b505af115801561063e573d6000803e3d6000fd5b5050505042600260003373ffffffffffffffffffffffffffffffffffffffff1673ffffffffffffffffffffffffffffffffffffffff168152602001908152602001600020819055505b5b82935050505090565b60005481565b600081116106da576040517f08c379a00000000000000000000000000000000000000000000000000000000081526004016106d190610c14565b60405180910390fd5b600360009054906101000a900473ffffffffffffffffffffffffffffffffffffffff1673ffffffffffffffffffffffffffffffffffffffff166340c10f1933836040518363ffffffff1660e01b8152600401610737929190610b7f565b600060405180830381600087803b15801561075157600080fd5b505af1158015610765573d6000803e3d6000fd5b505050506107716103d7565b507f000000000000000000000000000000000000000000000000000000000000000073ffffffffffffffffffffffffffffffffffffffff166323b872dd3330846040518463ffffffff1660e01b81526004016107cf93929190610b48565b602060405180830381600087803b1580156107e957600080fd5b505af11580156107fd573d6000803e3d6000fd5b505050506040513d601f19601f820116820180604052508101906108219190610a44565b61082a57600080fd5b50565b7f000000000000000000000000000000000000000000000000000000000000000081565b600360009054906101000a900473ffffffffffffffffffffffffffffffffffffffff1673ffffffffffffffffffffffffffffffffffffffff16639711715a6040518163ffffffff1660e01b8152600401602060405180830381600087803b1580156108bb57600080fd5b505af11580156108cf573d6000803e3d6000fd5b505050506040513d601f19601f820116820180604052508101906108f39190610a9e565b600081905550426001819055506004600081548092919061091390610de3565b9190505550565b6000600154600260008473ffffffffffffffffffffffffffffffffffffffff1673ffffffffffffffffffffffffffffffffffffffff16815260200190815260200160002054101580156109bc5750620697806001546109799190610c60565b600260008473ffffffffffffffffffffffffffffffffffffffff1673ffffffffffffffffffffffffffffffffffffffff1681526020019081526020016000205411155b9050919050565b6000813590506109d281610eb8565b92915050565b6000815190506109e781610ecf565b92915050565b6000813590506109fc81610ee6565b92915050565b600081519050610a1181610ee6565b92915050565b600060208284031215610a2d57610a2c610e8a565b5b6000610a3b848285016109c3565b91505092915050565b600060208284031215610a5a57610a59610e8a565b5b6000610a68848285016109d8565b91505092915050565b600060208284031215610a8757610a86610e8a565b5b6000610a95848285016109ed565b91505092915050565b600060208284031215610ab457610ab3610e8a565b5b6000610ac284828501610a02565b91505092915050565b610ad481610d41565b82525050565b610ae381610d53565b82525050565b610af281610d89565b82525050565b610b0181610d9b565b82525050565b610b1081610dad565b82525050565b6000610b23601383610c4f565b9150610b2e82610e8f565b602082019050919050565b610b4281610d7f565b82525050565b6000606082019050610b5d6000830186610acb565b610b6a6020830185610acb565b610b776040830184610b39565b949350505050565b6000604082019050610b946000830185610acb565b610ba16020830184610b39565b9392505050565b6000602082019050610bbd6000830184610ada565b92915050565b6000602082019050610bd86000830184610ae9565b92915050565b6000602082019050610bf36000830184610af8565b92915050565b6000602082019050610c0e6000830184610b07565b92915050565b60006020820190508181036000830152610c2d81610b16565b9050919050565b6000602082019050610c496000830184610b39565b92915050565b600082825260208201905092915050565b6000610c6b82610d7f565b9150610c7683610d7f565b9250827fffffffffffffffffffffffffffffffffffffffffffffffffffffffffffffffff03821115610cab57610caa610e2c565b5b828201905092915050565b6000610cc182610d7f565b9150610ccc83610d7f565b925082610cdc57610cdb610e5b565b5b828204905092915050565b6000610cf282610d7f565b9150610cfd83610d7f565b9250817fffffffffffffffffffffffffffffffffffffffffffffffffffffffffffffffff0483118215151615610d3657610d35610e2c565b5b828202905092915050565b6000610d4c82610d5f565b9050919050565b60008115159050919050565b600073ffffffffffffffffffffffffffffffffffffffff82169050919050565b6000819050919050565b6000610d9482610dbf565b9050919050565b6000610da682610dbf565b9050919050565b6000610db882610dbf565b9050919050565b6000610dca82610dd1565b9050919050565b6000610ddc82610d5f565b9050919050565b6000610dee82610d7f565b91507fffffffffffffffffffffffffffffffffffffffffffffffffffffffffffffffff821415610e2157610e20610e2c565b5b600182019050919050565b7f4e487b7100000000000000000000000000000000000000000000000000000000600052601160045260246000fd5b7f4e487b7100000000000000000000000000000000000000000000000000000000600052601260045260246000fd5b600080fd5b7f4d757374206465706f73697420746f6b656e7300000000000000000000000000600082015250565b610ec181610d41565b8114610ecc57600080fd5b50565b610ed881610d53565b8114610ee357600080fd5b50565b610eef81610d7f565b8114610efa57600080fd5b5056fea26469706673582212200d6798e5c27876d27ae4f81043a2cba900bca5147e36570f8a8ec281a86da2ef64736f6c6343000807003360806040523480156200001157600080fd5b506040518060400160405280600681526020017f72546f6b656e00000000000000000000000000000000000000000000000000008152506040518060400160405280600481526020017f72544b4e00000000000000000000000000000000000000000000000000000000815250816003908051906020019062000096929190620002de565b508060049080519060200190620000af929190620002de565b505050620000c76000801b336200016360201b60201c565b620000f97f9f2df0fed2c77648de5860a4cc508cd0818c85b8b8a1ab4ceeef8d981c8956a6336200016360201b60201c565b6200012b7f5fdbd35e8da83ee755d5e62a539e5ed7f47126abede0b8b10f9ea43dc6eed07f336200016360201b60201c565b6200015d7f3c11d16cbaffd01df69ce1c404f6340ee057498f5f00246190ea54220576a848336200016360201b60201c565b620003f3565b6200017582826200017960201b60201c565b5050565b6200018b82826200026b60201b60201c565b620002675760016009600084815260200190815260200160002060000160008373ffffffffffffffffffffffffffffffffffffffff1673ffffffffffffffffffffffffffffffffffffffff16815260200190815260200160002060006101000a81548160ff0219169083151502179055506200020c620002d660201b60201c565b73ffffffffffffffffffffffffffffffffffffffff168173ffffffffffffffffffffffffffffffffffffffff16837f2f8788117e7eff1d82e926ec794901d17c78024a50270940304540a733656f0d60405160405180910390a45b5050565b60006009600084815260200190815260200160002060000160008373ffffffffffffffffffffffffffffffffffffffff1673ffffffffffffffffffffffffffffffffffffffff16815260200190815260200160002060009054906101000a900460ff16905092915050565b600033905090565b828054620002ec906200038e565b90600052602060002090601f0160209004810192826200031057600085556200035c565b82601f106200032b57805160ff19168380011785556200035c565b828001600101855582156200035c579182015b828111156200035b5782518255916020019190600101906200033e565b5b5090506200036b91906200036f565b5090565b5b808211156200038a57600081600090555060010162000370565b5090565b60006002820490506001821680620003a757607f821691505b60208210811415620003be57620003bd620003c4565b5b50919050565b7f4e487b7100000000000000000000000000000000000000000000000000000000600052602260045260246000fd5b61292d80620004036000396000f3fe608060405234801561001057600080fd5b506004361061018e5760003560e01c80637028e2cd116100de5780639dc29fac11610097578063a9059cbb11610071578063a9059cbb146104d3578063d539139314610503578063d547741f14610521578063dd62ed3e1461053d5761018e565b80639dc29fac14610469578063a217fddf14610485578063a457c2d7146104a35761018e565b80637028e2cd1461037f57806370a082311461039d57806391d14854146103cd57806395d89b41146103fd5780639711715a1461041b578063981b24d0146104395761018e565b8063282c51f31161014b57806336568abe1161012557806336568abe146102e7578063395093511461030357806340c10f19146103335780634ee2cd7e1461034f5761018e565b8063282c51f31461028f5780632f2ff15d146102ad578063313ce567146102c95761018e565b806301ffc9a71461019357806306fdde03146101c3578063095ea7b3146101e157806318160ddd1461021157806323b872dd1461022f578063248a9ca31461025f575b600080fd5b6101ad60048036038101906101a89190611d82565b61056d565b6040516101ba9190612083565b60405180910390f35b6101cb6105e7565b6040516101d891906120b9565b60405180910390f35b6101fb60048036038101906101f69190611cd5565b610679565b6040516102089190612083565b60405180910390f35b610219610697565b604051610226919061223b565b60405180910390f35b61024960048036038101906102449190611c82565b6106a1565b6040516102569190612083565b60405180910390f35b61027960048036038101906102749190611d15565b610799565b604051610286919061209e565b60405180910390f35b6102976107b9565b6040516102a4919061209e565b60405180910390f35b6102c760048036038101906102c29190611d42565b6107dd565b005b6102d1610806565b6040516102de9190612256565b60405180910390f35b61030160048036038101906102fc9190611d42565b61080f565b005b61031d60048036038101906103189190611cd5565b610892565b60405161032a9190612083565b60405180910390f35b61034d60048036038101906103489190611cd5565b61093e565b005b61036960048036038101906103649190611cd5565b6109b5565b604051610376919061223b565b60405180910390f35b610387610a25565b604051610394919061209e565b60405180910390f35b6103b760048036038101906103b29190611c15565b610a49565b6040516103c4919061223b565b60405180910390f35b6103e760048036038101906103e29190611d42565b610a91565b6040516103f49190612083565b60405180910390f35b610405610afc565b60405161041291906120b9565b60405180910390f35b610423610b8e565b604051610430919061223b565b60405180910390f35b610453600480360381019061044e9190611daf565b610c06565b604051610460919061223b565b60405180910390f35b610483600480360381019061047e9190611cd5565b610c37565b005b61048d610cae565b60405161049a919061209e565b60405180910390f35b6104bd60048036038101906104b89190611cd5565b610cb5565b6040516104ca9190612083565b60405180910390f35b6104ed60048036038101906104e89190611cd5565b610da0565b6040516104fa9190612083565b60405180910390f35b61050b610dbe565b604051610518919061209e565b60405180910390f35b61053b60048036038101906105369190611d42565b610de2565b005b61055760048036038101906105529190611c42565b610e0b565b604051610564919061223b565b60405180910390f35b60007f7965db0b000000000000000000000000000000000000000000000000000000007bffffffffffffffffffffffffffffffffffffffffffffffffffffffff1916827bffffffffffffffffffffffffffffffffffffffffffffffffffffffff191614806105e057506105df82610e92565b5b9050919050565b6060600380546105f690612495565b80601f016020809104026020016040519081016040528092919081815260200182805461062290612495565b801561066f5780601f106106445761010080835404028352916020019161066f565b820191906000526020600020905b81548152906001019060200180831161065257829003601f168201915b5050505050905090565b600061068d610686610efc565b8484610f04565b6001905092915050565b6000600254905090565b60006106ae848484610f3f565b6000600160008673ffffffffffffffffffffffffffffffffffffffff1673ffffffffffffffffffffffffffffffffffffffff16815260200190815260200160002060006106f9610efc565b73ffffffffffffffffffffffffffffffffffffffff1673ffffffffffffffffffffffffffffffffffffffff16815260200190815260200160002054905082811015610779576040517f08c379a00000000000000000000000000000000000000000000000000000000081526004016107709061215b565b60405180910390fd5b61078d85610785610efc565b858403610f04565b60019150509392505050565b600060096000838152602001908152602001600020600101549050919050565b7f3c11d16cbaffd01df69ce1c404f6340ee057498f5f00246190ea54220576a84881565b6107e682610799565b6107f7816107f2610efc565b610f7a565b6108018383611017565b505050565b60006012905090565b610817610efc565b73ffffffffffffffffffffffffffffffffffffffff168173ffffffffffffffffffffffffffffffffffffffff1614610884576040517f08c379a000000000000000000000000000000000000000000000000000000000815260040161087b906121fb565b60405180910390fd5b61088e82826110f8565b5050565b600061093461089f610efc565b8484600160006108ad610efc565b73ffffffffffffffffffffffffffffffffffffffff1673ffffffffffffffffffffffffffffffffffffffff16815260200190815260200160002060008873ffffffffffffffffffffffffffffffffffffffff1673ffffffffffffffffffffffffffffffffffffffff1681526020019081526020016000205461092f9190612298565b610f04565b6001905092915050565b6109687f9f2df0fed2c77648de5860a4cc508cd0818c85b8b8a1ab4ceeef8d981c8956a633610a91565b6109a7576040517f08c379a000000000000000000000000000000000000000000000000000000000815260040161099e9061213b565b60405180910390fd5b6109b182826111da565b5050565b6000806000610a0284600560008873ffffffffffffffffffffffffffffffffffffffff1673ffffffffffffffffffffffffffffffffffffffff16815260200190815260200160002061133a565b9150915081610a1957610a1485610a49565b610a1b565b805b9250505092915050565b7f5fdbd35e8da83ee755d5e62a539e5ed7f47126abede0b8b10f9ea43dc6eed07f81565b60008060008373ffffffffffffffffffffffffffffffffffffffff1673ffffffffffffffffffffffffffffffffffffffff168152602001908152602001600020549050919050565b60006009600084815260200190815260200160002060000160008373ffffffffffffffffffffffffffffffffffffffff1673ffffffffffffffffffffffffffffffffffffffff16815260200190815260200160002060009054906101000a900460ff16905092915050565b606060048054610b0b90612495565b80601f0160208091040260200160405190810160405280929190818152602001828054610b3790612495565b8015610b845780601f10610b5957610100808354040283529160200191610b84565b820191906000526020600020905b815481529060010190602001808311610b6757829003601f168201915b5050505050905090565b6000610bba7f5fdbd35e8da83ee755d5e62a539e5ed7f47126abede0b8b10f9ea43dc6eed07f33610a91565b610bf9576040517f08c379a0000000000000000000000000000000000000000000000000000000008152600401610bf09061213b565b60405180910390fd5b610c01611430565b905090565b6000806000610c1684600661133a565b9150915081610c2c57610c27610697565b610c2e565b805b92505050919050565b610c617f3c11d16cbaffd01df69ce1c404f6340ee057498f5f00246190ea54220576a84833610a91565b610ca0576040517f08c379a0000000000000000000000000000000000000000000000000000000008152600401610c979061213b565b60405180910390fd5b610caa8282611486565b5050565b6000801b81565b60008060016000610cc4610efc565b73ffffffffffffffffffffffffffffffffffffffff1673ffffffffffffffffffffffffffffffffffffffff16815260200190815260200160002060008573ffffffffffffffffffffffffffffffffffffffff1673ffffffffffffffffffffffffffffffffffffffff16815260200190815260200160002054905082811015610d81576040517f08c379a0000000000000000000000000000000000000000000000000000000008152600401610d78906121db565b60405180910390fd5b610d95610d8c610efc565b85858403610f04565b600191505092915050565b6000610db4610dad610efc565b8484610f3f565b6001905092915050565b7f9f2df0fed2c77648de5860a4cc508cd0818c85b8b8a1ab4ceeef8d981c8956a681565b610deb82610799565b610dfc81610df7610efc565b610f7a565b610e0683836110f8565b505050565b6000600160008473ffffffffffffffffffffffffffffffffffffffff1673ffffffffffffffffffffffffffffffffffffffff16815260200190815260200160002060008373ffffffffffffffffffffffffffffffffffffffff1673ffffffffffffffffffffffffffffffffffffffff16815260200190815260200160002054905092915050565b60007f01ffc9a7000000000000000000000000000000000000000000000000000000007bffffffffffffffffffffffffffffffffffffffffffffffffffffffff1916827bffffffffffffffffffffffffffffffffffffffffffffffffffffffff1916149050919050565b600033905090565b6040517f08c379a0000000000000000000000000000000000000000000000000000000008152600401610f369061217b565b60405180910390fd5b6040517f08c379a0000000000000000000000000000000000000000000000000000000008152600401610f719061217b565b60405180910390fd5b610f848282610a91565b61101357610fa98173ffffffffffffffffffffffffffffffffffffffff16601461165d565b610fb78360001c602061165d565b604051602001610fc8929190612049565b6040516020818303038152906040526040517f08c379a000000000000000000000000000000000000000000000000000000000815260040161100a91906120b9565b60405180910390fd5b5050565b6110218282610a91565b6110f45760016009600084815260200190815260200160002060000160008373ffffffffffffffffffffffffffffffffffffffff1673ffffffffffffffffffffffffffffffffffffffff16815260200190815260200160002060006101000a81548160ff021916908315150217905550611099610efc565b73ffffffffffffffffffffffffffffffffffffffff168173ffffffffffffffffffffffffffffffffffffffff16837f2f8788117e7eff1d82e926ec794901d17c78024a50270940304540a733656f0d60405160405180910390a45b5050565b6111028282610a91565b156111d65760006009600084815260200190815260200160002060000160008373ffffffffffffffffffffffffffffffffffffffff1673ffffffffffffffffffffffffffffffffffffffff16815260200190815260200160002060006101000a81548160ff02191690831515021790555061117b610efc565b73ffffffffffffffffffffffffffffffffffffffff168173ffffffffffffffffffffffffffffffffffffffff16837ff6391f5c32d9c69d2a47ea670b442974b53935d1edc7fd64eb21e047a839171b60405160405180910390a45b5050565b600073ffffffffffffffffffffffffffffffffffffffff168273ffffffffffffffffffffffffffffffffffffffff16141561124a576040517f08c379a00000000000000000000000000000000000000000000000000000000081526004016112419061221b565b60405180910390fd5b61125660008383611899565b80600260008282546112689190612298565b92505081905550806000808473ffffffffffffffffffffffffffffffffffffffff1673ffffffffffffffffffffffffffffffffffffffff16815260200190815260200160002060008282546112bd9190612298565b925050819055508173ffffffffffffffffffffffffffffffffffffffff16600073ffffffffffffffffffffffffffffffffffffffff167fddf252ad1be2c89b69c2b068fc378daa952ba7f163c4a11628f55a4df523b3ef83604051611322919061223b565b60405180910390a361133660008383611953565b5050565b60008060008411611380576040517f08c379a0000000000000000000000000000000000000000000000000000000008152600401611377906121bb565b60405180910390fd5b611388611958565b8411156113ca576040517f08c379a00000000000000000000000000000000000000000000000000000000081526004016113c1906120db565b60405180910390fd5b60006113e2858560000161196990919063ffffffff16565b90508360000180549050811415611400576000809250925050611429565b600184600101828154811061141857611417612554565b5b906000526020600020015492509250505b9250929050565b600061143c6008611a43565b6000611446611958565b90507f8030e83b04d87bef53480e26263266d6ca66863aa8506aca6f2559d18aa1cb6781604051611477919061223b565b60405180910390a18091505090565b600073ffffffffffffffffffffffffffffffffffffffff168273ffffffffffffffffffffffffffffffffffffffff1614156114f6576040517f08c379a00000000000000000000000000000000000000000000000000000000081526004016114ed9061219b565b60405180910390fd5b61150282600083611899565b60008060008473ffffffffffffffffffffffffffffffffffffffff1673ffffffffffffffffffffffffffffffffffffffff16815260200190815260200160002054905081811015611588576040517f08c379a000000000000000000000000000000000000000000000000000000000815260040161157f9061211b565b60405180910390fd5b8181036000808573ffffffffffffffffffffffffffffffffffffffff1673ffffffffffffffffffffffffffffffffffffffff1681526020019081526020016000208190555081600260008282546115df9190612379565b92505081905550600073ffffffffffffffffffffffffffffffffffffffff168373ffffffffffffffffffffffffffffffffffffffff167fddf252ad1be2c89b69c2b068fc378daa952ba7f163c4a11628f55a4df523b3ef84604051611644919061223b565b60405180910390a361165883600084611953565b505050565b606060006002836002611670919061231f565b61167a9190612298565b67ffffffffffffffff81111561169357611692612583565b5b6040519080825280601f01601f1916602001820160405280156116c55781602001600182028036833780820191505090505b5090507f3000000000000000000000000000000000000000000000000000000000000000816000815181106116fd576116fc612554565b5b60200101907effffffffffffffffffffffffffffffffffffffffffffffffffffffffffffff1916908160001a9053507f78000000000000000000000000000000000000000000000000000000000000008160018151811061176157611760612554565b5b60200101907effffffffffffffffffffffffffffffffffffffffffffffffffffffffffffff1916908160001a905350600060018460026117a1919061231f565b6117ab9190612298565b90505b600181111561184b577f3031323334353637383961626364656600000000000000000000000000000000600f8616601081106117ed576117ec612554565b5b1a60f81b82828151811061180457611803612554565b5b60200101907effffffffffffffffffffffffffffffffffffffffffffffffffffffffffffff1916908160001a905350600485901c9450806118449061246b565b90506117ae565b506000841461188f576040517f08c379a0000000000000000000000000000000000000000000000000000000008152600401611886906120fb565b60405180910390fd5b8091505092915050565b6118a4838383611a59565b600073ffffffffffffffffffffffffffffffffffffffff168373ffffffffffffffffffffffffffffffffffffffff1614156118ef576118e282611a5e565b6118ea611ab1565b61194e565b600073ffffffffffffffffffffffffffffffffffffffff168273ffffffffffffffffffffffffffffffffffffffff16141561193a5761192d83611a5e565b611935611ab1565b61194d565b61194383611a5e565b61194c82611a5e565b5b5b505050565b505050565b60006119646008611ac5565b905090565b600080838054905014156119805760009050611a3d565b600080848054905090505b808210156119e457600061199f8383611ad3565b9050848682815481106119b5576119b4612554565b5b906000526020600020015411156119ce578091506119de565b6001816119db9190612298565b92505b5061198b565b600082118015611a1c575083856001846119fe9190612379565b81548110611a0f57611a0e612554565b5b9060005260206000200154145b15611a3757600182611a2e9190612379565b92505050611a3d565b81925050505b92915050565b6001816000016000828254019250508190555050565b505050565b611aae600560008373ffffffffffffffffffffffffffffffffffffffff1673ffffffffffffffffffffffffffffffffffffffff168152602001908152602001600020611aa983610a49565b611af9565b50565b611ac36006611abe610697565b611af9565b565b600081600001549050919050565b60006002828418611ae491906122ee565b828416611af19190612298565b905092915050565b6000611b03611958565b905080611b1284600001611b74565b1015611b6f5782600001819080600181540180825580915050600190039060005260206000200160009091909190915055826001018290806001815401808255809150506001900390600052602060002001600090919091909150555b505050565b60008082805490501415611b8b5760009050611bbc565b8160018380549050611b9d9190612379565b81548110611bae57611bad612554565b5b906000526020600020015490505b919050565b600081359050611bd08161289b565b92915050565b600081359050611be5816128b2565b92915050565b600081359050611bfa816128c9565b92915050565b600081359050611c0f816128e0565b92915050565b600060208284031215611c2b57611c2a6125b2565b5b6000611c3984828501611bc1565b91505092915050565b60008060408385031215611c5957611c586125b2565b5b6000611c6785828601611bc1565b9250506020611c7885828601611bc1565b9150509250929050565b600080600060608486031215611c9b57611c9a6125b2565b5b6000611ca986828701611bc1565b9350506020611cba86828701611bc1565b9250506040611ccb86828701611c00565b9150509250925092565b60008060408385031215611cec57611ceb6125b2565b5b6000611cfa85828601611bc1565b9250506020611d0b85828601611c00565b9150509250929050565b600060208284031215611d2b57611d2a6125b2565b5b6000611d3984828501611bd6565b91505092915050565b60008060408385031215611d5957611d586125b2565b5b6000611d6785828601611bd6565b9250506020611d7885828601611bc1565b9150509250929050565b600060208284031215611d9857611d976125b2565b5b6000611da684828501611beb565b91505092915050565b600060208284031215611dc557611dc46125b2565b5b6000611dd384828501611c00565b91505092915050565b611de5816123bf565b82525050565b611df4816123cb565b82525050565b6000611e0582612271565b611e0f818561227c565b9350611e1f818560208601612438565b611e28816125b7565b840191505092915050565b6000611e3e82612271565b611e48818561228d565b9350611e58818560208601612438565b80840191505092915050565b6000611e71601d8361227c565b9150611e7c826125c8565b602082019050919050565b6000611e9460208361227c565b9150611e9f826125f1565b602082019050919050565b6000611eb760228361227c565b9150611ec28261261a565b604082019050919050565b6000611eda60098361227c565b9150611ee582612669565b602082019050919050565b6000611efd60288361227c565b9150611f0882612692565b604082019050919050565b6000611f20600f8361227c565b9150611f2b826126e1565b602082019050919050565b6000611f4360218361227c565b9150611f4e8261270a565b604082019050919050565b6000611f6660168361227c565b9150611f7182612759565b602082019050919050565b6000611f8960178361228d565b9150611f9482612782565b601782019050919050565b6000611fac60258361227c565b9150611fb7826127ab565b604082019050919050565b6000611fcf60118361228d565b9150611fda826127fa565b601182019050919050565b6000611ff2602f8361227c565b9150611ffd82612823565b604082019050919050565b6000612015601f8361227c565b915061202082612872565b602082019050919050565b61203481612421565b82525050565b6120438161242b565b82525050565b600061205482611f7c565b91506120608285611e33565b915061206b82611fc2565b91506120778284611e33565b91508190509392505050565b60006020820190506120986000830184611ddc565b92915050565b60006020820190506120b36000830184611deb565b92915050565b600060208201905081810360008301526120d38184611dfa565b905092915050565b600060208201905081810360008301526120f481611e64565b9050919050565b6000602082019050818103600083015261211481611e87565b9050919050565b6000602082019050818103600083015261213481611eaa565b9050919050565b6000602082019050818103600083015261215481611ecd565b9050919050565b6000602082019050818103600083015261217481611ef0565b9050919050565b6000602082019050818103600083015261219481611f13565b9050919050565b600060208201905081810360008301526121b481611f36565b9050919050565b600060208201905081810360008301526121d481611f59565b9050919050565b600060208201905081810360008301526121f481611f9f565b9050919050565b6000602082019050818103600083015261221481611fe5565b9050919050565b6000602082019050818103600083015261223481612008565b9050919050565b6000602082019050612250600083018461202b565b92915050565b600060208201905061226b600083018461203a565b92915050565b600081519050919050565b600082825260208201905092915050565b600081905092915050565b60006122a382612421565b91506122ae83612421565b9250827fffffffffffffffffffffffffffffffffffffffffffffffffffffffffffffffff038211156122e3576122e26124c7565b5b828201905092915050565b60006122f982612421565b915061230483612421565b925082612314576123136124f6565b5b828204905092915050565b600061232a82612421565b915061233583612421565b9250817fffffffffffffffffffffffffffffffffffffffffffffffffffffffffffffffff048311821515161561236e5761236d6124c7565b5b828202905092915050565b600061238482612421565b915061238f83612421565b9250828210156123a2576123a16124c7565b5b828203905092915050565b60006123b882612401565b9050919050565b60008115159050919050565b6000819050919050565b60007fffffffff0000000000000000000000000000000000000000000000000000000082169050919050565b600073ffffffffffffffffffffffffffffffffffffffff82169050919050565b6000819050919050565b600060ff82169050919050565b60005b8381101561245657808201518184015260208101905061243b565b83811115612465576000848401525b50505050565b600061247682612421565b9150600082141561248a576124896124c7565b5b600182039050919050565b600060028204905060018216806124ad57607f821691505b602082108114156124c1576124c0612525565b5b50919050565b7f4e487b7100000000000000000000000000000000000000000000000000000000600052601160045260246000fd5b7f4e487b7100000000000000000000000000000000000000000000000000000000600052601260045260246000fd5b7f4e487b7100000000000000000000000000000000000000000000000000000000600052602260045260246000fd5b7f4e487b7100000000000000000000000000000000000000000000000000000000600052603260045260246000fd5b7f4e487b7100000000000000000000000000000000000000000000000000000000600052604160045260246000fd5b600080fd5b6000601f19601f8301169050919050565b7f4552433230536e617073686f743a206e6f6e6578697374656e74206964000000600082015250565b7f537472696e67733a20686578206c656e67746820696e73756666696369656e74600082015250565b7f45524332303a206275726e20616d6f756e7420657863656564732062616c616e60008201527f6365000000000000000000000000000000000000000000000000000000000000602082015250565b7f466f7262696464656e0000000000000000000000000000000000000000000000600082015250565b7f45524332303a207472616e7366657220616d6f756e742065786365656473206160008201527f6c6c6f77616e6365000000000000000000000000000000000000000000000000602082015250565b7f4e6f7420696d706c656d656e7465640000000000000000000000000000000000600082015250565b7f45524332303a206275726e2066726f6d20746865207a65726f2061646472657360008201527f7300000000000000000000000000000000000000000000000000000000000000602082015250565b7f4552433230536e617073686f743a206964206973203000000000000000000000600082015250565b7f416363657373436f6e74726f6c3a206163636f756e7420000000000000000000600082015250565b7f45524332303a2064656372656173656420616c6c6f77616e63652062656c6f7760008201527f207a65726f000000000000000000000000000000000000000000000000000000602082015250565b7f206973206d697373696e6720726f6c6520000000000000000000000000000000600082015250565b7f416363657373436f6e74726f6c3a2063616e206f6e6c792072656e6f756e636560008201527f20726f6c657320666f722073656c660000000000000000000000000000000000602082015250565b7f45524332303a206d696e7420746f20746865207a65726f206164647265737300600082015250565b6128a4816123ad565b81146128af57600080fd5b50565b6128bb816123cb565b81146128c657600080fd5b50565b6128d2816123d5565b81146128dd57600080fd5b50565b6128e981612421565b81146128f457600080fd5b5056fea2646970667358221220d87170f2a9209840442e16755f8ab46ff737f62532296aae9ad477ba75504a2d64736f6c6343000807003360806040523480156200001157600080fd5b506040518060400160405280600c81526020017f52657761726420546f6b656e00000000000000000000000000000000000000008152506040518060400160405280600381526020017f52575400000000000000000000000000000000000000000000000000000000008152508160039080519060200190620000969291906200027a565b508060049080519060200190620000af9291906200027a565b505050620000c76000801b33620000ff60201b60201c565b620000f97f9f2df0fed2c77648de5860a4cc508cd0818c85b8b8a1ab4ceeef8d981c8956a633620000ff60201b60201c565b6200038f565b6200011182826200011560201b60201c565b5050565b6200012782826200020760201b60201c565b620002035760016005600084815260200190815260200160002060000160008373ffffffffffffffffffffffffffffffffffffffff1673ffffffffffffffffffffffffffffffffffffffff16815260200190815260200160002060006101000a81548160ff021916908315150217905550620001a86200027260201b60201c565b73ffffffffffffffffffffffffffffffffffffffff168173ffffffffffffffffffffffffffffffffffffffff16837f2f8788117e7eff1d82e926ec794901d17c78024a50270940304540a733656f0d60405160405180910390a45b5050565b60006005600084815260200190815260200160002060000160008373ffffffffffffffffffffffffffffffffffffffff1673ffffffffffffffffffffffffffffffffffffffff16815260200190815260200160002060009054906101000a900460ff16905092915050565b600033905090565b82805462000288906200032a565b90600052602060002090601f016020900481019282620002ac5760008555620002f8565b82601f10620002c757805160ff1916838001178555620002f8565b82800160010185558215620002f8579182015b82811115620002f7578251825591602001919060010190620002da565b5b5090506200030791906200030b565b5090565b5b80821115620003265760008160009055506001016200030c565b5090565b600060028204905060018216806200034357607f821691505b602082108114156200035a576200035962000360565b5b50919050565b7f4e487b7100000000000000000000000000000000000000000000000000000000600052602260045260246000fd5b6122c1806200039f6000396000f3fe608060405234801561001057600080fd5b506004361061012c5760003560e01c806340c10f19116100ad578063a457c2d711610071578063a457c2d71461036b578063a9059cbb1461039b578063d5391393146103cb578063d547741f146103e9578063dd62ed3e146104055761012c565b806340c10f19146102b357806370a08231146102cf57806391d14854146102ff57806395d89b411461032f578063a217fddf1461034d5761012c565b8063248a9ca3116100f4578063248a9ca3146101fd5780632f2ff15d1461022d578063313ce5671461024957806336568abe1461026757806339509351146102835761012c565b806301ffc9a71461013157806306fdde0314610161578063095ea7b31461017f57806318160ddd146101af57806323b872dd146101cd575b600080fd5b61014b600480360381019061014691906117d1565b610435565b6040516101589190611a82565b60405180910390f35b6101696104af565b6040516101769190611ab8565b60405180910390f35b61019960048036038101906101949190611724565b610541565b6040516101a69190611a82565b60405180910390f35b6101b761055f565b6040516101c49190611c1a565b60405180910390f35b6101e760048036038101906101e291906116d1565b610569565b6040516101f49190611a82565b60405180910390f35b61021760048036038101906102129190611764565b610661565b6040516102249190611a9d565b60405180910390f35b61024760048036038101906102429190611791565b610681565b005b6102516106aa565b60405161025e9190611c35565b60405180910390f35b610281600480360381019061027c9190611791565b6106b3565b005b61029d60048036038101906102989190611724565b610736565b6040516102aa9190611a82565b60405180910390f35b6102cd60048036038101906102c89190611724565b6107e2565b005b6102e960048036038101906102e49190611664565b610823565b6040516102f69190611c1a565b60405180910390f35b61031960048036038101906103149190611791565b61086b565b6040516103269190611a82565b60405180910390f35b6103376108d6565b6040516103449190611ab8565b60405180910390f35b610355610968565b6040516103629190611a9d565b60405180910390f35b61038560048036038101906103809190611724565b61096f565b6040516103929190611a82565b60405180910390f35b6103b560048036038101906103b09190611724565b610a5a565b6040516103c29190611a82565b60405180910390f35b6103d3610a78565b6040516103e09190611a9d565b60405180910390f35b61040360048036038101906103fe9190611791565b610a9c565b005b61041f600480360381019061041a9190611691565b610ac5565b60405161042c9190611c1a565b60405180910390f35b60007f7965db0b000000000000000000000000000000000000000000000000000000007bffffffffffffffffffffffffffffffffffffffffffffffffffffffff1916827bffffffffffffffffffffffffffffffffffffffffffffffffffffffff191614806104a857506104a782610b4c565b5b9050919050565b6060600380546104be90611e0f565b80601f01602080910402602001604051908101604052809291908181526020018280546104ea90611e0f565b80156105375780601f1061050c57610100808354040283529160200191610537565b820191906000526020600020905b81548152906001019060200180831161051a57829003601f168201915b5050505050905090565b600061055561054e610bb6565b8484610bbe565b6001905092915050565b6000600254905090565b6000610576848484610d89565b6000600160008673ffffffffffffffffffffffffffffffffffffffff1673ffffffffffffffffffffffffffffffffffffffff16815260200190815260200160002060006105c1610bb6565b73ffffffffffffffffffffffffffffffffffffffff1673ffffffffffffffffffffffffffffffffffffffff16815260200190815260200160002054905082811015610641576040517f08c379a000000000000000000000000000000000000000000000000000000000815260040161063890611b5a565b60405180910390fd5b6106558561064d610bb6565b858403610bbe565b60019150509392505050565b600060056000838152602001908152602001600020600101549050919050565b61068a82610661565b61069b81610696610bb6565b61100a565b6106a583836110a7565b505050565b60006012905090565b6106bb610bb6565b73ffffffffffffffffffffffffffffffffffffffff168173ffffffffffffffffffffffffffffffffffffffff1614610728576040517f08c379a000000000000000000000000000000000000000000000000000000000815260040161071f90611bda565b60405180910390fd5b6107328282611188565b5050565b60006107d8610743610bb6565b848460016000610751610bb6565b73ffffffffffffffffffffffffffffffffffffffff1673ffffffffffffffffffffffffffffffffffffffff16815260200190815260200160002060008873ffffffffffffffffffffffffffffffffffffffff1673ffffffffffffffffffffffffffffffffffffffff168152602001908152602001600020546107d39190611c77565b610bbe565b6001905092915050565b61080c7f9f2df0fed2c77648de5860a4cc508cd0818c85b8b8a1ab4ceeef8d981c8956a63361086b565b61081557600080fd5b61081f828261126a565b5050565b60008060008373ffffffffffffffffffffffffffffffffffffffff1673ffffffffffffffffffffffffffffffffffffffff168152602001908152602001600020549050919050565b60006005600084815260200190815260200160002060000160008373ffffffffffffffffffffffffffffffffffffffff1673ffffffffffffffffffffffffffffffffffffffff16815260200190815260200160002060009054906101000a900460ff16905092915050565b6060600480546108e590611e0f565b80601f016020809104026020016040519081016040528092919081815260200182805461091190611e0f565b801561095e5780601f106109335761010080835404028352916020019161095e565b820191906000526020600020905b81548152906001019060200180831161094157829003601f168201915b5050505050905090565b6000801b81565b6000806001600061097e610bb6565b73ffffffffffffffffffffffffffffffffffffffff1673ffffffffffffffffffffffffffffffffffffffff16815260200190815260200160002060008573ffffffffffffffffffffffffffffffffffffffff1673ffffffffffffffffffffffffffffffffffffffff16815260200190815260200160002054905082811015610a3b576040517f08c379a0000000000000000000000000000000000000000000000000000000008152600401610a3290611bba565b60405180910390fd5b610a4f610a46610bb6565b85858403610bbe565b600191505092915050565b6000610a6e610a67610bb6565b8484610d89565b6001905092915050565b7f9f2df0fed2c77648de5860a4cc508cd0818c85b8b8a1ab4ceeef8d981c8956a681565b610aa582610661565b610ab681610ab1610bb6565b61100a565b610ac08383611188565b505050565b6000600160008473ffffffffffffffffffffffffffffffffffffffff1673ffffffffffffffffffffffffffffffffffffffff16815260200190815260200160002060008373ffffffffffffffffffffffffffffffffffffffff1673ffffffffffffffffffffffffffffffffffffffff16815260200190815260200160002054905092915050565b60007f01ffc9a7000000000000000000000000000000000000000000000000000000007bffffffffffffffffffffffffffffffffffffffffffffffffffffffff1916827bffffffffffffffffffffffffffffffffffffffffffffffffffffffff1916149050919050565b600033905090565b600073ffffffffffffffffffffffffffffffffffffffff168373ffffffffffffffffffffffffffffffffffffffff161415610c2e576040517f08c379a0000000000000000000000000000000000000000000000000000000008152600401610c2590611b9a565b60405180910390fd5b600073ffffffffffffffffffffffffffffffffffffffff168273ffffffffffffffffffffffffffffffffffffffff161415610c9e576040517f08c379a0000000000000000000000000000000000000000000000000000000008152600401610c9590611b1a565b60405180910390fd5b80600160008573ffffffffffffffffffffffffffffffffffffffff1673ffffffffffffffffffffffffffffffffffffffff16815260200190815260200160002060008473ffffffffffffffffffffffffffffffffffffffff1673ffffffffffffffffffffffffffffffffffffffff168152602001908152602001600020819055508173ffffffffffffffffffffffffffffffffffffffff168373ffffffffffffffffffffffffffffffffffffffff167f8c5be1e5ebec7d5bd14f71427d1e84f3dd0314c0f7b2291e5b200ac8c7c3b92583604051610d7c9190611c1a565b60405180910390a3505050565b600073ffffffffffffffffffffffffffffffffffffffff168373ffffffffffffffffffffffffffffffffffffffff161415610df9576040517f08c379a0000000000000000000000000000000000000000000000000000000008152600401610df090611b7a565b60405180910390fd5b600073ffffffffffffffffffffffffffffffffffffffff168273ffffffffffffffffffffffffffffffffffffffff161415610e69576040517f08c379a0000000000000000000000000000000000000000000000000000000008152600401610e6090611afa565b60405180910390fd5b610e748383836113ca565b60008060008573ffffffffffffffffffffffffffffffffffffffff1673ffffffffffffffffffffffffffffffffffffffff16815260200190815260200160002054905081811015610efa576040517f08c379a0000000000000000000000000000000000000000000000000000000008152600401610ef190611b3a565b60405180910390fd5b8181036000808673ffffffffffffffffffffffffffffffffffffffff1673ffffffffffffffffffffffffffffffffffffffff16815260200190815260200160002081905550816000808573ffffffffffffffffffffffffffffffffffffffff1673ffffffffffffffffffffffffffffffffffffffff1681526020019081526020016000206000828254610f8d9190611c77565b925050819055508273ffffffffffffffffffffffffffffffffffffffff168473ffffffffffffffffffffffffffffffffffffffff167fddf252ad1be2c89b69c2b068fc378daa952ba7f163c4a11628f55a4df523b3ef84604051610ff19190611c1a565b60405180910390a36110048484846113cf565b50505050565b611014828261086b565b6110a3576110398173ffffffffffffffffffffffffffffffffffffffff1660146113d4565b6110478360001c60206113d4565b604051602001611058929190611a48565b6040516020818303038152906040526040517f08c379a000000000000000000000000000000000000000000000000000000000815260040161109a9190611ab8565b60405180910390fd5b5050565b6110b1828261086b565b6111845760016005600084815260200190815260200160002060000160008373ffffffffffffffffffffffffffffffffffffffff1673ffffffffffffffffffffffffffffffffffffffff16815260200190815260200160002060006101000a81548160ff021916908315150217905550611129610bb6565b73ffffffffffffffffffffffffffffffffffffffff168173ffffffffffffffffffffffffffffffffffffffff16837f2f8788117e7eff1d82e926ec794901d17c78024a50270940304540a733656f0d60405160405180910390a45b5050565b611192828261086b565b156112665760006005600084815260200190815260200160002060000160008373ffffffffffffffffffffffffffffffffffffffff1673ffffffffffffffffffffffffffffffffffffffff16815260200190815260200160002060006101000a81548160ff02191690831515021790555061120b610bb6565b73ffffffffffffffffffffffffffffffffffffffff168173ffffffffffffffffffffffffffffffffffffffff16837ff6391f5c32d9c69d2a47ea670b442974b53935d1edc7fd64eb21e047a839171b60405160405180910390a45b5050565b600073ffffffffffffffffffffffffffffffffffffffff168273ffffffffffffffffffffffffffffffffffffffff1614156112da576040517f08c379a00000000000000000000000000000000000000000000000000000000081526004016112d190611bfa565b60405180910390fd5b6112e6600083836113ca565b80600260008282546112f89190611c77565b92505081905550806000808473ffffffffffffffffffffffffffffffffffffffff1673ffffffffffffffffffffffffffffffffffffffff168152602001908152602001600020600082825461134d9190611c77565b925050819055508173ffffffffffffffffffffffffffffffffffffffff16600073ffffffffffffffffffffffffffffffffffffffff167fddf252ad1be2c89b69c2b068fc378daa952ba7f163c4a11628f55a4df523b3ef836040516113b29190611c1a565b60405180910390a36113c6600083836113cf565b5050565b505050565b505050565b6060600060028360026113e79190611ccd565b6113f19190611c77565b67ffffffffffffffff81111561140a57611409611ece565b5b6040519080825280601f01601f19166020018201604052801561143c5781602001600182028036833780820191505090505b5090507f30000000000000000000000000000000000000000000000000000000000000008160008151811061147457611473611e9f565b5b60200101907effffffffffffffffffffffffffffffffffffffffffffffffffffffffffffff1916908160001a9053507f7800000000000000000000000000000000000000000000000000000000000000816001815181106114d8576114d7611e9f565b5b60200101907effffffffffffffffffffffffffffffffffffffffffffffffffffffffffffff1916908160001a905350600060018460026115189190611ccd565b6115229190611c77565b90505b60018111156115c2577f3031323334353637383961626364656600000000000000000000000000000000600f86166010811061156457611563611e9f565b5b1a60f81b82828151811061157b5761157a611e9f565b5b60200101907effffffffffffffffffffffffffffffffffffffffffffffffffffffffffffff1916908160001a905350600485901c9450806115bb90611de5565b9050611525565b5060008414611606576040517f08c379a00000000000000000000000000000000000000000000000000000000081526004016115fd90611ada565b60405180910390fd5b8091505092915050565b60008135905061161f8161222f565b92915050565b60008135905061163481612246565b92915050565b6000813590506116498161225d565b92915050565b60008135905061165e81612274565b92915050565b60006020828403121561167a57611679611efd565b5b600061168884828501611610565b91505092915050565b600080604083850312156116a8576116a7611efd565b5b60006116b685828601611610565b92505060206116c785828601611610565b9150509250929050565b6000806000606084860312156116ea576116e9611efd565b5b60006116f886828701611610565b935050602061170986828701611610565b925050604061171a8682870161164f565b9150509250925092565b6000806040838503121561173b5761173a611efd565b5b600061174985828601611610565b925050602061175a8582860161164f565b9150509250929050565b60006020828403121561177a57611779611efd565b5b600061178884828501611625565b91505092915050565b600080604083850312156117a8576117a7611efd565b5b60006117b685828601611625565b92505060206117c785828601611610565b9150509250929050565b6000602082840312156117e7576117e6611efd565b5b60006117f58482850161163a565b91505092915050565b61180781611d39565b82525050565b61181681611d45565b82525050565b600061182782611c50565b6118318185611c5b565b9350611841818560208601611db2565b61184a81611f02565b840191505092915050565b600061186082611c50565b61186a8185611c6c565b935061187a818560208601611db2565b80840191505092915050565b6000611893602083611c5b565b915061189e82611f13565b602082019050919050565b60006118b6602383611c5b565b91506118c182611f3c565b604082019050919050565b60006118d9602283611c5b565b91506118e482611f8b565b604082019050919050565b60006118fc602683611c5b565b915061190782611fda565b604082019050919050565b600061191f602883611c5b565b915061192a82612029565b604082019050919050565b6000611942602583611c5b565b915061194d82612078565b604082019050919050565b6000611965602483611c5b565b9150611970826120c7565b604082019050919050565b6000611988601783611c6c565b915061199382612116565b601782019050919050565b60006119ab602583611c5b565b91506119b68261213f565b604082019050919050565b60006119ce601183611c6c565b91506119d98261218e565b601182019050919050565b60006119f1602f83611c5b565b91506119fc826121b7565b604082019050919050565b6000611a14601f83611c5b565b9150611a1f82612206565b602082019050919050565b611a3381611d9b565b82525050565b611a4281611da5565b82525050565b6000611a538261197b565b9150611a5f8285611855565b9150611a6a826119c1565b9150611a768284611855565b91508190509392505050565b6000602082019050611a9760008301846117fe565b92915050565b6000602082019050611ab2600083018461180d565b92915050565b60006020820190508181036000830152611ad2818461181c565b905092915050565b60006020820190508181036000830152611af381611886565b9050919050565b60006020820190508181036000830152611b13816118a9565b9050919050565b60006020820190508181036000830152611b33816118cc565b9050919050565b60006020820190508181036000830152611b53816118ef565b9050919050565b60006020820190508181036000830152611b7381611912565b9050919050565b60006020820190508181036000830152611b9381611935565b9050919050565b60006020820190508181036000830152611bb381611958565b9050919050565b60006020820190508181036000830152611bd38161199e565b9050919050565b60006020820190508181036000830152611bf3816119e4565b9050919050565b60006020820190508181036000830152611c1381611a07565b9050919050565b6000602082019050611c2f6000830184611a2a565b92915050565b6000602082019050611c4a6000830184611a39565b92915050565b600081519050919050565b600082825260208201905092915050565b600081905092915050565b6000611c8282611d9b565b9150611c8d83611d9b565b9250827fffffffffffffffffffffffffffffffffffffffffffffffffffffffffffffffff03821115611cc257611cc1611e41565b5b828201905092915050565b6000611cd882611d9b565b9150611ce383611d9b565b9250817fffffffffffffffffffffffffffffffffffffffffffffffffffffffffffffffff0483118215151615611d1c57611d1b611e41565b5b828202905092915050565b6000611d3282611d7b565b9050919050565b60008115159050919050565b6000819050919050565b60007fffffffff0000000000000000000000000000000000000000000000000000000082169050919050565b600073ffffffffffffffffffffffffffffffffffffffff82169050919050565b6000819050919050565b600060ff82169050919050565b60005b83811015611dd0578082015181840152602081019050611db5565b83811115611ddf576000848401525b50505050565b6000611df082611d9b565b91506000821415611e0457611e03611e41565b5b600182039050919050565b60006002820490506001821680611e2757607f821691505b60208210811415611e3b57611e3a611e70565b5b50919050565b7f4e487b7100000000000000000000000000000000000000000000000000000000600052601160045260246000fd5b7f4e487b7100000000000000000000000000000000000000000000000000000000600052602260045260246000fd5b7f4e487b7100000000000000000000000000000000000000000000000000000000600052603260045260246000fd5b7f4e487b7100000000000000000000000000000000000000000000000000000000600052604160045260246000fd5b600080fd5b6000601f19601f8301169050919050565b7f537472696e67733a20686578206c656e67746820696e73756666696369656e74600082015250565b7f45524332303a207472616e7366657220746f20746865207a65726f206164647260008201527f6573730000000000000000000000000000000000000000000000000000000000602082015250565b7f45524332303a20617070726f766520746f20746865207a65726f20616464726560008201527f7373000000000000000000000000000000000000000000000000000000000000602082015250565b7f45524332303a207472616e7366657220616d6f756e742065786365656473206260008201527f616c616e63650000000000000000000000000000000000000000000000000000602082015250565b7f45524332303a207472616e7366657220616d6f756e742065786365656473206160008201527f6c6c6f77616e6365000000000000000000000000000000000000000000000000602082015250565b7f45524332303a207472616e736665722066726f6d20746865207a65726f20616460008201527f6472657373000000000000000000000000000000000000000000000000000000602082015250565b7f45524332303a20617070726f76652066726f6d20746865207a65726f2061646460008201527f7265737300000000000000000000000000000000000000000000000000000000602082015250565b7f416363657373436f6e74726f6c3a206163636f756e7420000000000000000000600082015250565b7f45524332303a2064656372656173656420616c6c6f77616e63652062656c6f7760008201527f207a65726f000000000000000000000000000000000000000000000000000000602082015250565b7f206973206d697373696e6720726f6c6520000000000000000000000000000000600082015250565b7f416363657373436f6e74726f6c3a2063616e206f6e6c792072656e6f756e636560008201527f20726f6c657320666f722073656c660000000000000000000000000000000000602082015250565b7f45524332303a206d696e7420746f20746865207a65726f206164647265737300600082015250565b61223881611d27565b811461224357600080fd5b50565b61224f81611d45565b811461225a57600080fd5b50565b61226681611d4f565b811461227157600080fd5b50565b61227d81611d9b565b811461228857600080fd5b5056fea2646970667358221220ee28833bc550eea437a5b2d292639d166d92795de1fbf8d546ec6f3cd2e8cd2764736f6c63430008070033",
  "linkReferences": {},
  "deployedLinkReferences": {}
}