{
  "_format": "hh-sol-artifact-1",
  "contractName": "PuppetPool",
  "sourceName": "contracts/puppet/PuppetPool.sol",
  "abi": [
    {
      "inputs": [
        {
          "internalType": "address",
          "name": "tokenAddress",
          "type": "address"
        },
        {
          "internalType": "address",
          "name": "uniswapPairAddress",
          "type": "address"
        }
      ],
      "stateMutability": "nonpayable",
      "type": "constructor"
    },
    {
      "anonymous": false,
      "inputs": [
        {
          "indexed": true,
          "internalType": "address",
          "name": "account",
          "type": "address"
        },
        {
          "indexed": false,
          "internalType": "uint256",
          "name": "depositRequired",
          "type": "uint256"
        },
        {
          "indexed": false,
          "internalType": "uint256",
          "name": "borrowAmount",
          "type": "uint256"
        }
      ],
      "name": "Borrowed",
      "type": "event"
    },
    {
      "inputs": [
        {
          "internalType": "uint256",
          "name": "borrowAmount",
          "type": "uint256"
        }
      ],
      "name": "borrow",
      "outputs": [],
      "stateMutability": "payable",
      "type": "function"
    },
    {
      "inputs": [
        {
          "internalType": "uint256",
          "name": "amount",
          "type": "uint256"
        }
      ],
      "name": "calculateDepositRequired",
      "outputs": [
        {
          "internalType": "uint256",
          "name": "",
          "type": "uint256"
        }
      ],
      "stateMutability": "view",
      "type": "function"
    },
    {
      "inputs": [
        {
          "internalType": "address",
          "name": "",
          "type": "address"
        }
      ],
      "name": "deposits",
      "outputs": [
        {
          "internalType": "uint256",
          "name": "",
          "type": "uint256"
        }
      ],
      "stateMutability": "view",
      "type": "function"
    },
    {
      "inputs": [],
      "name": "token",
      "outputs": [
        {
          "internalType": "contract DamnValuableToken",
          "name": "",
          "type": "address"
        }
      ],
      "stateMutability": "view",
      "type": "function"
    },
    {
      "inputs": [],
      "name": "uniswapPair",
      "outputs": [
        {
          "internalType": "address",
          "name": "",
          "type": "address"
        }
      ],
      "stateMutability": "view",
      "type": "function"
    }
  ],
  "bytecode": "0x60c060405234801561001057600080fd5b5060405162000f1e38038062000f1e833981810160405281019061003491906100c6565b60016000819055508173ffffffffffffffffffffffffffffffffffffffff1660a08173ffffffffffffffffffffffffffffffffffffffff1660601b815250508073ffffffffffffffffffffffffffffffffffffffff1660808173ffffffffffffffffffffffffffffffffffffffff1660601b815250505050610154565b6000815190506100c08161013d565b92915050565b600080604083850312156100dd576100dc610138565b5b60006100eb858286016100b1565b92505060206100fc858286016100b1565b9150509250929050565b600061011182610118565b9050919050565b600073ffffffffffffffffffffffffffffffffffffffff82169050919050565b600080fd5b61014681610106565b811461015157600080fd5b50565b60805160601c60a05160601c610d826200019c600039600081816102e10152818161044d015261048b015260008181610429015281816104c7015261055d0152610d826000f3fe60806040526004361061004a5760003560e01c8063bc554c281461004f578063c5ebeaec1461008c578063c816841b146100a8578063fc0c546a146100d3578063fc7e286d146100fe575b600080fd5b34801561005b57600080fd5b506100766004803603810190610071919061074e565b61013b565b60405161008391906109bb565b60405180910390f35b6100a660048036038101906100a1919061074e565b610176565b005b3480156100b457600080fd5b506100bd610427565b6040516100ca91906108bc565b60405180910390f35b3480156100df57600080fd5b506100e861044b565b6040516100f59190610900565b60405180910390f35b34801561010a57600080fd5b50610125600480360381019061012091906106f4565b61046f565b60405161013291906109bb565b60405180910390f35b6000670de0b6b3a76400006002610150610487565b8461015b9190610aa2565b6101659190610aa2565b61016f9190610a71565b9050919050565b600260005414156101bc576040517f08c379a00000000000000000000000000000000000000000000000000000000081526004016101b39061099b565b60405180910390fd5b600260008190555060006101cf8261013b565b905080341015610214576040517f08c379a000000000000000000000000000000000000000000000000000000000815260040161020b9061091b565b60405180910390fd5b8034111561025157610250813461022b9190610afc565b3373ffffffffffffffffffffffffffffffffffffffff166105ac90919063ffffffff16565b5b80600160003373ffffffffffffffffffffffffffffffffffffffff1673ffffffffffffffffffffffffffffffffffffffff1681526020019081526020016000205461029c9190610a1b565b600160003373ffffffffffffffffffffffffffffffffffffffff1673ffffffffffffffffffffffffffffffffffffffff168152602001908152602001600020819055507f000000000000000000000000000000000000000000000000000000000000000073ffffffffffffffffffffffffffffffffffffffff1663a9059cbb33846040518363ffffffff1660e01b815260040161033a9291906108d7565b602060405180830381600087803b15801561035457600080fd5b505af1158015610368573d6000803e3d6000fd5b505050506040513d601f19601f8201168201806040525081019061038c9190610721565b6103cb576040517f08c379a00000000000000000000000000000000000000000000000000000000081526004016103c29061093b565b60405180910390fd5b3373ffffffffffffffffffffffffffffffffffffffff167feae9cfbc77fdd40ca899f36b608256063b2bc9d8178b0220f7ad513e178d673082846040516104139291906109d6565b60405180910390a250600160008190555050565b7f000000000000000000000000000000000000000000000000000000000000000081565b7f000000000000000000000000000000000000000000000000000000000000000081565b60016020528060005260406000206000915090505481565b60007f000000000000000000000000000000000000000000000000000000000000000073ffffffffffffffffffffffffffffffffffffffff166370a082317f00000000000000000000000000000000000000000000000000000000000000006040518263ffffffff1660e01b815260040161050291906108bc565b60206040518083038186803b15801561051a57600080fd5b505afa15801561052e573d6000803e3d6000fd5b505050506040513d601f19601f82011682018060405250810190610552919061077b565b670de0b6b3a76400007f000000000000000000000000000000000000000000000000000000000000000073ffffffffffffffffffffffffffffffffffffffff163161059d9190610aa2565b6105a79190610a71565b905090565b804710156105ef576040517f08c379a00000000000000000000000000000000000000000000000000000000081526004016105e69061097b565b60405180910390fd5b60008273ffffffffffffffffffffffffffffffffffffffff1682604051610615906108a7565b60006040518083038185875af1925050503d8060008114610652576040519150601f19603f3d011682016040523d82523d6000602084013e610657565b606091505b505090508061069b576040517f08c379a00000000000000000000000000000000000000000000000000000000081526004016106929061095b565b60405180910390fd5b505050565b6000813590506106af81610d07565b92915050565b6000815190506106c481610d1e565b92915050565b6000813590506106d981610d35565b92915050565b6000815190506106ee81610d35565b92915050565b60006020828403121561070a57610709610c0c565b5b6000610718848285016106a0565b91505092915050565b60006020828403121561073757610736610c0c565b5b6000610745848285016106b5565b91505092915050565b60006020828403121561076457610763610c0c565b5b6000610772848285016106ca565b91505092915050565b60006020828403121561079157610790610c0c565b5b600061079f848285016106df565b91505092915050565b6107b181610b30565b82525050565b6107c081610b78565b82525050565b60006107d3602083610a0a565b91506107de82610c11565b602082019050919050565b60006107f6600f83610a0a565b915061080182610c3a565b602082019050919050565b6000610819603a83610a0a565b915061082482610c63565b604082019050919050565b600061083c601d83610a0a565b915061084782610cb2565b602082019050919050565b600061085f6000836109ff565b915061086a82610cdb565b600082019050919050565b6000610882601f83610a0a565b915061088d82610cde565b602082019050919050565b6108a181610b6e565b82525050565b60006108b282610852565b9150819050919050565b60006020820190506108d160008301846107a8565b92915050565b60006040820190506108ec60008301856107a8565b6108f96020830184610898565b9392505050565b600060208201905061091560008301846107b7565b92915050565b60006020820190508181036000830152610934816107c6565b9050919050565b60006020820190508181036000830152610954816107e9565b9050919050565b600060208201905081810360008301526109748161080c565b9050919050565b600060208201905081810360008301526109948161082f565b9050919050565b600060208201905081810360008301526109b481610875565b9050919050565b60006020820190506109d06000830184610898565b92915050565b60006040820190506109eb6000830185610898565b6109f86020830184610898565b9392505050565b600081905092915050565b600082825260208201905092915050565b6000610a2682610b6e565b9150610a3183610b6e565b9250827fffffffffffffffffffffffffffffffffffffffffffffffffffffffffffffffff03821115610a6657610a65610bae565b5b828201905092915050565b6000610a7c82610b6e565b9150610a8783610b6e565b925082610a9757610a96610bdd565b5b828204905092915050565b6000610aad82610b6e565b9150610ab883610b6e565b9250817fffffffffffffffffffffffffffffffffffffffffffffffffffffffffffffffff0483118215151615610af157610af0610bae565b5b828202905092915050565b6000610b0782610b6e565b9150610b1283610b6e565b925082821015610b2557610b24610bae565b5b828203905092915050565b6000610b3b82610b4e565b9050919050565b60008115159050919050565b600073ffffffffffffffffffffffffffffffffffffffff82169050919050565b6000819050919050565b6000610b8382610b8a565b9050919050565b6000610b9582610b9c565b9050919050565b6000610ba782610b4e565b9050919050565b7f4e487b7100000000000000000000000000000000000000000000000000000000600052601160045260246000fd5b7f4e487b7100000000000000000000000000000000000000000000000000000000600052601260045260246000fd5b600080fd5b7f4e6f74206465706f736974696e6720656e6f75676820636f6c6c61746572616c600082015250565b7f5472616e73666572206661696c65640000000000000000000000000000000000600082015250565b7f416464726573733a20756e61626c6520746f2073656e642076616c75652c207260008201527f6563697069656e74206d61792068617665207265766572746564000000000000602082015250565b7f416464726573733a20696e73756666696369656e742062616c616e6365000000600082015250565b50565b7f5265656e7472616e637947756172643a207265656e7472616e742063616c6c00600082015250565b610d1081610b30565b8114610d1b57600080fd5b50565b610d2781610b42565b8114610d3257600080fd5b50565b610d3e81610b6e565b8114610d4957600080fd5b5056fea264697066735822122079f28f6692a19e8801f0431be632f62cf044578a549b23fb0387852963212c3c64736f6c63430008070033",
  "linkReferences": {},
  "deployedLinkReferences": {}
}