{
  "_format": "hh-sol-artifact-1",
  "contractName": "FlashLoanerPool",
  "sourceName": "contracts/the-rewarder/FlashLoanerPool.sol",
  "abi": [
    {
      "inputs": [
        {
          "internalType": "address",
          "name": "liquidityTokenAddress",
          "type": "address"
        }
      ],
      "stateMutability": "nonpayable",
      "type": "constructor"
    },
    {
      "inputs": [
        {
          "internalType": "uint256",
          "name": "amount",
          "type": "uint256"
        }
      ],
      "name": "flashLoan",
      "outputs": [],
      "stateMutability": "nonpayable",
      "type": "function"
    },
    {
      "inputs": [],
      "name": "liquidityToken",
      "outputs": [
        {
          "internalType": "contract DamnValuableToken",
          "name": "",
          "type": "address"
        }
      ],
      "stateMutability": "view",
      "type": "function"
    }
  ],
  "bytecode": "0x60a060405234801561001057600080fd5b50604051610dfa380380610dfa8339818101604052810190610032919061008c565b60016000819055508073ffffffffffffffffffffffffffffffffffffffff1660808173ffffffffffffffffffffffffffffffffffffffff1660601b8152505050610107565b600081519050610086816100f0565b92915050565b6000602082840312156100a2576100a16100eb565b5b60006100b084828501610077565b91505092915050565b60006100c4826100cb565b9050919050565b600073ffffffffffffffffffffffffffffffffffffffff82169050919050565b600080fd5b6100f9816100b9565b811461010457600080fd5b50565b60805160601c610cc26101386000396000818160770152818160eb01528181610237015261039d0152610cc26000f3fe608060405234801561001057600080fd5b50600436106100365760003560e01c806343cd8f7e1461003b5780639ab603b914610059575b600080fd5b610043610075565b604051610050919061090b565b60405180910390f35b610073600480360381019061006e91906106ed565b610099565b005b7f000000000000000000000000000000000000000000000000000000000000000081565b600260005414156100df576040517f08c379a00000000000000000000000000000000000000000000000000000000081526004016100d6906109e8565b60405180910390fd5b600260008190555060007f000000000000000000000000000000000000000000000000000000000000000073ffffffffffffffffffffffffffffffffffffffff166370a08231306040518263ffffffff1660e01b815260040161014291906108c7565b60206040518083038186803b15801561015a57600080fd5b505afa15801561016e573d6000803e3d6000fd5b505050506040513d601f19601f82011682018060405250810190610192919061071a565b9050808211156101d7576040517f08c379a00000000000000000000000000000000000000000000000000000000081526004016101ce906109c8565b60405180910390fd5b6101f63373ffffffffffffffffffffffffffffffffffffffff16610491565b610235576040517f08c379a000000000000000000000000000000000000000000000000000000000815260040161022c90610968565b60405180910390fd5b7f000000000000000000000000000000000000000000000000000000000000000073ffffffffffffffffffffffffffffffffffffffff1663a9059cbb33846040518363ffffffff1660e01b81526004016102909291906108e2565b602060405180830381600087803b1580156102aa57600080fd5b505af11580156102be573d6000803e3d6000fd5b505050506040513d601f19601f820116820180604052508101906102e291906106c0565b50610399826040516024016102f79190610a08565b6040516020818303038152906040527f4fd9cb81000000000000000000000000000000000000000000000000000000007bffffffffffffffffffffffffffffffffffffffffffffffffffffffff19166020820180517bffffffffffffffffffffffffffffffffffffffffffffffffffffffff83818316178352505050503373ffffffffffffffffffffffffffffffffffffffff166104a490919063ffffffff16565b50807f000000000000000000000000000000000000000000000000000000000000000073ffffffffffffffffffffffffffffffffffffffff166370a08231306040518263ffffffff1660e01b81526004016103f491906108c7565b60206040518083038186803b15801561040c57600080fd5b505afa158015610420573d6000803e3d6000fd5b505050506040513d601f19601f82011682018060405250810190610444919061071a565b1015610485576040517f08c379a000000000000000000000000000000000000000000000000000000000815260040161047c90610988565b60405180910390fd5b50600160008190555050565b600080823b905060008111915050919050565b60606104e683836040518060400160405280601e81526020017f416464726573733a206c6f772d6c6576656c2063616c6c206661696c656400008152506104ee565b905092915050565b60606104fd8484600085610506565b90509392505050565b60608247101561054b576040517f08c379a000000000000000000000000000000000000000000000000000000000815260040161054290610948565b60405180910390fd5b61055485610491565b610593576040517f08c379a000000000000000000000000000000000000000000000000000000000815260040161058a906109a8565b60405180910390fd5b6000808673ffffffffffffffffffffffffffffffffffffffff1685876040516105bc91906108b0565b60006040518083038185875af1925050503d80600081146105f9576040519150601f19603f3d011682016040523d82523d6000602084013e6105fe565b606091505b509150915061060e82828661061a565b92505050949350505050565b6060831561062a5782905061067a565b60008351111561063d5782518084602001fd5b816040517f08c379a00000000000000000000000000000000000000000000000000000000081526004016106719190610926565b60405180910390fd5b9392505050565b60008151905061069081610c5e565b92915050565b6000813590506106a581610c75565b92915050565b6000815190506106ba81610c75565b92915050565b6000602082840312156106d6576106d5610b06565b5b60006106e484828501610681565b91505092915050565b60006020828403121561070357610702610b06565b5b600061071184828501610696565b91505092915050565b6000602082840312156107305761072f610b06565b5b600061073e848285016106ab565b91505092915050565b61075081610a55565b82525050565b600061076182610a23565b61076b8185610a39565b935061077b818560208601610ad3565b80840191505092915050565b61079081610a9d565b82525050565b60006107a182610a2e565b6107ab8185610a44565b93506107bb818560208601610ad3565b6107c481610b0b565b840191505092915050565b60006107dc602683610a44565b91506107e782610b1c565b604082019050919050565b60006107ff602483610a44565b915061080a82610b6b565b604082019050919050565b6000610822601883610a44565b915061082d82610bba565b602082019050919050565b6000610845601d83610a44565b915061085082610be3565b602082019050919050565b6000610868601883610a44565b915061087382610c0c565b602082019050919050565b600061088b601f83610a44565b915061089682610c35565b602082019050919050565b6108aa81610a93565b82525050565b60006108bc8284610756565b915081905092915050565b60006020820190506108dc6000830184610747565b92915050565b60006040820190506108f76000830185610747565b61090460208301846108a1565b9392505050565b60006020820190506109206000830184610787565b92915050565b600060208201905081810360008301526109408184610796565b905092915050565b60006020820190508181036000830152610961816107cf565b9050919050565b60006020820190508181036000830152610981816107f2565b9050919050565b600060208201905081810360008301526109a181610815565b9050919050565b600060208201905081810360008301526109c181610838565b9050919050565b600060208201905081810360008301526109e18161085b565b9050919050565b60006020820190508181036000830152610a018161087e565b9050919050565b6000602082019050610a1d60008301846108a1565b92915050565b600081519050919050565b600081519050919050565b600081905092915050565b600082825260208201905092915050565b6000610a6082610a73565b9050919050565b60008115159050919050565b600073ffffffffffffffffffffffffffffffffffffffff82169050919050565b6000819050919050565b6000610aa882610aaf565b9050919050565b6000610aba82610ac1565b9050919050565b6000610acc82610a73565b9050919050565b60005b83811015610af1578082015181840152602081019050610ad6565b83811115610b00576000848401525b50505050565b600080fd5b6000601f19601f8301169050919050565b7f416464726573733a20696e73756666696369656e742062616c616e636520666f60008201527f722063616c6c0000000000000000000000000000000000000000000000000000602082015250565b7f426f72726f776572206d7573742062652061206465706c6f79656420636f6e7460008201527f7261637400000000000000000000000000000000000000000000000000000000602082015250565b7f466c617368206c6f616e206e6f742070616964206261636b0000000000000000600082015250565b7f416464726573733a2063616c6c20746f206e6f6e2d636f6e7472616374000000600082015250565b7f4e6f7420656e6f75676820746f6b656e2062616c616e63650000000000000000600082015250565b7f5265656e7472616e637947756172643a207265656e7472616e742063616c6c00600082015250565b610c6781610a67565b8114610c7257600080fd5b50565b610c7e81610a93565b8114610c8957600080fd5b5056fea264697066735822122089f730a952cdfe99fc7d5fbb016fed4a8c45d923d972fceae9c08300410cc92364736f6c63430008070033",
  "linkReferences": {},
  "deployedLinkReferences": {}
}