{
  "_format": "hh-sol-artifact-1",
  "contractName": "FlashLoanerPool",
  "sourceName": "contracts/the-rewarder/FlashLoanerPool.sol",
  "abi": [
    {
      "inputs": [
        {
          "internalType": "address",
          "name": "liquidityTokenAddress",
          "type": "address"
        }
      ],
      "stateMutability": "nonpayable",
      "type": "constructor"
    },
    {
      "inputs": [
        {
          "internalType": "uint256",
          "name": "amount",
          "type": "uint256"
        }
      ],
      "name": "flashLoan",
      "outputs": [],
      "stateMutability": "nonpayable",
      "type": "function"
    },
    {
      "inputs": [],
      "name": "liquidityToken",
      "outputs": [
        {
          "internalType": "contract DamnValuableToken",
          "name": "",
          "type": "address"
        }
      ],
      "stateMutability": "view",
      "type": "function"
    }
  ],
  "bytecode": "0x60a060405234801561001057600080fd5b50604051610f77380380610f778339818101604052810190610032919061008c565b60016000819055508073ffffffffffffffffffffffffffffffffffffffff1660808173ffffffffffffffffffffffffffffffffffffffff1660601b8152505050610107565b600081519050610086816100f0565b92915050565b6000602082840312156100a2576100a16100eb565b5b60006100b084828501610077565b91505092915050565b60006100c4826100cb565b9050919050565b600073ffffffffffffffffffffffffffffffffffffffff82169050919050565b600080fd5b6100f9816100b9565b811461010457600080fd5b50565b60805160601c610e3e610139600039600081816077015281816101290152818161027501526104570152610e3e6000f3fe608060405234801561001057600080fd5b50600436106100365760003560e01c806343cd8f7e1461003b5780639ab603b914610059575b600080fd5b610043610075565b6040516100509190610a87565b60405180910390f35b610073600480360381019061006e9190610869565b610099565b005b7f000000000000000000000000000000000000000000000000000000000000000081565b600260005414156100df576040517f08c379a00000000000000000000000000000000000000000000000000000000081526004016100d690610b64565b60405180910390fd5b60026000819055506101256040518060400160405280601581526020017f494e5349444520464c415353484c4f414e2a2a2a2a000000000000000000000081525061054b565b60007f000000000000000000000000000000000000000000000000000000000000000073ffffffffffffffffffffffffffffffffffffffff166370a08231306040518263ffffffff1660e01b81526004016101809190610a43565b60206040518083038186803b15801561019857600080fd5b505afa1580156101ac573d6000803e3d6000fd5b505050506040513d601f19601f820116820180604052508101906101d09190610896565b905080821115610215576040517f08c379a000000000000000000000000000000000000000000000000000000000815260040161020c90610b44565b60405180910390fd5b6102343373ffffffffffffffffffffffffffffffffffffffff166105e4565b610273576040517f08c379a000000000000000000000000000000000000000000000000000000000815260040161026a90610ae4565b60405180910390fd5b7f000000000000000000000000000000000000000000000000000000000000000073ffffffffffffffffffffffffffffffffffffffff1663a9059cbb33846040518363ffffffff1660e01b81526004016102ce929190610a5e565b602060405180830381600087803b1580156102e857600080fd5b505af11580156102fc573d6000803e3d6000fd5b505050506040513d601f19601f82011682018060405250810190610320919061083c565b5061035f6040518060400160405280601881526020017f6c697175696469747920746f6b656e207472616e73666572000000000000000081525061054b565b610415826040516024016103739190610b84565b6040516020818303038152906040527f4fd9cb81000000000000000000000000000000000000000000000000000000007bffffffffffffffffffffffffffffffffffffffffffffffffffffffff19166020820180517bffffffffffffffffffffffffffffffffffffffffffffffffffffffff83818316178352505050503373ffffffffffffffffffffffffffffffffffffffff166105f790919063ffffffff16565b506104546040518060400160405280601d81526020017f6166746572206c6f77206c6576656c2066756e6374696f6e2063616c6c00000081525061054b565b807f000000000000000000000000000000000000000000000000000000000000000073ffffffffffffffffffffffffffffffffffffffff166370a08231306040518263ffffffff1660e01b81526004016104ae9190610a43565b60206040518083038186803b1580156104c657600080fd5b505afa1580156104da573d6000803e3d6000fd5b505050506040513d601f19601f820116820180604052508101906104fe9190610896565b101561053f576040517f08c379a000000000000000000000000000000000000000000000000000000000815260040161053690610b04565b60405180910390fd5b50600160008190555050565b6105e18160405160240161055f9190610aa2565b6040516020818303038152906040527f41304fac000000000000000000000000000000000000000000000000000000007bffffffffffffffffffffffffffffffffffffffffffffffffffffffff19166020820180517bffffffffffffffffffffffffffffffffffffffffffffffffffffffff8381831617835250505050610641565b50565b600080823b905060008111915050919050565b606061063983836040518060400160405280601e81526020017f416464726573733a206c6f772d6c6576656c2063616c6c206661696c6564000081525061066a565b905092915050565b60008151905060006a636f6e736f6c652e6c6f679050602083016000808483855afa5050505050565b60606106798484600085610682565b90509392505050565b6060824710156106c7576040517f08c379a00000000000000000000000000000000000000000000000000000000081526004016106be90610ac4565b60405180910390fd5b6106d0856105e4565b61070f576040517f08c379a000000000000000000000000000000000000000000000000000000000815260040161070690610b24565b60405180910390fd5b6000808673ffffffffffffffffffffffffffffffffffffffff1685876040516107389190610a2c565b60006040518083038185875af1925050503d8060008114610775576040519150601f19603f3d011682016040523d82523d6000602084013e61077a565b606091505b509150915061078a828286610796565b92505050949350505050565b606083156107a6578290506107f6565b6000835111156107b95782518084602001fd5b816040517f08c379a00000000000000000000000000000000000000000000000000000000081526004016107ed9190610aa2565b60405180910390fd5b9392505050565b60008151905061080c81610dda565b92915050565b60008135905061082181610df1565b92915050565b60008151905061083681610df1565b92915050565b60006020828403121561085257610851610c82565b5b6000610860848285016107fd565b91505092915050565b60006020828403121561087f5761087e610c82565b5b600061088d84828501610812565b91505092915050565b6000602082840312156108ac576108ab610c82565b5b60006108ba84828501610827565b91505092915050565b6108cc81610bd1565b82525050565b60006108dd82610b9f565b6108e78185610bb5565b93506108f7818560208601610c4f565b80840191505092915050565b61090c81610c19565b82525050565b600061091d82610baa565b6109278185610bc0565b9350610937818560208601610c4f565b61094081610c87565b840191505092915050565b6000610958602683610bc0565b915061096382610c98565b604082019050919050565b600061097b602483610bc0565b915061098682610ce7565b604082019050919050565b600061099e601883610bc0565b91506109a982610d36565b602082019050919050565b60006109c1601d83610bc0565b91506109cc82610d5f565b602082019050919050565b60006109e4601883610bc0565b91506109ef82610d88565b602082019050919050565b6000610a07601f83610bc0565b9150610a1282610db1565b602082019050919050565b610a2681610c0f565b82525050565b6000610a3882846108d2565b915081905092915050565b6000602082019050610a5860008301846108c3565b92915050565b6000604082019050610a7360008301856108c3565b610a806020830184610a1d565b9392505050565b6000602082019050610a9c6000830184610903565b92915050565b60006020820190508181036000830152610abc8184610912565b905092915050565b60006020820190508181036000830152610add8161094b565b9050919050565b60006020820190508181036000830152610afd8161096e565b9050919050565b60006020820190508181036000830152610b1d81610991565b9050919050565b60006020820190508181036000830152610b3d816109b4565b9050919050565b60006020820190508181036000830152610b5d816109d7565b9050919050565b60006020820190508181036000830152610b7d816109fa565b9050919050565b6000602082019050610b996000830184610a1d565b92915050565b600081519050919050565b600081519050919050565b600081905092915050565b600082825260208201905092915050565b6000610bdc82610bef565b9050919050565b60008115159050919050565b600073ffffffffffffffffffffffffffffffffffffffff82169050919050565b6000819050919050565b6000610c2482610c2b565b9050919050565b6000610c3682610c3d565b9050919050565b6000610c4882610bef565b9050919050565b60005b83811015610c6d578082015181840152602081019050610c52565b83811115610c7c576000848401525b50505050565b600080fd5b6000601f19601f8301169050919050565b7f416464726573733a20696e73756666696369656e742062616c616e636520666f60008201527f722063616c6c0000000000000000000000000000000000000000000000000000602082015250565b7f426f72726f776572206d7573742062652061206465706c6f79656420636f6e7460008201527f7261637400000000000000000000000000000000000000000000000000000000602082015250565b7f466c617368206c6f616e206e6f742070616964206261636b0000000000000000600082015250565b7f416464726573733a2063616c6c20746f206e6f6e2d636f6e7472616374000000600082015250565b7f4e6f7420656e6f75676820746f6b656e2062616c616e63650000000000000000600082015250565b7f5265656e7472616e637947756172643a207265656e7472616e742063616c6c00600082015250565b610de381610be3565b8114610dee57600080fd5b50565b610dfa81610c0f565b8114610e0557600080fd5b5056fea2646970667358221220f4d74f5e38e9d43430799fcba57e650f92add33c061d7a4d1c880202564376f064736f6c63430008070033",
  "linkReferences": {},
  "deployedLinkReferences": {}
}