{
  "_format": "hh-sol-artifact-1",
  "contractName": "SelfiePool",
  "sourceName": "contracts/selfie/SelfiePool.sol",
  "abi": [
    {
      "inputs": [
        {
          "internalType": "address",
          "name": "tokenAddress",
          "type": "address"
        },
        {
          "internalType": "address",
          "name": "governanceAddress",
          "type": "address"
        }
      ],
      "stateMutability": "nonpayable",
      "type": "constructor"
    },
    {
      "anonymous": false,
      "inputs": [
        {
          "indexed": true,
          "internalType": "address",
          "name": "receiver",
          "type": "address"
        },
        {
          "indexed": false,
          "internalType": "uint256",
          "name": "amount",
          "type": "uint256"
        }
      ],
      "name": "FundsDrained",
      "type": "event"
    },
    {
      "inputs": [
        {
          "internalType": "address",
          "name": "receiver",
          "type": "address"
        }
      ],
      "name": "drainAllFunds",
      "outputs": [],
      "stateMutability": "nonpayable",
      "type": "function"
    },
    {
      "inputs": [
        {
          "internalType": "uint256",
          "name": "borrowAmount",
          "type": "uint256"
        }
      ],
      "name": "flashLoan",
      "outputs": [],
      "stateMutability": "nonpayable",
      "type": "function"
    },
    {
      "inputs": [],
      "name": "governance",
      "outputs": [
        {
          "internalType": "contract SimpleGovernance",
          "name": "",
          "type": "address"
        }
      ],
      "stateMutability": "view",
      "type": "function"
    },
    {
      "inputs": [],
      "name": "token",
      "outputs": [
        {
          "internalType": "contract ERC20Snapshot",
          "name": "",
          "type": "address"
        }
      ],
      "stateMutability": "view",
      "type": "function"
    }
  ],
  "bytecode": "0x60806040523480156200001157600080fd5b506040516200125c3803806200125c8339818101604052810190620000379190620000e0565b600160008190555081600160006101000a81548173ffffffffffffffffffffffffffffffffffffffff021916908373ffffffffffffffffffffffffffffffffffffffff16021790555080600260006101000a81548173ffffffffffffffffffffffffffffffffffffffff021916908373ffffffffffffffffffffffffffffffffffffffff16021790555050506200017a565b600081519050620000da8162000160565b92915050565b60008060408385031215620000fa57620000f96200015b565b5b60006200010a85828601620000c9565b92505060206200011d85828601620000c9565b9150509250929050565b600062000134826200013b565b9050919050565b600073ffffffffffffffffffffffffffffffffffffffff82169050919050565b600080fd5b6200016b8162000127565b81146200017757600080fd5b50565b6110d2806200018a6000396000f3fe608060405234801561001057600080fd5b506004361061004c5760003560e01c80630cf20913146100515780635aa6e6751461006d5780639ab603b91461008b578063fc0c546a146100a7575b600080fd5b61006b600480360381019061006691906109be565b6100c5565b005b610075610306565b6040516100829190610c83565b60405180910390f35b6100a560048036038101906100a09190610a18565b61032c565b005b6100af610754565b6040516100bc9190610c68565b60405180910390f35b600260009054906101000a900473ffffffffffffffffffffffffffffffffffffffff1673ffffffffffffffffffffffffffffffffffffffff163373ffffffffffffffffffffffffffffffffffffffff1614610155576040517f08c379a000000000000000000000000000000000000000000000000000000000815260040161014c90610d00565b60405180910390fd5b6000600160009054906101000a900473ffffffffffffffffffffffffffffffffffffffff1673ffffffffffffffffffffffffffffffffffffffff166370a08231306040518263ffffffff1660e01b81526004016101b29190610c24565b60206040518083038186803b1580156101ca57600080fd5b505afa1580156101de573d6000803e3d6000fd5b505050506040513d601f19601f820116820180604052508101906102029190610a45565b9050600160009054906101000a900473ffffffffffffffffffffffffffffffffffffffff1673ffffffffffffffffffffffffffffffffffffffff1663a9059cbb83836040518363ffffffff1660e01b8152600401610261929190610c3f565b602060405180830381600087803b15801561027b57600080fd5b505af115801561028f573d6000803e3d6000fd5b505050506040513d601f19601f820116820180604052508101906102b391906109eb565b508173ffffffffffffffffffffffffffffffffffffffff167f01299bd5af84e23c4c82c1d4eddf2a9c00e70b8b886076d06cdbe7c6fc80a87d826040516102fa9190610da0565b60405180910390a25050565b600260009054906101000a900473ffffffffffffffffffffffffffffffffffffffff1681565b60026000541415610372576040517f08c379a000000000000000000000000000000000000000000000000000000000815260040161036990610d80565b60405180910390fd5b60026000819055506000600160009054906101000a900473ffffffffffffffffffffffffffffffffffffffff1673ffffffffffffffffffffffffffffffffffffffff166370a08231306040518263ffffffff1660e01b81526004016103d79190610c24565b60206040518083038186803b1580156103ef57600080fd5b505afa158015610403573d6000803e3d6000fd5b505050506040513d601f19601f820116820180604052508101906104279190610a45565b90508181101561046c576040517f08c379a000000000000000000000000000000000000000000000000000000000815260040161046390610d40565b60405180910390fd5b600160009054906101000a900473ffffffffffffffffffffffffffffffffffffffff1673ffffffffffffffffffffffffffffffffffffffff1663a9059cbb33846040518363ffffffff1660e01b81526004016104c9929190610c3f565b602060405180830381600087803b1580156104e357600080fd5b505af11580156104f7573d6000803e3d6000fd5b505050506040513d601f19601f8201168201806040525081019061051b91906109eb565b5061053b3373ffffffffffffffffffffffffffffffffffffffff1661077a565b61057a576040517f08c379a000000000000000000000000000000000000000000000000000000000815260040161057190610d20565b60405180910390fd5b610654600160009054906101000a900473ffffffffffffffffffffffffffffffffffffffff16836040516024016105b2929190610c3f565b6040516020818303038152906040527f35729130000000000000000000000000000000000000000000000000000000007bffffffffffffffffffffffffffffffffffffffffffffffffffffffff19166020820180517bffffffffffffffffffffffffffffffffffffffffffffffffffffffff83818316178352505050503373ffffffffffffffffffffffffffffffffffffffff1661078d90919063ffffffff16565b506000600160009054906101000a900473ffffffffffffffffffffffffffffffffffffffff1673ffffffffffffffffffffffffffffffffffffffff166370a08231306040518263ffffffff1660e01b81526004016106b29190610c24565b60206040518083038186803b1580156106ca57600080fd5b505afa1580156106de573d6000803e3d6000fd5b505050506040513d601f19601f820116820180604052508101906107029190610a45565b905081811015610747576040517f08c379a000000000000000000000000000000000000000000000000000000000815260040161073e90610cc0565b60405180910390fd5b5050600160008190555050565b600160009054906101000a900473ffffffffffffffffffffffffffffffffffffffff1681565b600080823b905060008111915050919050565b60606107cf83836040518060400160405280601e81526020017f416464726573733a206c6f772d6c6576656c2063616c6c206661696c656400008152506107d7565b905092915050565b60606107e684846000856107ef565b90509392505050565b606082471015610834576040517f08c379a000000000000000000000000000000000000000000000000000000000815260040161082b90610ce0565b60405180910390fd5b61083d8561077a565b61087c576040517f08c379a000000000000000000000000000000000000000000000000000000000815260040161087390610d60565b60405180910390fd5b6000808673ffffffffffffffffffffffffffffffffffffffff1685876040516108a59190610c0d565b60006040518083038185875af1925050503d80600081146108e2576040519150601f19603f3d011682016040523d82523d6000602084013e6108e7565b606091505b50915091506108f7828286610903565b92505050949350505050565b6060831561091357829050610963565b6000835111156109265782518084602001fd5b816040517f08c379a000000000000000000000000000000000000000000000000000000000815260040161095a9190610c9e565b60405180910390fd5b9392505050565b60008135905061097981611057565b92915050565b60008151905061098e8161106e565b92915050565b6000813590506109a381611085565b92915050565b6000815190506109b881611085565b92915050565b6000602082840312156109d4576109d3610eb0565b5b60006109e28482850161096a565b91505092915050565b600060208284031215610a0157610a00610eb0565b5b6000610a0f8482850161097f565b91505092915050565b600060208284031215610a2e57610a2d610eb0565b5b6000610a3c84828501610994565b91505092915050565b600060208284031215610a5b57610a5a610eb0565b5b6000610a69848285016109a9565b91505092915050565b610a7b81610ded565b82525050565b6000610a8c82610dbb565b610a968185610dd1565b9350610aa6818560208601610e7d565b80840191505092915050565b610abb81610e35565b82525050565b610aca81610e47565b82525050565b6000610adb82610dc6565b610ae58185610ddc565b9350610af5818560208601610e7d565b610afe81610eb5565b840191505092915050565b6000610b16602083610ddc565b9150610b2182610ec6565b602082019050919050565b6000610b39602683610ddc565b9150610b4482610eef565b604082019050919050565b6000610b5c602783610ddc565b9150610b6782610f3e565b604082019050919050565b6000610b7f602283610ddc565b9150610b8a82610f8d565b604082019050919050565b6000610ba2601983610ddc565b9150610bad82610fdc565b602082019050919050565b6000610bc5601d83610ddc565b9150610bd082611005565b602082019050919050565b6000610be8601f83610ddc565b9150610bf38261102e565b602082019050919050565b610c0781610e2b565b82525050565b6000610c198284610a81565b915081905092915050565b6000602082019050610c396000830184610a72565b92915050565b6000604082019050610c546000830185610a72565b610c616020830184610bfe565b9392505050565b6000602082019050610c7d6000830184610ab2565b92915050565b6000602082019050610c986000830184610ac1565b92915050565b60006020820190508181036000830152610cb88184610ad0565b905092915050565b60006020820190508181036000830152610cd981610b09565b9050919050565b60006020820190508181036000830152610cf981610b2c565b9050919050565b60006020820190508181036000830152610d1981610b4f565b9050919050565b60006020820190508181036000830152610d3981610b72565b9050919050565b60006020820190508181036000830152610d5981610b95565b9050919050565b60006020820190508181036000830152610d7981610bb8565b9050919050565b60006020820190508181036000830152610d9981610bdb565b9050919050565b6000602082019050610db56000830184610bfe565b92915050565b600081519050919050565b600081519050919050565b600081905092915050565b600082825260208201905092915050565b6000610df882610e0b565b9050919050565b60008115159050919050565b600073ffffffffffffffffffffffffffffffffffffffff82169050919050565b6000819050919050565b6000610e4082610e59565b9050919050565b6000610e5282610e59565b9050919050565b6000610e6482610e6b565b9050919050565b6000610e7682610e0b565b9050919050565b60005b83811015610e9b578082015181840152602081019050610e80565b83811115610eaa576000848401525b50505050565b600080fd5b6000601f19601f8301169050919050565b7f466c617368206c6f616e206861736e2774206265656e2070616964206261636b600082015250565b7f416464726573733a20696e73756666696369656e742062616c616e636520666f60008201527f722063616c6c0000000000000000000000000000000000000000000000000000602082015250565b7f4f6e6c7920676f7665726e616e63652063616e2065786563757465207468697360008201527f20616374696f6e00000000000000000000000000000000000000000000000000602082015250565b7f53656e646572206d7573742062652061206465706c6f79656420636f6e74726160008201527f6374000000000000000000000000000000000000000000000000000000000000602082015250565b7f4e6f7420656e6f75676820746f6b656e7320696e20706f6f6c00000000000000600082015250565b7f416464726573733a2063616c6c20746f206e6f6e2d636f6e7472616374000000600082015250565b7f5265656e7472616e637947756172643a207265656e7472616e742063616c6c00600082015250565b61106081610ded565b811461106b57600080fd5b50565b61107781610dff565b811461108257600080fd5b50565b61108e81610e2b565b811461109957600080fd5b5056fea26469706673582212209c316d5f45a303d5f9833a331469186a1f12d4e525f2f08e56df44e01008491c64736f6c63430008070033",
  "linkReferences": {},
  "deployedLinkReferences": {}
}