{
  "_format": "hh-sol-artifact-1",
  "contractName": "WalletRegistry",
  "sourceName": "contracts/backdoor/WalletRegistry.sol",
  "abi": [
    {
      "inputs": [
        {
          "internalType": "address",
          "name": "masterCopyAddress",
          "type": "address"
        },
        {
          "internalType": "address",
          "name": "walletFactoryAddress",
          "type": "address"
        },
        {
          "internalType": "address",
          "name": "tokenAddress",
          "type": "address"
        },
        {
          "internalType": "address[]",
          "name": "initialBeneficiaries",
          "type": "address[]"
        }
      ],
      "stateMutability": "nonpayable",
      "type": "constructor"
    },
    {
      "anonymous": false,
      "inputs": [
        {
          "indexed": true,
          "internalType": "address",
          "name": "previousOwner",
          "type": "address"
        },
        {
          "indexed": true,
          "internalType": "address",
          "name": "newOwner",
          "type": "address"
        }
      ],
      "name": "OwnershipTransferred",
      "type": "event"
    },
    {
      "inputs": [
        {
          "internalType": "address",
          "name": "beneficiary",
          "type": "address"
        }
      ],
      "name": "addBeneficiary",
      "outputs": [],
      "stateMutability": "nonpayable",
      "type": "function"
    },
    {
      "inputs": [
        {
          "internalType": "address",
          "name": "",
          "type": "address"
        }
      ],
      "name": "beneficiaries",
      "outputs": [
        {
          "internalType": "bool",
          "name": "",
          "type": "bool"
        }
      ],
      "stateMutability": "view",
      "type": "function"
    },
    {
      "inputs": [],
      "name": "masterCopy",
      "outputs": [
        {
          "internalType": "address",
          "name": "",
          "type": "address"
        }
      ],
      "stateMutability": "view",
      "type": "function"
    },
    {
      "inputs": [],
      "name": "owner",
      "outputs": [
        {
          "internalType": "address",
          "name": "",
          "type": "address"
        }
      ],
      "stateMutability": "view",
      "type": "function"
    },
    {
      "inputs": [
        {
          "internalType": "contract GnosisSafeProxy",
          "name": "proxy",
          "type": "address"
        },
        {
          "internalType": "address",
          "name": "singleton",
          "type": "address"
        },
        {
          "internalType": "bytes",
          "name": "initializer",
          "type": "bytes"
        },
        {
          "internalType": "uint256",
          "name": "",
          "type": "uint256"
        }
      ],
      "name": "proxyCreated",
      "outputs": [],
      "stateMutability": "nonpayable",
      "type": "function"
    },
    {
      "inputs": [],
      "name": "renounceOwnership",
      "outputs": [],
      "stateMutability": "nonpayable",
      "type": "function"
    },
    {
      "inputs": [],
      "name": "token",
      "outputs": [
        {
          "internalType": "contract IERC20",
          "name": "",
          "type": "address"
        }
      ],
      "stateMutability": "view",
      "type": "function"
    },
    {
      "inputs": [
        {
          "internalType": "address",
          "name": "newOwner",
          "type": "address"
        }
      ],
      "name": "transferOwnership",
      "outputs": [],
      "stateMutability": "nonpayable",
      "type": "function"
    },
    {
      "inputs": [],
      "name": "walletFactory",
      "outputs": [
        {
          "internalType": "address",
          "name": "",
          "type": "address"
        }
      ],
      "stateMutability": "view",
      "type": "function"
    },
    {
      "inputs": [
        {
          "internalType": "address",
          "name": "",
          "type": "address"
        }
      ],
      "name": "wallets",
      "outputs": [
        {
          "internalType": "address",
          "name": "",
          "type": "address"
        }
      ],
      "stateMutability": "view",
      "type": "function"
    }
  ],
  "bytecode": "0x60e06040523480156200001157600080fd5b5060405162001fa138038062001fa1833981810160405281019062000037919062000471565b620000576200004b620001ce60201b60201c565b620001d660201b60201c565b600073ffffffffffffffffffffffffffffffffffffffff168473ffffffffffffffffffffffffffffffffffffffff1614156200009257600080fd5b600073ffffffffffffffffffffffffffffffffffffffff168373ffffffffffffffffffffffffffffffffffffffff161415620000cd57600080fd5b8373ffffffffffffffffffffffffffffffffffffffff1660808173ffffffffffffffffffffffffffffffffffffffff1660601b815250508273ffffffffffffffffffffffffffffffffffffffff1660a08173ffffffffffffffffffffffffffffffffffffffff1660601b815250508173ffffffffffffffffffffffffffffffffffffffff1660c08173ffffffffffffffffffffffffffffffffffffffff1660601b8152505060005b8151811015620001c357620001ad828281518110620001995762000198620006a5565b5b60200260200101516200029a60201b60201c565b8080620001ba9062000628565b91505062000175565b50505050506200076b565b600033905090565b60008060009054906101000a900473ffffffffffffffffffffffffffffffffffffffff169050816000806101000a81548173ffffffffffffffffffffffffffffffffffffffff021916908373ffffffffffffffffffffffffffffffffffffffff1602179055508173ffffffffffffffffffffffffffffffffffffffff168173ffffffffffffffffffffffffffffffffffffffff167f8be0079c531659141344cd1fd0a4f28419497f9722a3daafe3b4186f6b6457e060405160405180910390a35050565b620002aa620001ce60201b60201c565b73ffffffffffffffffffffffffffffffffffffffff16620002d06200038360201b60201c565b73ffffffffffffffffffffffffffffffffffffffff161462000329576040517f08c379a0000000000000000000000000000000000000000000000000000000008152600401620003209062000529565b60405180910390fd5b60018060008373ffffffffffffffffffffffffffffffffffffffff1673ffffffffffffffffffffffffffffffffffffffff16815260200190815260200160002060006101000a81548160ff02191690831515021790555050565b60008060009054906101000a900473ffffffffffffffffffffffffffffffffffffffff16905090565b6000620003c3620003bd8462000574565b6200054b565b90508083825260208201905082856020860282011115620003e957620003e862000708565b5b60005b858110156200041d578162000402888262000427565b845260208401935060208301925050600181019050620003ec565b5050509392505050565b600081519050620004388162000751565b92915050565b600082601f83011262000456576200045562000703565b5b815162000468848260208601620003ac565b91505092915050565b600080600080608085870312156200048e576200048d62000712565b5b60006200049e8782880162000427565b9450506020620004b18782880162000427565b9350506040620004c48782880162000427565b925050606085015167ffffffffffffffff811115620004e857620004e76200070d565b5b620004f6878288016200043e565b91505092959194509250565b600062000511602083620005a3565b91506200051e8262000728565b602082019050919050565b60006020820190508181036000830152620005448162000502565b9050919050565b6000620005576200056a565b9050620005658282620005f2565b919050565b6000604051905090565b600067ffffffffffffffff821115620005925762000591620006d4565b5b602082029050602081019050919050565b600082825260208201905092915050565b6000620005c182620005c8565b9050919050565b600073ffffffffffffffffffffffffffffffffffffffff82169050919050565b6000819050919050565b620005fd8262000717565b810181811067ffffffffffffffff821117156200061f576200061e620006d4565b5b80604052505050565b60006200063582620005e8565b91507fffffffffffffffffffffffffffffffffffffffffffffffffffffffffffffffff8214156200066b576200066a62000676565b5b600182019050919050565b7f4e487b7100000000000000000000000000000000000000000000000000000000600052601160045260246000fd5b7f4e487b7100000000000000000000000000000000000000000000000000000000600052603260045260246000fd5b7f4e487b7100000000000000000000000000000000000000000000000000000000600052604160045260246000fd5b600080fd5b600080fd5b600080fd5b600080fd5b6000601f19601f8301169050919050565b7f4f776e61626c653a2063616c6c6572206973206e6f7420746865206f776e6572600082015250565b6200075c81620005b4565b81146200076857600080fd5b50565b60805160601c60a05160601c60c05160601c6117e1620007c060003960008181610204015281816107ef0152610ba80152600081816102f30152610a8c0152600081816103810152610a6801526117e16000f3fe608060405234801561001057600080fd5b506004361061009e5760003560e01c80638da5cb5b116100665780638da5cb5b14610145578063a619486e14610163578063c5c0369914610181578063f2fde38b1461019f578063fc0c546a146101bb5761009e565b806301567739146100a35780631e52b518146100d35780635926651d146100ef578063715018a61461010b57806389b08f1114610115575b600080fd5b6100bd60048036038101906100b89190610e63565b6101d9565b6040516100ca9190611185565b60405180910390f35b6100ed60048036038101906100e89190610f06565b6101f9565b005b61010960048036038101906101049190610e63565b6108ac565b005b610113610982565b005b61012f600480360381019061012a9190610e63565b610a0a565b60405161013c9190611141565b60405180910390f35b61014d610a3d565b60405161015a9190611141565b60405180910390f35b61016b610a66565b6040516101789190611141565b60405180910390f35b610189610a8a565b6040516101969190611141565b60405180910390f35b6101b960048036038101906101b49190610e63565b610aae565b005b6101c3610ba6565b6040516101d091906111a0565b60405180910390f35b60016020528060005260406000206000915054906101000a900460ff1681565b678ac7230489e800007f000000000000000000000000000000000000000000000000000000000000000073ffffffffffffffffffffffffffffffffffffffff166370a08231306040518263ffffffff1660e01b815260040161025b9190611141565b60206040518083038186803b15801561027357600080fd5b505afa158015610287573d6000803e3d6000fd5b505050506040513d601f19601f820116820180604052508101906102ab9190610f8e565b10156102ec576040517f08c379a00000000000000000000000000000000000000000000000000000000081526004016102e39061129b565b60405180910390fd5b60008590507f000000000000000000000000000000000000000000000000000000000000000073ffffffffffffffffffffffffffffffffffffffff163373ffffffffffffffffffffffffffffffffffffffff161461037f576040517f08c379a00000000000000000000000000000000000000000000000000000000081526004016103769061123b565b60405180910390fd5b7f000000000000000000000000000000000000000000000000000000000000000073ffffffffffffffffffffffffffffffffffffffff168573ffffffffffffffffffffffffffffffffffffffff161461040d576040517f08c379a00000000000000000000000000000000000000000000000000000000081526004016104049061121b565b60405180910390fd5b63b63e800d60e01b7bffffffffffffffffffffffffffffffffffffffffffffffffffffffff1916848460009060049261044893929190611348565b90610453919061141b565b7bffffffffffffffffffffffffffffffffffffffffffffffffffffffff1916146104b2576040517f08c379a00000000000000000000000000000000000000000000000000000000081526004016104a9906111fb565b60405180910390fd5b60018173ffffffffffffffffffffffffffffffffffffffff1663e75235b86040518163ffffffff1660e01b815260040160206040518083038186803b1580156104fa57600080fd5b505afa15801561050e573d6000803e3d6000fd5b505050506040513d601f19601f820116820180604052508101906105329190610f8e565b14610572576040517f08c379a00000000000000000000000000000000000000000000000000000000081526004016105699061127b565b60405180910390fd5b60018173ffffffffffffffffffffffffffffffffffffffff1663a0e67e2b6040518163ffffffff1660e01b815260040160006040518083038186803b1580156105ba57600080fd5b505afa1580156105ce573d6000803e3d6000fd5b505050506040513d6000823e3d601f19601f820116820180604052508101906105f79190610e90565b5114610638576040517f08c379a000000000000000000000000000000000000000000000000000000000815260040161062f906111db565b60405180910390fd5b60008173ffffffffffffffffffffffffffffffffffffffff1663a0e67e2b6040518163ffffffff1660e01b815260040160006040518083038186803b15801561068057600080fd5b505afa158015610694573d6000803e3d6000fd5b505050506040513d6000823e3d601f19601f820116820180604052508101906106bd9190610e90565b6000815181106106d0576106cf6114f3565b5b60200260200101519050600160008273ffffffffffffffffffffffffffffffffffffffff1673ffffffffffffffffffffffffffffffffffffffff16815260200190815260200160002060009054906101000a900460ff16610766576040517f08c379a000000000000000000000000000000000000000000000000000000000815260040161075d906112bb565b60405180910390fd5b61076f81610bca565b81600260008373ffffffffffffffffffffffffffffffffffffffff1673ffffffffffffffffffffffffffffffffffffffff16815260200190815260200160002060006101000a81548173ffffffffffffffffffffffffffffffffffffffff021916908373ffffffffffffffffffffffffffffffffffffffff1602179055507f000000000000000000000000000000000000000000000000000000000000000073ffffffffffffffffffffffffffffffffffffffff1663a9059cbb83678ac7230489e800006040518363ffffffff1660e01b815260040161085092919061115c565b602060405180830381600087803b15801561086a57600080fd5b505af115801561087e573d6000803e3d6000fd5b505050506040513d601f19601f820116820180604052508101906108a29190610ed9565b5050505050505050565b6108b4610c25565b73ffffffffffffffffffffffffffffffffffffffff166108d2610a3d565b73ffffffffffffffffffffffffffffffffffffffff1614610928576040517f08c379a000000000000000000000000000000000000000000000000000000000815260040161091f9061125b565b60405180910390fd5b60018060008373ffffffffffffffffffffffffffffffffffffffff1673ffffffffffffffffffffffffffffffffffffffff16815260200190815260200160002060006101000a81548160ff02191690831515021790555050565b61098a610c25565b73ffffffffffffffffffffffffffffffffffffffff166109a8610a3d565b73ffffffffffffffffffffffffffffffffffffffff16146109fe576040517f08c379a00000000000000000000000000000000000000000000000000000000081526004016109f59061125b565b60405180910390fd5b610a086000610c2d565b565b60026020528060005260406000206000915054906101000a900473ffffffffffffffffffffffffffffffffffffffff1681565b60008060009054906101000a900473ffffffffffffffffffffffffffffffffffffffff16905090565b7f000000000000000000000000000000000000000000000000000000000000000081565b7f000000000000000000000000000000000000000000000000000000000000000081565b610ab6610c25565b73ffffffffffffffffffffffffffffffffffffffff16610ad4610a3d565b73ffffffffffffffffffffffffffffffffffffffff1614610b2a576040517f08c379a0000000000000000000000000000000000000000000000000000000008152600401610b219061125b565b60405180910390fd5b600073ffffffffffffffffffffffffffffffffffffffff168173ffffffffffffffffffffffffffffffffffffffff161415610b9a576040517f08c379a0000000000000000000000000000000000000000000000000000000008152600401610b91906111bb565b60405180910390fd5b610ba381610c2d565b50565b7f000000000000000000000000000000000000000000000000000000000000000081565b6000600160008373ffffffffffffffffffffffffffffffffffffffff1673ffffffffffffffffffffffffffffffffffffffff16815260200190815260200160002060006101000a81548160ff02191690831515021790555050565b600033905090565b60008060009054906101000a900473ffffffffffffffffffffffffffffffffffffffff169050816000806101000a81548173ffffffffffffffffffffffffffffffffffffffff021916908373ffffffffffffffffffffffffffffffffffffffff1602179055508173ffffffffffffffffffffffffffffffffffffffff168173ffffffffffffffffffffffffffffffffffffffff167f8be0079c531659141344cd1fd0a4f28419497f9722a3daafe3b4186f6b6457e060405160405180910390a35050565b6000610d04610cff84611300565b6112db565b90508083825260208201905082856020860282011115610d2757610d26611565565b5b60005b85811015610d575781610d3d8882610d76565b845260208401935060208301925050600181019050610d2a565b5050509392505050565b600081359050610d708161174f565b92915050565b600081519050610d858161174f565b92915050565b600082601f830112610da057610d9f611556565b5b8151610db0848260208601610cf1565b91505092915050565b600081519050610dc881611766565b92915050565b60008083601f840112610de457610de3611556565b5b8235905067ffffffffffffffff811115610e0157610e00611551565b5b602083019150836001820283011115610e1d57610e1c611565565b5b9250929050565b600081359050610e338161177d565b92915050565b600081359050610e4881611794565b92915050565b600081519050610e5d81611794565b92915050565b600060208284031215610e7957610e7861156f565b5b6000610e8784828501610d61565b91505092915050565b600060208284031215610ea657610ea561156f565b5b600082015167ffffffffffffffff811115610ec457610ec361156a565b5b610ed084828501610d8b565b91505092915050565b600060208284031215610eef57610eee61156f565b5b6000610efd84828501610db9565b91505092915050565b600080600080600060808688031215610f2257610f2161156f565b5b6000610f3088828901610e24565b9550506020610f4188828901610d61565b945050604086013567ffffffffffffffff811115610f6257610f6161156a565b5b610f6e88828901610dce565b93509350506060610f8188828901610e39565b9150509295509295909350565b600060208284031215610fa457610fa361156f565b5b6000610fb284828501610e4e565b91505092915050565b610fc48161147a565b82525050565b610fd381611383565b82525050565b610fe2816113a7565b82525050565b610ff18161148c565b82525050565b6000611004602683611337565b915061100f82611592565b604082019050919050565b6000611027601883611337565b9150611032826115e1565b602082019050919050565b600061104a601483611337565b91506110558261160a565b602082019050919050565b600061106d601483611337565b915061107882611633565b602082019050919050565b6000611090601683611337565b915061109b8261165c565b602082019050919050565b60006110b3602083611337565b91506110be82611685565b602082019050919050565b60006110d6601183611337565b91506110e1826116ae565b602082019050919050565b60006110f9601783611337565b9150611104826116d7565b602082019050919050565b600061111c602683611337565b915061112782611700565b604082019050919050565b61113b81611411565b82525050565b60006020820190506111566000830184610fca565b92915050565b60006040820190506111716000830185610fbb565b61117e6020830184611132565b9392505050565b600060208201905061119a6000830184610fd9565b92915050565b60006020820190506111b56000830184610fe8565b92915050565b600060208201905081810360008301526111d481610ff7565b9050919050565b600060208201905081810360008301526111f48161101a565b9050919050565b600060208201905081810360008301526112148161103d565b9050919050565b6000602082019050818103600083015261123481611060565b9050919050565b6000602082019050818103600083015261125481611083565b9050919050565b60006020820190508181036000830152611274816110a6565b9050919050565b60006020820190508181036000830152611294816110c9565b9050919050565b600060208201905081810360008301526112b4816110ec565b9050919050565b600060208201905081810360008301526112d48161110f565b9050919050565b60006112e56112f6565b90506112f182826114c2565b919050565b6000604051905090565b600067ffffffffffffffff82111561131b5761131a611522565b5b602082029050602081019050919050565b600082905092915050565b600082825260208201905092915050565b6000808585111561135c5761135b611560565b5b8386111561136d5761136c61155b565b5b6001850283019150848603905094509492505050565b600061138e826113f1565b9050919050565b60006113a0826113f1565b9050919050565b60008115159050919050565b60007fffffffff0000000000000000000000000000000000000000000000000000000082169050919050565b60006113ea82611395565b9050919050565b600073ffffffffffffffffffffffffffffffffffffffff82169050919050565b6000819050919050565b6000611427838361132c565b8261143281356113b3565b925060048210156114725761146d7fffffffff0000000000000000000000000000000000000000000000000000000083600403600802611585565b831692505b505092915050565b60006114858261149e565b9050919050565b60006114978261149e565b9050919050565b60006114a9826114b0565b9050919050565b60006114bb826113f1565b9050919050565b6114cb82611574565b810181811067ffffffffffffffff821117156114ea576114e9611522565b5b80604052505050565b7f4e487b7100000000000000000000000000000000000000000000000000000000600052603260045260246000fd5b7f4e487b7100000000000000000000000000000000000000000000000000000000600052604160045260246000fd5b600080fd5b600080fd5b600080fd5b600080fd5b600080fd5b600080fd5b600080fd5b6000601f19601f8301169050919050565b600082821b905092915050565b7f4f776e61626c653a206e6577206f776e657220697320746865207a65726f206160008201527f6464726573730000000000000000000000000000000000000000000000000000602082015250565b7f496e76616c6964206e756d626572206f66206f776e6572730000000000000000600082015250565b7f57726f6e6720696e697469616c697a6174696f6e000000000000000000000000600082015250565b7f46616b65206d6173746572636f70792075736564000000000000000000000000600082015250565b7f43616c6c6572206d75737420626520666163746f727900000000000000000000600082015250565b7f4f776e61626c653a2063616c6c6572206973206e6f7420746865206f776e6572600082015250565b7f496e76616c6964207468726573686f6c64000000000000000000000000000000600082015250565b7f4e6f7420656e6f7567682066756e647320746f20706179000000000000000000600082015250565b7f4f776e6572206973206e6f7420726567697374657265642061732062656e656660008201527f6963696172790000000000000000000000000000000000000000000000000000602082015250565b61175881611383565b811461176357600080fd5b50565b61176f816113a7565b811461177a57600080fd5b50565b611786816113df565b811461179157600080fd5b50565b61179d81611411565b81146117a857600080fd5b5056fea26469706673582212207ab7a9704cd62af9c7eba95dce608e358fd8d61ce6483bc8e4314c592b37751b64736f6c63430008070033",
  "linkReferences": {},
  "deployedLinkReferences": {}
}