{
  "_format": "hh-sol-artifact-1",
  "contractName": "TrustfulOracle",
  "sourceName": "contracts/compromised/TrustfulOracle.sol",
  "abi": [
    {
      "inputs": [
        {
          "internalType": "address[]",
          "name": "sources",
          "type": "address[]"
        },
        {
          "internalType": "bool",
          "name": "enableInitialization",
          "type": "bool"
        }
      ],
      "stateMutability": "nonpayable",
      "type": "constructor"
    },
    {
      "anonymous": false,
      "inputs": [
        {
          "indexed": true,
          "internalType": "bytes32",
          "name": "role",
          "type": "bytes32"
        },
        {
          "indexed": true,
          "internalType": "bytes32",
          "name": "previousAdminRole",
          "type": "bytes32"
        },
        {
          "indexed": true,
          "internalType": "bytes32",
          "name": "newAdminRole",
          "type": "bytes32"
        }
      ],
      "name": "RoleAdminChanged",
      "type": "event"
    },
    {
      "anonymous": false,
      "inputs": [
        {
          "indexed": true,
          "internalType": "bytes32",
          "name": "role",
          "type": "bytes32"
        },
        {
          "indexed": true,
          "internalType": "address",
          "name": "account",
          "type": "address"
        },
        {
          "indexed": true,
          "internalType": "address",
          "name": "sender",
          "type": "address"
        }
      ],
      "name": "RoleGranted",
      "type": "event"
    },
    {
      "anonymous": false,
      "inputs": [
        {
          "indexed": true,
          "internalType": "bytes32",
          "name": "role",
          "type": "bytes32"
        },
        {
          "indexed": true,
          "internalType": "address",
          "name": "account",
          "type": "address"
        },
        {
          "indexed": true,
          "internalType": "address",
          "name": "sender",
          "type": "address"
        }
      ],
      "name": "RoleRevoked",
      "type": "event"
    },
    {
      "anonymous": false,
      "inputs": [
        {
          "indexed": true,
          "internalType": "address",
          "name": "source",
          "type": "address"
        },
        {
          "indexed": true,
          "internalType": "string",
          "name": "symbol",
          "type": "string"
        },
        {
          "indexed": false,
          "internalType": "uint256",
          "name": "oldPrice",
          "type": "uint256"
        },
        {
          "indexed": false,
          "internalType": "uint256",
          "name": "newPrice",
          "type": "uint256"
        }
      ],
      "name": "UpdatedPrice",
      "type": "event"
    },
    {
      "inputs": [],
      "name": "DEFAULT_ADMIN_ROLE",
      "outputs": [
        {
          "internalType": "bytes32",
          "name": "",
          "type": "bytes32"
        }
      ],
      "stateMutability": "view",
      "type": "function"
    },
    {
      "inputs": [],
      "name": "INITIALIZER_ROLE",
      "outputs": [
        {
          "internalType": "bytes32",
          "name": "",
          "type": "bytes32"
        }
      ],
      "stateMutability": "view",
      "type": "function"
    },
    {
      "inputs": [],
      "name": "TRUSTED_SOURCE_ROLE",
      "outputs": [
        {
          "internalType": "bytes32",
          "name": "",
          "type": "bytes32"
        }
      ],
      "stateMutability": "view",
      "type": "function"
    },
    {
      "inputs": [
        {
          "internalType": "string",
          "name": "symbol",
          "type": "string"
        }
      ],
      "name": "getAllPricesForSymbol",
      "outputs": [
        {
          "internalType": "uint256[]",
          "name": "",
          "type": "uint256[]"
        }
      ],
      "stateMutability": "view",
      "type": "function"
    },
    {
      "inputs": [
        {
          "internalType": "string",
          "name": "symbol",
          "type": "string"
        }
      ],
      "name": "getMedianPrice",
      "outputs": [
        {
          "internalType": "uint256",
          "name": "",
          "type": "uint256"
        }
      ],
      "stateMutability": "view",
      "type": "function"
    },
    {
      "inputs": [],
      "name": "getNumberOfSources",
      "outputs": [
        {
          "internalType": "uint256",
          "name": "",
          "type": "uint256"
        }
      ],
      "stateMutability": "view",
      "type": "function"
    },
    {
      "inputs": [
        {
          "internalType": "string",
          "name": "symbol",
          "type": "string"
        },
        {
          "internalType": "address",
          "name": "source",
          "type": "address"
        }
      ],
      "name": "getPriceBySource",
      "outputs": [
        {
          "internalType": "uint256",
          "name": "",
          "type": "uint256"
        }
      ],
      "stateMutability": "view",
      "type": "function"
    },
    {
      "inputs": [
        {
          "internalType": "bytes32",
          "name": "role",
          "type": "bytes32"
        }
      ],
      "name": "getRoleAdmin",
      "outputs": [
        {
          "internalType": "bytes32",
          "name": "",
          "type": "bytes32"
        }
      ],
      "stateMutability": "view",
      "type": "function"
    },
    {
      "inputs": [
        {
          "internalType": "bytes32",
          "name": "role",
          "type": "bytes32"
        },
        {
          "internalType": "uint256",
          "name": "index",
          "type": "uint256"
        }
      ],
      "name": "getRoleMember",
      "outputs": [
        {
          "internalType": "address",
          "name": "",
          "type": "address"
        }
      ],
      "stateMutability": "view",
      "type": "function"
    },
    {
      "inputs": [
        {
          "internalType": "bytes32",
          "name": "role",
          "type": "bytes32"
        }
      ],
      "name": "getRoleMemberCount",
      "outputs": [
        {
          "internalType": "uint256",
          "name": "",
          "type": "uint256"
        }
      ],
      "stateMutability": "view",
      "type": "function"
    },
    {
      "inputs": [
        {
          "internalType": "bytes32",
          "name": "role",
          "type": "bytes32"
        },
        {
          "internalType": "address",
          "name": "account",
          "type": "address"
        }
      ],
      "name": "grantRole",
      "outputs": [],
      "stateMutability": "nonpayable",
      "type": "function"
    },
    {
      "inputs": [
        {
          "internalType": "bytes32",
          "name": "role",
          "type": "bytes32"
        },
        {
          "internalType": "address",
          "name": "account",
          "type": "address"
        }
      ],
      "name": "hasRole",
      "outputs": [
        {
          "internalType": "bool",
          "name": "",
          "type": "bool"
        }
      ],
      "stateMutability": "view",
      "type": "function"
    },
    {
      "inputs": [
        {
          "internalType": "string",
          "name": "symbol",
          "type": "string"
        },
        {
          "internalType": "uint256",
          "name": "newPrice",
          "type": "uint256"
        }
      ],
      "name": "postPrice",
      "outputs": [],
      "stateMutability": "nonpayable",
      "type": "function"
    },
    {
      "inputs": [
        {
          "internalType": "bytes32",
          "name": "role",
          "type": "bytes32"
        },
        {
          "internalType": "address",
          "name": "account",
          "type": "address"
        }
      ],
      "name": "renounceRole",
      "outputs": [],
      "stateMutability": "nonpayable",
      "type": "function"
    },
    {
      "inputs": [
        {
          "internalType": "bytes32",
          "name": "role",
          "type": "bytes32"
        },
        {
          "internalType": "address",
          "name": "account",
          "type": "address"
        }
      ],
      "name": "revokeRole",
      "outputs": [],
      "stateMutability": "nonpayable",
      "type": "function"
    },
    {
      "inputs": [
        {
          "internalType": "address[]",
          "name": "sources",
          "type": "address[]"
        },
        {
          "internalType": "string[]",
          "name": "symbols",
          "type": "string[]"
        },
        {
          "internalType": "uint256[]",
          "name": "prices",
          "type": "uint256[]"
        }
      ],
      "name": "setupInitialPrices",
      "outputs": [],
      "stateMutability": "nonpayable",
      "type": "function"
    },
    {
      "inputs": [
        {
          "internalType": "bytes4",
          "name": "interfaceId",
          "type": "bytes4"
        }
      ],
      "name": "supportsInterface",
      "outputs": [
        {
          "internalType": "bool",
          "name": "",
          "type": "bool"
        }
      ],
      "stateMutability": "view",
      "type": "function"
    }
  ],
  "bytecode": "0x60806040523480156200001157600080fd5b5060405162002b6438038062002b6483398181016040528101906200003791906200046d565b60008251116200004657600080fd5b60005b8251811015620000b857620000a27fc679038626499ff86a7debd1abe47cfee1e32a1afc3748d333416c2e93460ee58483815181106200008e576200008d62000628565b5b6020026020010151620000fb60201b60201c565b8080620000af90620005ab565b91505062000049565b508015620000f357620000f27f30d41a597cac127d8249d31298b50e481ee82c3f4a49ff93c76a22735aa9f3ad33620000fb60201b60201c565b5b5050620006df565b6200011282826200014360201b6200091b1760201c565b6200013e81600160008581526020019081526020016000206200015960201b620009291790919060201c565b505050565b6200015582826200019160201b60201c565b5050565b600062000189836000018373ffffffffffffffffffffffffffffffffffffffff1660001b6200028260201b60201c565b905092915050565b620001a38282620002fc60201b60201c565b6200027e57600160008084815260200190815260200160002060000160008373ffffffffffffffffffffffffffffffffffffffff1673ffffffffffffffffffffffffffffffffffffffff16815260200190815260200160002060006101000a81548160ff021916908315150217905550620002236200036660201b60201c565b73ffffffffffffffffffffffffffffffffffffffff168173ffffffffffffffffffffffffffffffffffffffff16837f2f8788117e7eff1d82e926ec794901d17c78024a50270940304540a733656f0d60405160405180910390a45b5050565b60006200029683836200036e60201b60201c565b620002f1578260000182908060018154018082558091505060019003906000526020600020016000909190919091505582600001805490508360010160008481526020019081526020016000208190555060019050620002f6565b600090505b92915050565b600080600084815260200190815260200160002060000160008373ffffffffffffffffffffffffffffffffffffffff1673ffffffffffffffffffffffffffffffffffffffff16815260200190815260200160002060009054906101000a900460ff16905092915050565b600033905090565b600080836001016000848152602001908152602001600020541415905092915050565b6000620003a8620003a284620004fc565b620004d3565b90508083825260208201905082856020860282011115620003ce57620003cd6200068b565b5b60005b85811015620004025781620003e788826200040c565b845260208401935060208301925050600181019050620003d1565b5050509392505050565b6000815190506200041d81620006ab565b92915050565b600082601f8301126200043b576200043a62000686565b5b81516200044d84826020860162000391565b91505092915050565b6000815190506200046781620006c5565b92915050565b6000806040838503121562000487576200048662000695565b5b600083015167ffffffffffffffff811115620004a857620004a762000690565b5b620004b68582860162000423565b9250506020620004c98582860162000456565b9150509250929050565b6000620004df620004f2565b9050620004ed828262000575565b919050565b6000604051905090565b600067ffffffffffffffff8211156200051a576200051962000657565b5b602082029050602081019050919050565b600062000538826200054b565b9050919050565b60008115159050919050565b600073ffffffffffffffffffffffffffffffffffffffff82169050919050565b6000819050919050565b62000580826200069a565b810181811067ffffffffffffffff82111715620005a257620005a162000657565b5b80604052505050565b6000620005b8826200056b565b91507fffffffffffffffffffffffffffffffffffffffffffffffffffffffffffffffff821415620005ee57620005ed620005f9565b5b600182019050919050565b7f4e487b7100000000000000000000000000000000000000000000000000000000600052601160045260246000fd5b7f4e487b7100000000000000000000000000000000000000000000000000000000600052603260045260246000fd5b7f4e487b7100000000000000000000000000000000000000000000000000000000600052604160045260246000fd5b600080fd5b600080fd5b600080fd5b600080fd5b6000601f19601f8301169050919050565b620006b6816200052b565b8114620006c257600080fd5b50565b620006d0816200053f565b8114620006dc57600080fd5b50565b61247580620006ef6000396000f3fe608060405234801561001057600080fd5b506004361061010b5760003560e01c80639010d07c116100a2578063a217fddf11610071578063a217fddf146102de578063bcc82dc4146102fc578063ca15c87314610318578063d547741f14610348578063d965b308146103645761010b565b80639010d07c1461023057806391691fd91461026057806391d148541461027e5780639abd4a25146102ae5761010b565b80632f2ff15d116100de5780632f2ff15d146101be57806336568abe146101da57806351c454db146101f657806366932d86146102145761010b565b806301ffc9a714610110578063248a9ca31461014057806327df3d3e1461017057806329d147101461018e575b600080fd5b61012a6004803603810190610125919061197b565b610394565b6040516101379190611d3f565b60405180910390f35b61015a600480360381019061015591906118ce565b61040e565b6040516101679190611d5a565b60405180910390f35b61017861042d565b6040516101859190611d5a565b60405180910390f35b6101a860048036038101906101a39190611a9e565b610451565b6040516101b59190611dd7565b60405180910390f35b6101d860048036038101906101d391906118fb565b6104b7565b005b6101f460048036038101906101ef91906118fb565b6104eb565b005b6101fe61051f565b60405161020b9190611dd7565b60405180910390f35b61022e60048036038101906102299190611827565b61054f565b005b61024a6004803603810190610245919061193b565b610645565b6040516102579190611d02565b60405180910390f35b610268610674565b6040516102759190611d5a565b60405180910390f35b610298600480360381019061029391906118fb565b610698565b6040516102a59190611d3f565b60405180910390f35b6102c860048036038101906102c39190611a55565b610702565b6040516102d59190611d1d565b60405180910390f35b6102e66107de565b6040516102f39190611d5a565b60405180910390f35b610316600480360381019061031191906119f5565b6107e5565b005b610332600480360381019061032d91906118ce565b61086c565b60405161033f9190611dd7565b60405180910390f35b610362600480360381019061035d91906118fb565b610890565b005b61037e600480360381019061037991906119a8565b6108c4565b60405161038b9190611dd7565b60405180910390f35b60007f5a05180f000000000000000000000000000000000000000000000000000000007bffffffffffffffffffffffffffffffffffffffffffffffffffffffff1916827bffffffffffffffffffffffffffffffffffffffffffffffffffffffff19161480610407575061040682610959565b5b9050919050565b6000806000838152602001908152602001600020600101549050919050565b7f30d41a597cac127d8249d31298b50e481ee82c3f4a49ff93c76a22735aa9f3ad81565b6000600260008373ffffffffffffffffffffffffffffffffffffffff1673ffffffffffffffffffffffffffffffffffffffff168152602001908152602001600020836040516104a09190611cb1565b908152602001604051809103902054905092915050565b6104c182826109d3565b6104e6816001600085815260200190815260200160002061092990919063ffffffff16565b505050565b6104f582826109fc565b61051a8160016000858152602001908152602001600020610a7f90919063ffffffff16565b505050565b600061054a7fc679038626499ff86a7debd1abe47cfee1e32a1afc3748d333416c2e93460ee561086c565b905090565b6105797f30d41a597cac127d8249d31298b50e481ee82c3f4a49ff93c76a22735aa9f3ad33610698565b61058257600080fd5b81518351148015610594575080518251145b61059d57600080fd5b60005b8351811015610615576106028482815181106105bf576105be61228c565b5b60200260200101518483815181106105da576105d961228c565b5b60200260200101518484815181106105f5576105f461228c565b5b6020026020010151610aaf565b808061060d90612185565b9150506105a0565b506106407f30d41a597cac127d8249d31298b50e481ee82c3f4a49ff93c76a22735aa9f3ad336104eb565b505050565b600061066c8260016000868152602001908152602001600020610bdb90919063ffffffff16565b905092915050565b7fc679038626499ff86a7debd1abe47cfee1e32a1afc3748d333416c2e93460ee581565b600080600084815260200190815260200160002060000160008373ffffffffffffffffffffffffffffffffffffffff1673ffffffffffffffffffffffffffffffffffffffff16815260200190815260200160002060009054906101000a900460ff16905092915050565b6060600061070e61051f565b905060008167ffffffffffffffff81111561072c5761072b6122bb565b5b60405190808252806020026020018201604052801561075a5781602001602082028036833780820191505090505b50905060005b828110156107d35760006107947fc679038626499ff86a7debd1abe47cfee1e32a1afc3748d333416c2e93460ee583610645565b90506107a08682610451565b8383815181106107b3576107b261228c565b5b6020026020010181815250505080806107cb90612185565b915050610760565b508092505050919050565b6000801b81565b61080f7fc679038626499ff86a7debd1abe47cfee1e32a1afc3748d333416c2e93460ee533610698565b61081857600080fd5b6108673384848080601f016020809104026020016040519081016040528093929190818152602001838380828437600081840152601f19601f8201169050808301925050505050505083610aaf565b505050565b600061088960016000848152602001908152602001600020610bf5565b9050919050565b61089a8282610c0a565b6108bf8160016000858152602001908152602001600020610a7f90919063ffffffff16565b505050565b600061091383838080601f016020809104026020016040519081016040528093929190818152602001838380828437600081840152601f19601f82011690508083019250505050505050610c33565b905092915050565b6109258282610d16565b5050565b6000610951836000018373ffffffffffffffffffffffffffffffffffffffff1660001b610df6565b905092915050565b60007f7965db0b000000000000000000000000000000000000000000000000000000007bffffffffffffffffffffffffffffffffffffffffffffffffffffffff1916827bffffffffffffffffffffffffffffffffffffffffffffffffffffffff191614806109cc57506109cb82610e66565b5b9050919050565b6109dc8261040e565b6109ed816109e8610ed0565b610ed8565b6109f78383610d16565b505050565b610a04610ed0565b73ffffffffffffffffffffffffffffffffffffffff168173ffffffffffffffffffffffffffffffffffffffff1614610a71576040517f08c379a0000000000000000000000000000000000000000000000000000000008152600401610a6890611db7565b60405180910390fd5b610a7b8282610f75565b5050565b6000610aa7836000018373ffffffffffffffffffffffffffffffffffffffff1660001b611056565b905092915050565b6000600260008573ffffffffffffffffffffffffffffffffffffffff1673ffffffffffffffffffffffffffffffffffffffff16815260200190815260200160002083604051610afe9190611cb1565b908152602001604051809103902054905081600260008673ffffffffffffffffffffffffffffffffffffffff1673ffffffffffffffffffffffffffffffffffffffff16815260200190815260200160002084604051610b5d9190611cb1565b90815260200160405180910390208190555082604051610b7d9190611cb1565b60405180910390208473ffffffffffffffffffffffffffffffffffffffff167f7ebfc8f1d3dff8b56ce70e115d8ba5b18d9af762183f27ee34e3e7ec5ef95f9f8385604051610bcd929190611df2565b60405180910390a350505050565b6000610bea836000018361116a565b60001c905092915050565b6000610c0382600001611195565b9050919050565b610c138261040e565b610c2481610c1f610ed0565b610ed8565b610c2e8383610f75565b505050565b600080610c47610c4284610702565b6111a6565b9050600060028251610c5991906121ce565b1415610ce557600081600160028451610c729190611fab565b610c7c9190612036565b81518110610c8d57610c8c61228c565b5b6020026020010151905060008260028451610ca89190611fab565b81518110610cb957610cb861228c565b5b6020026020010151905060028183610cd19190611f55565b610cdb9190611fab565b9350505050610d11565b8060028251610cf49190611fab565b81518110610d0557610d0461228c565b5b60200260200101519150505b919050565b610d208282610698565b610df257600160008084815260200190815260200160002060000160008373ffffffffffffffffffffffffffffffffffffffff1673ffffffffffffffffffffffffffffffffffffffff16815260200190815260200160002060006101000a81548160ff021916908315150217905550610d97610ed0565b73ffffffffffffffffffffffffffffffffffffffff168173ffffffffffffffffffffffffffffffffffffffff16837f2f8788117e7eff1d82e926ec794901d17c78024a50270940304540a733656f0d60405160405180910390a45b5050565b6000610e0283836112b6565b610e5b578260000182908060018154018082558091505060019003906000526020600020016000909190919091505582600001805490508360010160008481526020019081526020016000208190555060019050610e60565b600090505b92915050565b60007f01ffc9a7000000000000000000000000000000000000000000000000000000007bffffffffffffffffffffffffffffffffffffffffffffffffffffffff1916827bffffffffffffffffffffffffffffffffffffffffffffffffffffffff1916149050919050565b600033905090565b610ee28282610698565b610f7157610f078173ffffffffffffffffffffffffffffffffffffffff1660146112d9565b610f158360001c60206112d9565b604051602001610f26929190611cc8565b6040516020818303038152906040526040517f08c379a0000000000000000000000000000000000000000000000000000000008152600401610f689190611d75565b60405180910390fd5b5050565b610f7f8282610698565b1561105257600080600084815260200190815260200160002060000160008373ffffffffffffffffffffffffffffffffffffffff1673ffffffffffffffffffffffffffffffffffffffff16815260200190815260200160002060006101000a81548160ff021916908315150217905550610ff7610ed0565b73ffffffffffffffffffffffffffffffffffffffff168173ffffffffffffffffffffffffffffffffffffffff16837ff6391f5c32d9c69d2a47ea670b442974b53935d1edc7fd64eb21e047a839171b60405160405180910390a45b5050565b6000808360010160008481526020019081526020016000205490506000811461115e5760006001826110889190612036565b90506000600186600001805490506110a09190612036565b905081811461110f5760008660000182815481106110c1576110c061228c565b5b90600052602060002001549050808760000184815481106110e5576110e461228c565b5b90600052602060002001819055508387600101600083815260200190815260200160002081905550505b856000018054806111235761112261225d565b5b600190038181906000526020600020016000905590558560010160008681526020019081526020016000206000905560019350505050611164565b60009150505b92915050565b60008260000182815481106111825761118161228c565b5b9060005260206000200154905092915050565b600081600001805490509050919050565b606060005b82518110156112ad5760006001826111c39190611f55565b90505b8351811015611299578381815181106111e2576111e161228c565b5b60200260200101518483815181106111fd576111fc61228c565b5b602002602001015111156112865760008483815181106112205761121f61228c565b5b6020026020010151905084828151811061123d5761123c61228c565b5b60200260200101518584815181106112585761125761228c565b5b602002602001018181525050808583815181106112785761127761228c565b5b602002602001018181525050505b808061129190612185565b9150506111c6565b5080806112a590612185565b9150506111ab565b50819050919050565b600080836001016000848152602001908152602001600020541415905092915050565b6060600060028360026112ec9190611fdc565b6112f69190611f55565b67ffffffffffffffff81111561130f5761130e6122bb565b5b6040519080825280601f01601f1916602001820160405280156113415781602001600182028036833780820191505090505b5090507f3000000000000000000000000000000000000000000000000000000000000000816000815181106113795761137861228c565b5b60200101907effffffffffffffffffffffffffffffffffffffffffffffffffffffffffffff1916908160001a9053507f7800000000000000000000000000000000000000000000000000000000000000816001815181106113dd576113dc61228c565b5b60200101907effffffffffffffffffffffffffffffffffffffffffffffffffffffffffffff1916908160001a9053506000600184600261141d9190611fdc565b6114279190611f55565b90505b60018111156114c7577f3031323334353637383961626364656600000000000000000000000000000000600f8616601081106114695761146861228c565b5b1a60f81b8282815181106114805761147f61228c565b5b60200101907effffffffffffffffffffffffffffffffffffffffffffffffffffffffffffff1916908160001a905350600485901c9450806114c09061212a565b905061142a565b506000841461150b576040517f08c379a000000000000000000000000000000000000000000000000000000000815260040161150290611d97565b60405180910390fd5b8091505092915050565b600061152861152384611e40565b611e1b565b9050808382526020820190508285602086028201111561154b5761154a6122f4565b5b60005b8581101561157b578161156188826116c5565b84526020840193506020830192505060018101905061154e565b5050509392505050565b600061159861159384611e6c565b611e1b565b905080838252602082019050828560208602820111156115bb576115ba6122f4565b5b60005b8581101561160957813567ffffffffffffffff8111156115e1576115e06122ef565b5b8086016115ee89826117e4565b855260208501945060208401935050506001810190506115be565b5050509392505050565b600061162661162184611e98565b611e1b565b90508083825260208201905082856020860282011115611649576116486122f4565b5b60005b85811015611679578161165f8882611812565b84526020840193506020830192505060018101905061164c565b5050509392505050565b600061169661169184611ec4565b611e1b565b9050828152602081018484840111156116b2576116b16122f9565b5b6116bd8482856120e8565b509392505050565b6000813590506116d4816123e3565b92915050565b600082601f8301126116ef576116ee6122ef565b5b81356116ff848260208601611515565b91505092915050565b600082601f83011261171d5761171c6122ef565b5b813561172d848260208601611585565b91505092915050565b600082601f83011261174b5761174a6122ef565b5b813561175b848260208601611613565b91505092915050565b600081359050611773816123fa565b92915050565b60008135905061178881612411565b92915050565b60008083601f8401126117a4576117a36122ef565b5b8235905067ffffffffffffffff8111156117c1576117c06122ea565b5b6020830191508360018202830111156117dd576117dc6122f4565b5b9250929050565b600082601f8301126117f9576117f86122ef565b5b8135611809848260208601611683565b91505092915050565b60008135905061182181612428565b92915050565b6000806000606084860312156118405761183f612303565b5b600084013567ffffffffffffffff81111561185e5761185d6122fe565b5b61186a868287016116da565b935050602084013567ffffffffffffffff81111561188b5761188a6122fe565b5b61189786828701611708565b925050604084013567ffffffffffffffff8111156118b8576118b76122fe565b5b6118c486828701611736565b9150509250925092565b6000602082840312156118e4576118e3612303565b5b60006118f284828501611764565b91505092915050565b6000806040838503121561191257611911612303565b5b600061192085828601611764565b9250506020611931858286016116c5565b9150509250929050565b6000806040838503121561195257611951612303565b5b600061196085828601611764565b925050602061197185828601611812565b9150509250929050565b60006020828403121561199157611990612303565b5b600061199f84828501611779565b91505092915050565b600080602083850312156119bf576119be612303565b5b600083013567ffffffffffffffff8111156119dd576119dc6122fe565b5b6119e98582860161178e565b92509250509250929050565b600080600060408486031215611a0e57611a0d612303565b5b600084013567ffffffffffffffff811115611a2c57611a2b6122fe565b5b611a388682870161178e565b93509350506020611a4b86828701611812565b9150509250925092565b600060208284031215611a6b57611a6a612303565b5b600082013567ffffffffffffffff811115611a8957611a886122fe565b5b611a95848285016117e4565b91505092915050565b60008060408385031215611ab557611ab4612303565b5b600083013567ffffffffffffffff811115611ad357611ad26122fe565b5b611adf858286016117e4565b9250506020611af0858286016116c5565b9150509250929050565b6000611b068383611c93565b60208301905092915050565b611b1b8161206a565b82525050565b6000611b2c82611f05565b611b368185611f28565b9350611b4183611ef5565b8060005b83811015611b72578151611b598882611afa565b9750611b6483611f1b565b925050600181019050611b45565b5085935050505092915050565b611b888161207c565b82525050565b611b9781612088565b82525050565b6000611ba882611f10565b611bb28185611f39565b9350611bc28185602086016120f7565b611bcb81612308565b840191505092915050565b6000611be182611f10565b611beb8185611f4a565b9350611bfb8185602086016120f7565b80840191505092915050565b6000611c14602083611f39565b9150611c1f82612319565b602082019050919050565b6000611c37601783611f4a565b9150611c4282612342565b601782019050919050565b6000611c5a601183611f4a565b9150611c658261236b565b601182019050919050565b6000611c7d602f83611f39565b9150611c8882612394565b604082019050919050565b611c9c816120de565b82525050565b611cab816120de565b82525050565b6000611cbd8284611bd6565b915081905092915050565b6000611cd382611c2a565b9150611cdf8285611bd6565b9150611cea82611c4d565b9150611cf68284611bd6565b91508190509392505050565b6000602082019050611d176000830184611b12565b92915050565b60006020820190508181036000830152611d378184611b21565b905092915050565b6000602082019050611d546000830184611b7f565b92915050565b6000602082019050611d6f6000830184611b8e565b92915050565b60006020820190508181036000830152611d8f8184611b9d565b905092915050565b60006020820190508181036000830152611db081611c07565b9050919050565b60006020820190508181036000830152611dd081611c70565b9050919050565b6000602082019050611dec6000830184611ca2565b92915050565b6000604082019050611e076000830185611ca2565b611e146020830184611ca2565b9392505050565b6000611e25611e36565b9050611e318282612154565b919050565b6000604051905090565b600067ffffffffffffffff821115611e5b57611e5a6122bb565b5b602082029050602081019050919050565b600067ffffffffffffffff821115611e8757611e866122bb565b5b602082029050602081019050919050565b600067ffffffffffffffff821115611eb357611eb26122bb565b5b602082029050602081019050919050565b600067ffffffffffffffff821115611edf57611ede6122bb565b5b611ee882612308565b9050602081019050919050565b6000819050602082019050919050565b600081519050919050565b600081519050919050565b6000602082019050919050565b600082825260208201905092915050565b600082825260208201905092915050565b600081905092915050565b6000611f60826120de565b9150611f6b836120de565b9250827fffffffffffffffffffffffffffffffffffffffffffffffffffffffffffffffff03821115611fa057611f9f6121ff565b5b828201905092915050565b6000611fb6826120de565b9150611fc1836120de565b925082611fd157611fd061222e565b5b828204905092915050565b6000611fe7826120de565b9150611ff2836120de565b9250817fffffffffffffffffffffffffffffffffffffffffffffffffffffffffffffffff048311821515161561202b5761202a6121ff565b5b828202905092915050565b6000612041826120de565b915061204c836120de565b92508282101561205f5761205e6121ff565b5b828203905092915050565b6000612075826120be565b9050919050565b60008115159050919050565b6000819050919050565b60007fffffffff0000000000000000000000000000000000000000000000000000000082169050919050565b600073ffffffffffffffffffffffffffffffffffffffff82169050919050565b6000819050919050565b82818337600083830152505050565b60005b838110156121155780820151818401526020810190506120fa565b83811115612124576000848401525b50505050565b6000612135826120de565b91506000821415612149576121486121ff565b5b600182039050919050565b61215d82612308565b810181811067ffffffffffffffff8211171561217c5761217b6122bb565b5b80604052505050565b6000612190826120de565b91507fffffffffffffffffffffffffffffffffffffffffffffffffffffffffffffffff8214156121c3576121c26121ff565b5b600182019050919050565b60006121d9826120de565b91506121e4836120de565b9250826121f4576121f361222e565b5b828206905092915050565b7f4e487b7100000000000000000000000000000000000000000000000000000000600052601160045260246000fd5b7f4e487b7100000000000000000000000000000000000000000000000000000000600052601260045260246000fd5b7f4e487b7100000000000000000000000000000000000000000000000000000000600052603160045260246000fd5b7f4e487b7100000000000000000000000000000000000000000000000000000000600052603260045260246000fd5b7f4e487b7100000000000000000000000000000000000000000000000000000000600052604160045260246000fd5b600080fd5b600080fd5b600080fd5b600080fd5b600080fd5b600080fd5b6000601f19601f8301169050919050565b7f537472696e67733a20686578206c656e67746820696e73756666696369656e74600082015250565b7f416363657373436f6e74726f6c3a206163636f756e7420000000000000000000600082015250565b7f206973206d697373696e6720726f6c6520000000000000000000000000000000600082015250565b7f416363657373436f6e74726f6c3a2063616e206f6e6c792072656e6f756e636560008201527f20726f6c657320666f722073656c660000000000000000000000000000000000602082015250565b6123ec8161206a565b81146123f757600080fd5b50565b61240381612088565b811461240e57600080fd5b50565b61241a81612092565b811461242557600080fd5b50565b612431816120de565b811461243c57600080fd5b5056fea264697066735822122006afdd61c5794abb55936a5fef392cf875863d05f1754b0e18bd1e7b98f8ae4564736f6c63430008070033",
  "linkReferences": {},
  "deployedLinkReferences": {}
}