{
  "_format": "hh-sol-artifact-1",
  "contractName": "ClimberVault",
  "sourceName": "contracts/climber/ClimberVault.sol",
  "abi": [
    {
      "inputs": [],
      "stateMutability": "nonpayable",
      "type": "constructor"
    },
    {
      "anonymous": false,
      "inputs": [
        {
          "indexed": false,
          "internalType": "address",
          "name": "previousAdmin",
          "type": "address"
        },
        {
          "indexed": false,
          "internalType": "address",
          "name": "newAdmin",
          "type": "address"
        }
      ],
      "name": "AdminChanged",
      "type": "event"
    },
    {
      "anonymous": false,
      "inputs": [
        {
          "indexed": true,
          "internalType": "address",
          "name": "beacon",
          "type": "address"
        }
      ],
      "name": "BeaconUpgraded",
      "type": "event"
    },
    {
      "anonymous": false,
      "inputs": [
        {
          "indexed": true,
          "internalType": "address",
          "name": "previousOwner",
          "type": "address"
        },
        {
          "indexed": true,
          "internalType": "address",
          "name": "newOwner",
          "type": "address"
        }
      ],
      "name": "OwnershipTransferred",
      "type": "event"
    },
    {
      "anonymous": false,
      "inputs": [
        {
          "indexed": true,
          "internalType": "address",
          "name": "implementation",
          "type": "address"
        }
      ],
      "name": "Upgraded",
      "type": "event"
    },
    {
      "inputs": [],
      "name": "WAITING_PERIOD",
      "outputs": [
        {
          "internalType": "uint256",
          "name": "",
          "type": "uint256"
        }
      ],
      "stateMutability": "view",
      "type": "function"
    },
    {
      "inputs": [],
      "name": "WITHDRAWAL_LIMIT",
      "outputs": [
        {
          "internalType": "uint256",
          "name": "",
          "type": "uint256"
        }
      ],
      "stateMutability": "view",
      "type": "function"
    },
    {
      "inputs": [],
      "name": "getLastWithdrawalTimestamp",
      "outputs": [
        {
          "internalType": "uint256",
          "name": "",
          "type": "uint256"
        }
      ],
      "stateMutability": "view",
      "type": "function"
    },
    {
      "inputs": [],
      "name": "getSweeper",
      "outputs": [
        {
          "internalType": "address",
          "name": "",
          "type": "address"
        }
      ],
      "stateMutability": "view",
      "type": "function"
    },
    {
      "inputs": [
        {
          "internalType": "address",
          "name": "admin",
          "type": "address"
        },
        {
          "internalType": "address",
          "name": "proposer",
          "type": "address"
        },
        {
          "internalType": "address",
          "name": "sweeper",
          "type": "address"
        }
      ],
      "name": "initialize",
      "outputs": [],
      "stateMutability": "nonpayable",
      "type": "function"
    },
    {
      "inputs": [],
      "name": "owner",
      "outputs": [
        {
          "internalType": "address",
          "name": "",
          "type": "address"
        }
      ],
      "stateMutability": "view",
      "type": "function"
    },
    {
      "inputs": [],
      "name": "renounceOwnership",
      "outputs": [],
      "stateMutability": "nonpayable",
      "type": "function"
    },
    {
      "inputs": [
        {
          "internalType": "address",
          "name": "tokenAddress",
          "type": "address"
        }
      ],
      "name": "sweepFunds",
      "outputs": [],
      "stateMutability": "nonpayable",
      "type": "function"
    },
    {
      "inputs": [
        {
          "internalType": "address",
          "name": "newOwner",
          "type": "address"
        }
      ],
      "name": "transferOwnership",
      "outputs": [],
      "stateMutability": "nonpayable",
      "type": "function"
    },
    {
      "inputs": [
        {
          "internalType": "address",
          "name": "newImplementation",
          "type": "address"
        }
      ],
      "name": "upgradeTo",
      "outputs": [],
      "stateMutability": "nonpayable",
      "type": "function"
    },
    {
      "inputs": [
        {
          "internalType": "address",
          "name": "newImplementation",
          "type": "address"
        },
        {
          "internalType": "bytes",
          "name": "data",
          "type": "bytes"
        }
      ],
      "name": "upgradeToAndCall",
      "outputs": [],
      "stateMutability": "payable",
      "type": "function"
    },
    {
      "inputs": [
        {
          "internalType": "address",
          "name": "tokenAddress",
          "type": "address"
        },
        {
          "internalType": "address",
          "name": "recipient",
          "type": "address"
        },
        {
          "internalType": "uint256",
          "name": "amount",
          "type": "uint256"
        }
      ],
      "name": "withdraw",
      "outputs": [],
      "stateMutability": "nonpayable",
      "type": "function"
    }
  ],
  "bytecode": "0x60a06040523073ffffffffffffffffffffffffffffffffffffffff1660809073ffffffffffffffffffffffffffffffffffffffff1660601b8152503480156200004757600080fd5b50600060019054906101000a900460ff16806200006f575060008054906101000a900460ff16155b620000b1576040517f08c379a0000000000000000000000000000000000000000000000000000000008152600401620000a89062000152565b60405180910390fd5b60008060019054906101000a900460ff16159050801562000102576001600060016101000a81548160ff02191690831515021790555060016000806101000a81548160ff0219169083151502179055505b8015620001245760008060016101000a81548160ff0219169083151502179055505b50620001d4565b60006200013a602e8362000174565b9150620001478262000185565b604082019050919050565b600060208201905081810360008301526200016d816200012b565b9050919050565b600082825260208201905092915050565b7f496e697469616c697a61626c653a20636f6e747261637420697320616c72656160008201527f647920696e697469616c697a6564000000000000000000000000000000000000602082015250565b60805160601c614e9c62000208600039600081816104f80152818161058a0152818161069101526107230152614e9c6000f3fe608060405260043610620000b65760003560e01c806382ee0d1d116200006d57806382ee0d1d14620001b15780638da5cb5b14620001e1578063c0c53b8b1462000211578063d9caed12146200023f578063deb0f070146200026d578063f2fde38b146200029d57620000b6565b80630fe2890814620000bb578063266df78214620000e95780633659cfe614620001195780634f1ef28614620001475780636f85c7e41462000167578063715018a61462000197575b600080fd5b348015620000c857600080fd5b50620000e76004803603810190620000e1919062001a13565b620002cb565b005b348015620000f657600080fd5b5062000101620004ec565b60405162000110919062002081565b60405180910390f35b3480156200012657600080fd5b506200014560048036038101906200013f919062001a13565b620004f6565b005b6200016560048036038101906200015f919062001afd565b6200068f565b005b3480156200017457600080fd5b506200017f620007d8565b6040516200018e919062002081565b60405180910390f35b348015620001a457600080fd5b50620001af620007df565b005b348015620001be57600080fd5b50620001c962000870565b604051620001d8919062002081565b60405180910390f35b348015620001ee57600080fd5b50620001f96200087c565b60405162000208919062001e4e565b60405180910390f35b3480156200021e57600080fd5b506200023d600480360381019062000237919062001a45565b620008a6565b005b3480156200024c57600080fd5b506200026b600480360381019062000265919062001aa1565b620009fe565b005b3480156200027a57600080fd5b506200028562000c11565b60405162000294919062001e4e565b60405180910390f35b348015620002aa57600080fd5b50620002c96004803603810190620002c3919062001a13565b62000c3b565b005b60ca60009054906101000a900473ffffffffffffffffffffffffffffffffffffffff1673ffffffffffffffffffffffffffffffffffffffff163373ffffffffffffffffffffffffffffffffffffffff16146200035e576040517f08c379a000000000000000000000000000000000000000000000000000000000815260040162000355906200205f565b60405180910390fd5b60008190508073ffffffffffffffffffffffffffffffffffffffff1663a9059cbb60ca60009054906101000a900473ffffffffffffffffffffffffffffffffffffffff168373ffffffffffffffffffffffffffffffffffffffff166370a08231306040518263ffffffff1660e01b8152600401620003dd919062001e4e565b60206040518083038186803b158015620003f657600080fd5b505afa1580156200040b573d6000803e3d6000fd5b505050506040513d601f19601f8201168201806040525081019062000431919062001b95565b6040518363ffffffff1660e01b81526004016200045092919062001e98565b602060405180830381600087803b1580156200046b57600080fd5b505af115801562000480573d6000803e3d6000fd5b505050506040513d601f19601f82011682018060405250810190620004a6919062001b63565b620004e8576040517f08c379a0000000000000000000000000000000000000000000000000000000008152600401620004df9062001f2d565b60405180910390fd5b5050565b600060c954905090565b7f000000000000000000000000000000000000000000000000000000000000000073ffffffffffffffffffffffffffffffffffffffff163073ffffffffffffffffffffffffffffffffffffffff16141562000588576040517f08c379a00000000000000000000000000000000000000000000000000000000081526004016200057f9062001f71565b60405180910390fd5b7f000000000000000000000000000000000000000000000000000000000000000073ffffffffffffffffffffffffffffffffffffffff16620005c962000d3f565b73ffffffffffffffffffffffffffffffffffffffff161462000622576040517f08c379a0000000000000000000000000000000000000000000000000000000008152600401620006199062001fb5565b60405180910390fd5b6200062d8162000d98565b6200068c81600067ffffffffffffffff81111562000650576200064f62002280565b5b6040519080825280601f01601f191660200182016040528015620006835781602001600182028036833780820191505090505b50600062000e1e565b50565b7f000000000000000000000000000000000000000000000000000000000000000073ffffffffffffffffffffffffffffffffffffffff163073ffffffffffffffffffffffffffffffffffffffff16141562000721576040517f08c379a0000000000000000000000000000000000000000000000000000000008152600401620007189062001f71565b60405180910390fd5b7f000000000000000000000000000000000000000000000000000000000000000073ffffffffffffffffffffffffffffffffffffffff166200076262000d3f565b73ffffffffffffffffffffffffffffffffffffffff1614620007bb576040517f08c379a0000000000000000000000000000000000000000000000000000000008152600401620007b29062001fb5565b60405180910390fd5b620007c68262000d98565b620007d48282600162000e1e565b5050565b6213c68081565b620007e962001005565b73ffffffffffffffffffffffffffffffffffffffff16620008096200087c565b73ffffffffffffffffffffffffffffffffffffffff161462000862576040517f08c379a000000000000000000000000000000000000000000000000000000000815260040162000859906200201b565b60405180910390fd5b6200086e60006200100d565b565b670de0b6b3a764000081565b6000603360009054906101000a900473ffffffffffffffffffffffffffffffffffffffff16905090565b600060019054906101000a900460ff1680620008cd575060008054906101000a900460ff16155b6200090f576040517f08c379a0000000000000000000000000000000000000000000000000000000008152600401620009069062001fd7565b60405180910390fd5b60008060019054906101000a900460ff16159050801562000960576001600060016101000a81548160ff02191690831515021790555060016000806101000a81548160ff0219169083151502179055505b6200096a620010d3565b62000974620011c6565b620009b9848460405162000988906200192b565b6200099592919062001e6b565b604051809103906000f080158015620009b2573d6000803e3d6000fd5b5062000c3b565b620009c482620012b9565b620009cf42620012fd565b4260c9819055508015620009f85760008060016101000a81548160ff0219169083151502179055505b50505050565b62000a0862001005565b73ffffffffffffffffffffffffffffffffffffffff1662000a286200087c565b73ffffffffffffffffffffffffffffffffffffffff161462000a81576040517f08c379a000000000000000000000000000000000000000000000000000000000815260040162000a78906200201b565b60405180910390fd5b670de0b6b3a764000081111562000acf576040517f08c379a000000000000000000000000000000000000000000000000000000000815260040162000ac69062001f93565b60405180910390fd5b6213c68060c95462000ae291906200212f565b421162000b26576040517f08c379a000000000000000000000000000000000000000000000000000000000815260040162000b1d9062001f4f565b60405180910390fd5b62000b3142620012fd565b60008390508073ffffffffffffffffffffffffffffffffffffffff1663a9059cbb84846040518363ffffffff1660e01b815260040162000b7392919062001e98565b602060405180830381600087803b15801562000b8e57600080fd5b505af115801562000ba3573d6000803e3d6000fd5b505050506040513d601f19601f8201168201806040525081019062000bc9919062001b63565b62000c0b576040517f08c379a000000000000000000000000000000000000000000000000000000000815260040162000c029062001f2d565b60405180910390fd5b50505050565b600060ca60009054906101000a900473ffffffffffffffffffffffffffffffffffffffff16905090565b62000c4562001005565b73ffffffffffffffffffffffffffffffffffffffff1662000c656200087c565b73ffffffffffffffffffffffffffffffffffffffff161462000cbe576040517f08c379a000000000000000000000000000000000000000000000000000000000815260040162000cb5906200201b565b60405180910390fd5b600073ffffffffffffffffffffffffffffffffffffffff168173ffffffffffffffffffffffffffffffffffffffff16141562000d31576040517f08c379a000000000000000000000000000000000000000000000000000000000815260040162000d289062001f0b565b60405180910390fd5b62000d3c816200100d565b50565b600062000d6f7f360894a13ba1a3210667c828492db98dca3e2076cc3735a920a3ca505d382bbc60001b62001307565b60000160009054906101000a900473ffffffffffffffffffffffffffffffffffffffff16905090565b62000da262001005565b73ffffffffffffffffffffffffffffffffffffffff1662000dc26200087c565b73ffffffffffffffffffffffffffffffffffffffff161462000e1b576040517f08c379a000000000000000000000000000000000000000000000000000000000815260040162000e12906200201b565b60405180910390fd5b50565b600062000e2a62000d3f565b905062000e378462001311565b60008351118062000e455750815b1562000e595762000e578484620013d1565b505b600062000e897f4910fdfa16fed3260ed0e7147f7cc6da11a60208b5b9406d12a635614ffd914360001b620014c1565b90508060000160009054906101000a900460ff1662000ffe5760018160000160006101000a81548160ff02191690831515021790555062000f5a858360405160240162000ed7919062001e4e565b6040516020818303038152906040527f3659cfe6000000000000000000000000000000000000000000000000000000007bffffffffffffffffffffffffffffffffffffffffffffffffffffffff19166020820180517bffffffffffffffffffffffffffffffffffffffffffffffffffffffff8381831617835250505050620013d1565b5060008160000160006101000a81548160ff02191690831515021790555062000f8262000d3f565b73ffffffffffffffffffffffffffffffffffffffff168273ffffffffffffffffffffffffffffffffffffffff161462000ff2576040517f08c379a000000000000000000000000000000000000000000000000000000000815260040162000fe99062001ee9565b60405180910390fd5b62000ffd85620014cb565b5b5050505050565b600033905090565b6000603360009054906101000a900473ffffffffffffffffffffffffffffffffffffffff16905081603360006101000a81548173ffffffffffffffffffffffffffffffffffffffff021916908373ffffffffffffffffffffffffffffffffffffffff1602179055508173ffffffffffffffffffffffffffffffffffffffff168173ffffffffffffffffffffffffffffffffffffffff167f8be0079c531659141344cd1fd0a4f28419497f9722a3daafe3b4186f6b6457e060405160405180910390a35050565b600060019054906101000a900460ff1680620010fa575060008054906101000a900460ff16155b6200113c576040517f08c379a0000000000000000000000000000000000000000000000000000000008152600401620011339062001fd7565b60405180910390fd5b60008060019054906101000a900460ff1615905080156200118d576001600060016101000a81548160ff02191690831515021790555060016000806101000a81548160ff0219169083151502179055505b620011976200151c565b620011a1620015fb565b8015620011c35760008060016101000a81548160ff0219169083151502179055505b50565b600060019054906101000a900460ff1680620011ed575060008054906101000a900460ff16155b6200122f576040517f08c379a0000000000000000000000000000000000000000000000000000000008152600401620012269062001fd7565b60405180910390fd5b60008060019054906101000a900460ff16159050801562001280576001600060016101000a81548160ff02191690831515021790555060016000806101000a81548160ff0219169083151502179055505b6200128a620016ee565b62001294620017cd565b8015620012b65760008060016101000a81548160ff0219169083151502179055505b50565b8060ca60006101000a81548173ffffffffffffffffffffffffffffffffffffffff021916908373ffffffffffffffffffffffffffffffffffffffff16021790555050565b8060c98190555050565b6000819050919050565b6200131c81620018ac565b6200135e576040517f08c379a0000000000000000000000000000000000000000000000000000000008152600401620013559062001ff9565b60405180910390fd5b806200138d7f360894a13ba1a3210667c828492db98dca3e2076cc3735a920a3ca505d382bbc60001b62001307565b60000160006101000a81548173ffffffffffffffffffffffffffffffffffffffff021916908373ffffffffffffffffffffffffffffffffffffffff16021790555050565b6060620013de83620018ac565b62001420576040517f08c379a000000000000000000000000000000000000000000000000000000000815260040162001417906200203d565b60405180910390fd5b6000808473ffffffffffffffffffffffffffffffffffffffff16846040516200144a919062001e35565b600060405180830381855af49150503d806000811462001487576040519150601f19603f3d011682016040523d82523d6000602084013e6200148c565b606091505b5091509150620014b7828260405180606001604052806027815260200162004e4060279139620018bf565b9250505092915050565b6000819050919050565b620014d68162001311565b8073ffffffffffffffffffffffffffffffffffffffff167fbc7cd75a20ee27fd9adebab32041f755214dbc6bffa90cc0225b39da2e5c2d3b60405160405180910390a250565b600060019054906101000a900460ff168062001543575060008054906101000a900460ff16155b62001585576040517f08c379a00000000000000000000000000000000000000000000000000000000081526004016200157c9062001fd7565b60405180910390fd5b60008060019054906101000a900460ff161590508015620015d6576001600060016101000a81548160ff02191690831515021790555060016000806101000a81548160ff0219169083151502179055505b8015620015f85760008060016101000a81548160ff0219169083151502179055505b50565b600060019054906101000a900460ff168062001622575060008054906101000a900460ff16155b62001664576040517f08c379a00000000000000000000000000000000000000000000000000000000081526004016200165b9062001fd7565b60405180910390fd5b60008060019054906101000a900460ff161590508015620016b5576001600060016101000a81548160ff02191690831515021790555060016000806101000a81548160ff0219169083151502179055505b620016c9620016c362001005565b6200100d565b8015620016eb5760008060016101000a81548160ff0219169083151502179055505b50565b600060019054906101000a900460ff168062001715575060008054906101000a900460ff16155b62001757576040517f08c379a00000000000000000000000000000000000000000000000000000000081526004016200174e9062001fd7565b60405180910390fd5b60008060019054906101000a900460ff161590508015620017a8576001600060016101000a81548160ff02191690831515021790555060016000806101000a81548160ff0219169083151502179055505b8015620017ca5760008060016101000a81548160ff0219169083151502179055505b50565b600060019054906101000a900460ff1680620017f4575060008054906101000a900460ff16155b62001836576040517f08c379a00000000000000000000000000000000000000000000000000000000081526004016200182d9062001fd7565b60405180910390fd5b60008060019054906101000a900460ff16159050801562001887576001600060016101000a81548160ff02191690831515021790555060016000806101000a81548160ff0219169083151502179055505b8015620018a95760008060016101000a81548160ff0219169083151502179055505b50565b600080823b905060008111915050919050565b60608315620018d15782905062001924565b600083511115620018e55782518084602001fd5b816040517f08c379a00000000000000000000000000000000000000000000000000000000081526004016200191b919062001ec5565b60405180910390fd5b9392505050565b612827806200261983390190565b6000620019506200194a84620020c7565b6200209e565b9050828152602081018484840111156200196f576200196e620022b4565b5b6200197c848285620021d6565b509392505050565b6000813590506200199581620025ca565b92915050565b600081519050620019ac81620025e4565b92915050565b600082601f830112620019ca57620019c9620022af565b5b8135620019dc84826020860162001939565b91505092915050565b600081359050620019f681620025fe565b92915050565b60008151905062001a0d81620025fe565b92915050565b60006020828403121562001a2c5762001a2b620022be565b5b600062001a3c8482850162001984565b91505092915050565b60008060006060848603121562001a615762001a60620022be565b5b600062001a718682870162001984565b935050602062001a848682870162001984565b925050604062001a978682870162001984565b9150509250925092565b60008060006060848603121562001abd5762001abc620022be565b5b600062001acd8682870162001984565b935050602062001ae08682870162001984565b925050604062001af386828701620019e5565b9150509250925092565b6000806040838503121562001b175762001b16620022be565b5b600062001b278582860162001984565b925050602083013567ffffffffffffffff81111562001b4b5762001b4a620022b9565b5b62001b5985828601620019b2565b9150509250929050565b60006020828403121562001b7c5762001b7b620022be565b5b600062001b8c848285016200199b565b91505092915050565b60006020828403121562001bae5762001bad620022be565b5b600062001bbe84828501620019fc565b91505092915050565b62001bd2816200218c565b82525050565b600062001be582620020fd565b62001bf1818562002113565b935062001c03818560208601620021e5565b80840191505092915050565b600062001c1c8262002108565b62001c2881856200211e565b935062001c3a818560208601620021e5565b62001c4581620022c3565b840191505092915050565b600062001c5f602f836200211e565b915062001c6c82620022d4565b604082019050919050565b600062001c866026836200211e565b915062001c938262002323565b604082019050919050565b600062001cad600f836200211e565b915062001cba8262002372565b602082019050919050565b600062001cd46009836200211e565b915062001ce1826200239b565b602082019050919050565b600062001cfb602c836200211e565b915062001d0882620023c4565b604082019050919050565b600062001d226014836200211e565b915062001d2f8262002413565b602082019050919050565b600062001d49602c836200211e565b915062001d56826200243c565b604082019050919050565b600062001d70602e836200211e565b915062001d7d826200248b565b604082019050919050565b600062001d97602d836200211e565b915062001da482620024da565b604082019050919050565b600062001dbe6020836200211e565b915062001dcb8262002529565b602082019050919050565b600062001de56026836200211e565b915062001df28262002552565b604082019050919050565b600062001e0c6016836200211e565b915062001e1982620025a1565b602082019050919050565b62001e2f81620021cc565b82525050565b600062001e43828462001bd8565b915081905092915050565b600060208201905062001e65600083018462001bc7565b92915050565b600060408201905062001e82600083018562001bc7565b62001e91602083018462001bc7565b9392505050565b600060408201905062001eaf600083018562001bc7565b62001ebe602083018462001e24565b9392505050565b6000602082019050818103600083015262001ee1818462001c0f565b905092915050565b6000602082019050818103600083015262001f048162001c50565b9050919050565b6000602082019050818103600083015262001f268162001c77565b9050919050565b6000602082019050818103600083015262001f488162001c9e565b9050919050565b6000602082019050818103600083015262001f6a8162001cc5565b9050919050565b6000602082019050818103600083015262001f8c8162001cec565b9050919050565b6000602082019050818103600083015262001fae8162001d13565b9050919050565b6000602082019050818103600083015262001fd08162001d3a565b9050919050565b6000602082019050818103600083015262001ff28162001d61565b9050919050565b60006020820190508181036000830152620020148162001d88565b9050919050565b60006020820190508181036000830152620020368162001daf565b9050919050565b60006020820190508181036000830152620020588162001dd6565b9050919050565b600060208201905081810360008301526200207a8162001dfd565b9050919050565b600060208201905062002098600083018462001e24565b92915050565b6000620020aa620020bd565b9050620020b882826200221b565b919050565b6000604051905090565b600067ffffffffffffffff821115620020e557620020e462002280565b5b620020f082620022c3565b9050602081019050919050565b600081519050919050565b600081519050919050565b600081905092915050565b600082825260208201905092915050565b60006200213c82620021cc565b91506200214983620021cc565b9250827fffffffffffffffffffffffffffffffffffffffffffffffffffffffffffffffff0382111562002181576200218062002251565b5b828201905092915050565b60006200219982620021ac565b9050919050565b60008115159050919050565b600073ffffffffffffffffffffffffffffffffffffffff82169050919050565b6000819050919050565b82818337600083830152505050565b60005b8381101562002205578082015181840152602081019050620021e8565b8381111562002215576000848401525b50505050565b6200222682620022c3565b810181811067ffffffffffffffff8211171562002248576200224762002280565b5b80604052505050565b7f4e487b7100000000000000000000000000000000000000000000000000000000600052601160045260246000fd5b7f4e487b7100000000000000000000000000000000000000000000000000000000600052604160045260246000fd5b600080fd5b600080fd5b600080fd5b600080fd5b6000601f19601f8301169050919050565b7f45524331393637557067726164653a207570677261646520627265616b73206660008201527f7572746865722075706772616465730000000000000000000000000000000000602082015250565b7f4f776e61626c653a206e6577206f776e657220697320746865207a65726f206160008201527f6464726573730000000000000000000000000000000000000000000000000000602082015250565b7f5472616e73666572206661696c65640000000000000000000000000000000000600082015250565b7f547279206c617465720000000000000000000000000000000000000000000000600082015250565b7f46756e6374696f6e206d7573742062652063616c6c6564207468726f7567682060008201527f64656c656761746563616c6c0000000000000000000000000000000000000000602082015250565b7f5769746864726177696e6720746f6f206d756368000000000000000000000000600082015250565b7f46756e6374696f6e206d7573742062652063616c6c6564207468726f7567682060008201527f6163746976652070726f78790000000000000000000000000000000000000000602082015250565b7f496e697469616c697a61626c653a20636f6e747261637420697320616c72656160008201527f647920696e697469616c697a6564000000000000000000000000000000000000602082015250565b7f455243313936373a206e657720696d706c656d656e746174696f6e206973206e60008201527f6f74206120636f6e747261637400000000000000000000000000000000000000602082015250565b7f4f776e61626c653a2063616c6c6572206973206e6f7420746865206f776e6572600082015250565b7f416464726573733a2064656c65676174652063616c6c20746f206e6f6e2d636f60008201527f6e74726163740000000000000000000000000000000000000000000000000000602082015250565b7f43616c6c6572206d757374206265207377656570657200000000000000000000600082015250565b620025d5816200218c565b8114620025e157600080fd5b50565b620025ef81620021a0565b8114620025fb57600080fd5b50565b6200260981620021cc565b81146200261557600080fd5b5056fe6080604052610e10600260006101000a81548167ffffffffffffffff021916908367ffffffffffffffff1602179055503480156200003c57600080fd5b506040516200282738038062002827833981810160405281019062000062919062000396565b620000947fa49807205ce4d355092ef5a8a18f56e8913cf4a201fbe287825b095693c21775806200018460201b60201c565b620000e67fb09aa5aeb3702cfd50b6b62bc4532604938f21248a27a1d5ca736082b6819cc17fa49807205ce4d355092ef5a8a18f56e8913cf4a201fbe287825b095693c217756200018460201b60201c565b620001187fa49807205ce4d355092ef5a8a18f56e8913cf4a201fbe287825b095693c2177583620001e760201b60201c565b6200014a7fa49807205ce4d355092ef5a8a18f56e8913cf4a201fbe287825b095693c2177530620001e760201b60201c565b6200017c7fb09aa5aeb3702cfd50b6b62bc4532604938f21248a27a1d5ca736082b6819cc182620001e760201b60201c565b505062000430565b60006200019783620001fd60201b60201c565b905081600080858152602001908152602001600020600101819055508181847fbd79b86ffe0ab8e8776151514217cd7cacd52c909f66475c3af44e129f0b00ff60405160405180910390a4505050565b620001f982826200021c60201b60201c565b5050565b6000806000838152602001908152602001600020600101549050919050565b6200022e82826200030d60201b60201c565b6200030957600160008084815260200190815260200160002060000160008373ffffffffffffffffffffffffffffffffffffffff1673ffffffffffffffffffffffffffffffffffffffff16815260200190815260200160002060006101000a81548160ff021916908315150217905550620002ae6200037760201b60201c565b73ffffffffffffffffffffffffffffffffffffffff168173ffffffffffffffffffffffffffffffffffffffff16837f2f8788117e7eff1d82e926ec794901d17c78024a50270940304540a733656f0d60405160405180910390a45b5050565b600080600084815260200190815260200160002060000160008373ffffffffffffffffffffffffffffffffffffffff1673ffffffffffffffffffffffffffffffffffffffff16815260200190815260200160002060009054906101000a900460ff16905092915050565b600033905090565b600081519050620003908162000416565b92915050565b60008060408385031215620003b057620003af62000411565b5b6000620003c0858286016200037f565b9250506020620003d3858286016200037f565b9150509250929050565b6000620003ea82620003f1565b9050919050565b600073ffffffffffffffffffffffffffffffffffffffff82169050919050565b600080fd5b6200042181620003dd565b81146200042d57600080fd5b50565b6123e780620004406000396000f3fe6080604052600436106100f75760003560e01c806375b238fc1161008a57806391d148541161005957806391d1485414610338578063a217fddf14610375578063c74f349b146103a0578063d547741f146103df576100fe565b806375b238fc1461027c5780637958004c146102a75780638f61f4f5146102e457806390bd1e6d1461030f576100fe565b80632f2ff15d116100c65780632f2ff15d146101c257806336568abe146101eb57806357f525ed146102145780636a42b8f814610251576100fe565b806301ffc9a714610103578063248a9ca31461014057806324adbc5b1461017d5780632656227d146101a6576100fe565b366100fe57005b600080fd5b34801561010f57600080fd5b5061012a600480360381019061012591906115b7565b610408565b6040516101379190611a90565b60405180910390f35b34801561014c57600080fd5b506101676004803603810190610162919061154a565b610482565b6040516101749190611aab565b60405180910390f35b34801561018957600080fd5b506101a4600480360381019061019f91906115e4565b6104a1565b005b6101c060048036038101906101bb9190611481565b61058b565b005b3480156101ce57600080fd5b506101e960048036038101906101e49190611577565b61077a565b005b3480156101f757600080fd5b50610212600480360381019061020d9190611577565b6107a3565b005b34801561022057600080fd5b5061023b60048036038101906102369190611481565b610826565b6040516102489190611aab565b60405180910390f35b34801561025d57600080fd5b50610266610868565b6040516102739190611c03565b60405180910390f35b34801561028857600080fd5b50610291610882565b60405161029e9190611aab565b60405180910390f35b3480156102b357600080fd5b506102ce60048036038101906102c9919061154a565b6108a6565b6040516102db9190611ac6565b60405180910390f35b3480156102f057600080fd5b506102f9610990565b6040516103069190611aab565b60405180910390f35b34801561031b57600080fd5b5061033660048036038101906103319190611481565b6109b4565b005b34801561034457600080fd5b5061035f600480360381019061035a9190611577565b610b43565b60405161036c9190611a90565b60405180910390f35b34801561038157600080fd5b5061038a610bad565b6040516103979190611aab565b60405180910390f35b3480156103ac57600080fd5b506103c760048036038101906103c2919061154a565b610bb4565b6040516103d693929190611c1e565b60405180910390f35b3480156103eb57600080fd5b5061040660048036038101906104019190611577565b610c0c565b005b60007f7965db0b000000000000000000000000000000000000000000000000000000007bffffffffffffffffffffffffffffffffffffffffffffffffffffffff1916827bffffffffffffffffffffffffffffffffffffffffffffffffffffffff1916148061047b575061047a82610c35565b5b9050919050565b6000806000838152602001908152602001600020600101549050919050565b3073ffffffffffffffffffffffffffffffffffffffff163373ffffffffffffffffffffffffffffffffffffffff161461050f576040517f08c379a000000000000000000000000000000000000000000000000000000000815260040161050690611b43565b60405180910390fd5b621275008167ffffffffffffffff16111561055f576040517f08c379a000000000000000000000000000000000000000000000000000000000815260040161055690611b83565b60405180910390fd5b80600260006101000a81548167ffffffffffffffff021916908367ffffffffffffffff16021790555050565b600087879050116105d1576040517f08c379a00000000000000000000000000000000000000000000000000000000081526004016105c890611b23565b60405180910390fd5b8484905087879050146105e357600080fd5b8282905087879050146105f557600080fd5b600061060688888888888888610826565b905060005b888890508160ff161015610708576106f485858360ff1681811061063257610631612087565b5b90506020028101906106449190611c55565b8080601f016020809104026020016040519081016040528093929190818152602001838380828437600081840152601f19601f8201169050808301925050505050505088888460ff1681811061069d5761069c612087565b5b905060200201358b8b8560ff168181106106ba576106b9612087565b5b90506020020160208101906106cf9190611454565b73ffffffffffffffffffffffffffffffffffffffff16610c9f9092919063ffffffff16565b50808061070090611fff565b91505061060b565b506002600381111561071d5761071c612058565b5b610726826108a6565b600381111561073857610737612058565b5b1461074257600080fd5b600180600083815260200190815260200160002060000160096101000a81548160ff0219169083151502179055505050505050505050565b61078382610482565b6107948161078f610cce565b610cd6565b61079e8383610d73565b505050565b6107ab610cce565b73ffffffffffffffffffffffffffffffffffffffff168173ffffffffffffffffffffffffffffffffffffffff1614610818576040517f08c379a000000000000000000000000000000000000000000000000000000000815260040161080f90611bc3565b60405180910390fd5b6108228282610e53565b5050565b6000878787878787876040516020016108459796959493929190611a30565b604051602081830303815290604052805190602001209050979650505050505050565b600260009054906101000a900467ffffffffffffffff1681565b7fa49807205ce4d355092ef5a8a18f56e8913cf4a201fbe287825b095693c2177581565b600080600160008481526020019081526020016000206040518060600160405290816000820160009054906101000a900467ffffffffffffffff1667ffffffffffffffff1667ffffffffffffffff1681526020016000820160089054906101000a900460ff161515151581526020016000820160099054906101000a900460ff161515151581525050905080604001511561094557600391505061098b565b42816000015167ffffffffffffffff161061096457600291505061098b565b6000816000015167ffffffffffffffff16111561098557600191505061098b565b60009150505b919050565b7fb09aa5aeb3702cfd50b6b62bc4532604938f21248a27a1d5ca736082b6819cc181565b7fb09aa5aeb3702cfd50b6b62bc4532604938f21248a27a1d5ca736082b6819cc16109e6816109e1610cce565b610cd6565b6000888890501180156109fd575061010088889050105b610a0657600080fd5b858590508888905014610a1857600080fd5b838390508888905014610a2a57600080fd5b6000610a3b89898989898989610826565b905060006003811115610a5157610a50612058565b5b610a5a826108a6565b6003811115610a6c57610a6b612058565b5b14610aac576040517f08c379a0000000000000000000000000000000000000000000000000000000008152600401610aa390611be3565b60405180910390fd5b600260009054906101000a900467ffffffffffffffff1642610ace9190611e37565b6001600083815260200190815260200160002060000160006101000a81548167ffffffffffffffff021916908367ffffffffffffffff160217905550600180600083815260200190815260200160002060000160086101000a81548160ff021916908315150217905550505050505050505050565b600080600084815260200190815260200160002060000160008373ffffffffffffffffffffffffffffffffffffffff1673ffffffffffffffffffffffffffffffffffffffff16815260200190815260200160002060009054906101000a900460ff16905092915050565b6000801b81565b60016020528060005260406000206000915090508060000160009054906101000a900467ffffffffffffffff16908060000160089054906101000a900460ff16908060000160099054906101000a900460ff16905083565b610c1582610482565b610c2681610c21610cce565b610cd6565b610c308383610e53565b505050565b60007f01ffc9a7000000000000000000000000000000000000000000000000000000007bffffffffffffffffffffffffffffffffffffffffffffffffffffffff1916827bffffffffffffffffffffffffffffffffffffffffffffffffffffffff1916149050919050565b6060610cc584848460405180606001604052806029815260200161238960299139610f34565b90509392505050565b600033905090565b610ce08282610b43565b610d6f57610d058173ffffffffffffffffffffffffffffffffffffffff166014611048565b610d138360001c6020611048565b604051602001610d249291906119f6565b6040516020818303038152906040526040517f08c379a0000000000000000000000000000000000000000000000000000000008152600401610d669190611ae1565b60405180910390fd5b5050565b610d7d8282610b43565b610e4f57600160008084815260200190815260200160002060000160008373ffffffffffffffffffffffffffffffffffffffff1673ffffffffffffffffffffffffffffffffffffffff16815260200190815260200160002060006101000a81548160ff021916908315150217905550610df4610cce565b73ffffffffffffffffffffffffffffffffffffffff168173ffffffffffffffffffffffffffffffffffffffff16837f2f8788117e7eff1d82e926ec794901d17c78024a50270940304540a733656f0d60405160405180910390a45b5050565b610e5d8282610b43565b15610f3057600080600084815260200190815260200160002060000160008373ffffffffffffffffffffffffffffffffffffffff1673ffffffffffffffffffffffffffffffffffffffff16815260200190815260200160002060006101000a81548160ff021916908315150217905550610ed5610cce565b73ffffffffffffffffffffffffffffffffffffffff168173ffffffffffffffffffffffffffffffffffffffff16837ff6391f5c32d9c69d2a47ea670b442974b53935d1edc7fd64eb21e047a839171b60405160405180910390a45b5050565b606082471015610f79576040517f08c379a0000000000000000000000000000000000000000000000000000000008152600401610f7090611b63565b60405180910390fd5b610f8285611284565b610fc1576040517f08c379a0000000000000000000000000000000000000000000000000000000008152600401610fb890611ba3565b60405180910390fd5b6000808673ffffffffffffffffffffffffffffffffffffffff168587604051610fea91906119df565b60006040518083038185875af1925050503d8060008114611027576040519150601f19603f3d011682016040523d82523d6000602084013e61102c565b606091505b509150915061103c828286611297565b92505050949350505050565b60606000600283600261105b9190611e75565b6110659190611de1565b67ffffffffffffffff81111561107e5761107d6120b6565b5b6040519080825280601f01601f1916602001820160405280156110b05781602001600182028036833780820191505090505b5090507f3000000000000000000000000000000000000000000000000000000000000000816000815181106110e8576110e7612087565b5b60200101907effffffffffffffffffffffffffffffffffffffffffffffffffffffffffffff1916908160001a9053507f78000000000000000000000000000000000000000000000000000000000000008160018151811061114c5761114b612087565b5b60200101907effffffffffffffffffffffffffffffffffffffffffffffffffffffffffffff1916908160001a9053506000600184600261118c9190611e75565b6111969190611de1565b90505b6001811115611236577f3031323334353637383961626364656600000000000000000000000000000000600f8616601081106111d8576111d7612087565b5b1a60f81b8282815181106111ef576111ee612087565b5b60200101907effffffffffffffffffffffffffffffffffffffffffffffffffffffffffffff1916908160001a905350600485901c94508061122f90611fd5565b9050611199565b506000841461127a576040517f08c379a000000000000000000000000000000000000000000000000000000000815260040161127190611b03565b60405180910390fd5b8091505092915050565b600080823b905060008111915050919050565b606083156112a7578290506112f7565b6000835111156112ba5782518084602001fd5b816040517f08c379a00000000000000000000000000000000000000000000000000000000081526004016112ee9190611ae1565b60405180910390fd5b9392505050565b60008135905061130d8161232c565b92915050565b60008083601f840112611329576113286120ef565b5b8235905067ffffffffffffffff811115611346576113456120ea565b5b60208301915083602082028301111561136257611361612103565b5b9250929050565b60008083601f84011261137f5761137e6120ef565b5b8235905067ffffffffffffffff81111561139c5761139b6120ea565b5b6020830191508360208202830111156113b8576113b7612103565b5b9250929050565b60008083601f8401126113d5576113d46120ef565b5b8235905067ffffffffffffffff8111156113f2576113f16120ea565b5b60208301915083602082028301111561140e5761140d612103565b5b9250929050565b60008135905061142481612343565b92915050565b6000813590506114398161235a565b92915050565b60008135905061144e81612371565b92915050565b60006020828403121561146a5761146961211c565b5b6000611478848285016112fe565b91505092915050565b60008060008060008060006080888a0312156114a05761149f61211c565b5b600088013567ffffffffffffffff8111156114be576114bd61210d565b5b6114ca8a828b01611313565b9750975050602088013567ffffffffffffffff8111156114ed576114ec61210d565b5b6114f98a828b016113bf565b9550955050604088013567ffffffffffffffff81111561151c5761151b61210d565b5b6115288a828b01611369565b9350935050606061153b8a828b01611415565b91505092959891949750929550565b6000602082840312156115605761155f61211c565b5b600061156e84828501611415565b91505092915050565b6000806040838503121561158e5761158d61211c565b5b600061159c85828601611415565b92505060206115ad858286016112fe565b9150509250929050565b6000602082840312156115cd576115cc61211c565b5b60006115db8482850161142a565b91505092915050565b6000602082840312156115fa576115f961211c565b5b60006116088482850161143f565b91505092915050565b600061161d838361163f565b60208301905092915050565b600061163684848461179b565b90509392505050565b61164881611ecf565b82525050565b600061165a8385611cfc565b935061166582611cb8565b8060005b8581101561169e5761167b8284611d67565b6116858882611611565b975061169083611ce2565b925050600181019050611669565b5085925050509392505050565b60006116b78385611d0d565b9350836020840285016116c984611cc2565b8060005b8781101561170f5784840389526116e48284611d7e565b6116ef868284611629565b95506116fa84611cef565b935060208b019a5050506001810190506116cd565b50829750879450505050509392505050565b600061172d8385611d1e565b93507f07ffffffffffffffffffffffffffffffffffffffffffffffffffffffffffffff8311156117605761175f612112565b5b602083029250611771838584611f93565b82840190509392505050565b61178681611ee1565b82525050565b61179581611eed565b82525050565b60006117a78385611d2f565b93506117b4838584611f93565b6117bd83612121565b840190509392505050565b60006117d382611ccc565b6117dd8185611d40565b93506117ed818560208601611fa2565b80840191505092915050565b61180281611f81565b82525050565b600061181382611cd7565b61181d8185611d4b565b935061182d818560208601611fa2565b61183681612121565b840191505092915050565b600061184c82611cd7565b6118568185611d5c565b9350611866818560208601611fa2565b80840191505092915050565b600061187f602083611d4b565b915061188a82612132565b602082019050919050565b60006118a2602083611d4b565b91506118ad8261215b565b602082019050919050565b60006118c5601e83611d4b565b91506118d082612184565b602082019050919050565b60006118e8602683611d4b565b91506118f3826121ad565b604082019050919050565b600061190b601d83611d4b565b9150611916826121fc565b602082019050919050565b600061192e601d83611d4b565b915061193982612225565b602082019050919050565b6000611951601783611d5c565b915061195c8261224e565b601782019050919050565b6000611974601183611d5c565b915061197f82612277565b601182019050919050565b6000611997602f83611d4b565b91506119a2826122a0565b604082019050919050565b60006119ba601783611d4b565b91506119c5826122ef565b602082019050919050565b6119d981611f60565b82525050565b60006119eb82846117c8565b915081905092915050565b6000611a0182611944565b9150611a0d8285611841565b9150611a1882611967565b9150611a248284611841565b91508190509392505050565b60006080820190508181036000830152611a4b81898b61164e565b90508181036020830152611a60818789611721565b90508181036040830152611a758185876116ab565b9050611a84606083018461178c565b98975050505050505050565b6000602082019050611aa5600083018461177d565b92915050565b6000602082019050611ac0600083018461178c565b92915050565b6000602082019050611adb60008301846117f9565b92915050565b60006020820190508181036000830152611afb8184611808565b905092915050565b60006020820190508181036000830152611b1c81611872565b9050919050565b60006020820190508181036000830152611b3c81611895565b9050919050565b60006020820190508181036000830152611b5c816118b8565b9050919050565b60006020820190508181036000830152611b7c816118db565b9050919050565b60006020820190508181036000830152611b9c816118fe565b9050919050565b60006020820190508181036000830152611bbc81611921565b9050919050565b60006020820190508181036000830152611bdc8161198a565b9050919050565b60006020820190508181036000830152611bfc816119ad565b9050919050565b6000602082019050611c1860008301846119d0565b92915050565b6000606082019050611c3360008301866119d0565b611c40602083018561177d565b611c4d604083018461177d565b949350505050565b60008083356001602003843603038112611c7257611c716120f9565b5b80840192508235915067ffffffffffffffff821115611c9457611c936120f4565b5b602083019250600182023603831315611cb057611caf612108565b5b509250929050565b6000819050919050565b6000819050919050565b600081519050919050565b600081519050919050565b6000602082019050919050565b6000602082019050919050565b600082825260208201905092915050565b600082825260208201905092915050565b600082825260208201905092915050565b600082825260208201905092915050565b600081905092915050565b600082825260208201905092915050565b600081905092915050565b6000611d7660208401846112fe565b905092915050565b60008083356001602003843603038112611d9b57611d9a612117565b5b83810192508235915060208301925067ffffffffffffffff821115611dc357611dc26120e5565b5b600182023603841315611dd957611dd86120fe565b5b509250929050565b6000611dec82611f56565b9150611df783611f56565b9250827fffffffffffffffffffffffffffffffffffffffffffffffffffffffffffffffff03821115611e2c57611e2b612029565b5b828201905092915050565b6000611e4282611f60565b9150611e4d83611f60565b92508267ffffffffffffffff03821115611e6a57611e69612029565b5b828201905092915050565b6000611e8082611f56565b9150611e8b83611f56565b9250817fffffffffffffffffffffffffffffffffffffffffffffffffffffffffffffffff0483118215151615611ec457611ec3612029565b5b828202905092915050565b6000611eda82611f36565b9050919050565b60008115159050919050565b6000819050919050565b60007fffffffff0000000000000000000000000000000000000000000000000000000082169050919050565b6000819050611f3182612318565b919050565b600073ffffffffffffffffffffffffffffffffffffffff82169050919050565b6000819050919050565b600067ffffffffffffffff82169050919050565b600060ff82169050919050565b6000611f8c82611f23565b9050919050565b82818337600083830152505050565b60005b83811015611fc0578082015181840152602081019050611fa5565b83811115611fcf576000848401525b50505050565b6000611fe082611f56565b91506000821415611ff457611ff3612029565b5b600182039050919050565b600061200a82611f74565b915060ff82141561201e5761201d612029565b5b600182019050919050565b7f4e487b7100000000000000000000000000000000000000000000000000000000600052601160045260246000fd5b7f4e487b7100000000000000000000000000000000000000000000000000000000600052602160045260246000fd5b7f4e487b7100000000000000000000000000000000000000000000000000000000600052603260045260246000fd5b7f4e487b7100000000000000000000000000000000000000000000000000000000600052604160045260246000fd5b600080fd5b600080fd5b600080fd5b600080fd5b600080fd5b600080fd5b600080fd5b600080fd5b600080fd5b600080fd5b600080fd5b600080fd5b6000601f19601f8301169050919050565b7f537472696e67733a20686578206c656e67746820696e73756666696369656e74600082015250565b7f4d7573742070726f76696465206174206c65617374206f6e6520746172676574600082015250565b7f43616c6c6572206d7573742062652074696d656c6f636b20697473656c660000600082015250565b7f416464726573733a20696e73756666696369656e742062616c616e636520666f60008201527f722063616c6c0000000000000000000000000000000000000000000000000000602082015250565b7f44656c6179206d7573742062652031342064617973206f72206c657373000000600082015250565b7f416464726573733a2063616c6c20746f206e6f6e2d636f6e7472616374000000600082015250565b7f416363657373436f6e74726f6c3a206163636f756e7420000000000000000000600082015250565b7f206973206d697373696e6720726f6c6520000000000000000000000000000000600082015250565b7f416363657373436f6e74726f6c3a2063616e206f6e6c792072656e6f756e636560008201527f20726f6c657320666f722073656c660000000000000000000000000000000000602082015250565b7f4f7065726174696f6e20616c7265616479206b6e6f776e000000000000000000600082015250565b6004811061232957612328612058565b5b50565b61233581611ecf565b811461234057600080fd5b50565b61234c81611eed565b811461235757600080fd5b50565b61236381611ef7565b811461236e57600080fd5b50565b61237a81611f60565b811461238557600080fd5b5056fe416464726573733a206c6f772d6c6576656c2063616c6c20776974682076616c7565206661696c6564a2646970667358221220888de73800d77cf7c5bd2783eb8632c92e6ea806e77ba61a2eb2265f18478ed664736f6c63430008070033416464726573733a206c6f772d6c6576656c2064656c65676174652063616c6c206661696c6564a26469706673582212207381f235d447a4672420590db63bb8b998356ffd613d7a952c9b3e33fa1bf32764736f6c63430008070033",
  "linkReferences": {},
  "deployedLinkReferences": {}
}