{
  "_format": "hh-sol-artifact-1",
  "contractName": "ClimberTimelock",
  "sourceName": "contracts/climber/ClimberTimelock.sol",
  "abi": [
    {
      "inputs": [
        {
          "internalType": "address",
          "name": "admin",
          "type": "address"
        },
        {
          "internalType": "address",
          "name": "proposer",
          "type": "address"
        }
      ],
      "stateMutability": "nonpayable",
      "type": "constructor"
    },
    {
      "anonymous": false,
      "inputs": [
        {
          "indexed": true,
          "internalType": "bytes32",
          "name": "role",
          "type": "bytes32"
        },
        {
          "indexed": true,
          "internalType": "bytes32",
          "name": "previousAdminRole",
          "type": "bytes32"
        },
        {
          "indexed": true,
          "internalType": "bytes32",
          "name": "newAdminRole",
          "type": "bytes32"
        }
      ],
      "name": "RoleAdminChanged",
      "type": "event"
    },
    {
      "anonymous": false,
      "inputs": [
        {
          "indexed": true,
          "internalType": "bytes32",
          "name": "role",
          "type": "bytes32"
        },
        {
          "indexed": true,
          "internalType": "address",
          "name": "account",
          "type": "address"
        },
        {
          "indexed": true,
          "internalType": "address",
          "name": "sender",
          "type": "address"
        }
      ],
      "name": "RoleGranted",
      "type": "event"
    },
    {
      "anonymous": false,
      "inputs": [
        {
          "indexed": true,
          "internalType": "bytes32",
          "name": "role",
          "type": "bytes32"
        },
        {
          "indexed": true,
          "internalType": "address",
          "name": "account",
          "type": "address"
        },
        {
          "indexed": true,
          "internalType": "address",
          "name": "sender",
          "type": "address"
        }
      ],
      "name": "RoleRevoked",
      "type": "event"
    },
    {
      "inputs": [],
      "name": "ADMIN_ROLE",
      "outputs": [
        {
          "internalType": "bytes32",
          "name": "",
          "type": "bytes32"
        }
      ],
      "stateMutability": "view",
      "type": "function"
    },
    {
      "inputs": [],
      "name": "DEFAULT_ADMIN_ROLE",
      "outputs": [
        {
          "internalType": "bytes32",
          "name": "",
          "type": "bytes32"
        }
      ],
      "stateMutability": "view",
      "type": "function"
    },
    {
      "inputs": [],
      "name": "PROPOSER_ROLE",
      "outputs": [
        {
          "internalType": "bytes32",
          "name": "",
          "type": "bytes32"
        }
      ],
      "stateMutability": "view",
      "type": "function"
    },
    {
      "inputs": [],
      "name": "delay",
      "outputs": [
        {
          "internalType": "uint64",
          "name": "",
          "type": "uint64"
        }
      ],
      "stateMutability": "view",
      "type": "function"
    },
    {
      "inputs": [
        {
          "internalType": "address[]",
          "name": "targets",
          "type": "address[]"
        },
        {
          "internalType": "uint256[]",
          "name": "values",
          "type": "uint256[]"
        },
        {
          "internalType": "bytes[]",
          "name": "dataElements",
          "type": "bytes[]"
        },
        {
          "internalType": "bytes32",
          "name": "salt",
          "type": "bytes32"
        }
      ],
      "name": "execute",
      "outputs": [],
      "stateMutability": "payable",
      "type": "function"
    },
    {
      "inputs": [
        {
          "internalType": "address[]",
          "name": "targets",
          "type": "address[]"
        },
        {
          "internalType": "uint256[]",
          "name": "values",
          "type": "uint256[]"
        },
        {
          "internalType": "bytes[]",
          "name": "dataElements",
          "type": "bytes[]"
        },
        {
          "internalType": "bytes32",
          "name": "salt",
          "type": "bytes32"
        }
      ],
      "name": "getOperationId",
      "outputs": [
        {
          "internalType": "bytes32",
          "name": "",
          "type": "bytes32"
        }
      ],
      "stateMutability": "pure",
      "type": "function"
    },
    {
      "inputs": [
        {
          "internalType": "bytes32",
          "name": "id",
          "type": "bytes32"
        }
      ],
      "name": "getOperationState",
      "outputs": [
        {
          "internalType": "enum ClimberTimelock.OperationState",
          "name": "",
          "type": "uint8"
        }
      ],
      "stateMutability": "view",
      "type": "function"
    },
    {
      "inputs": [
        {
          "internalType": "bytes32",
          "name": "role",
          "type": "bytes32"
        }
      ],
      "name": "getRoleAdmin",
      "outputs": [
        {
          "internalType": "bytes32",
          "name": "",
          "type": "bytes32"
        }
      ],
      "stateMutability": "view",
      "type": "function"
    },
    {
      "inputs": [
        {
          "internalType": "bytes32",
          "name": "role",
          "type": "bytes32"
        },
        {
          "internalType": "address",
          "name": "account",
          "type": "address"
        }
      ],
      "name": "grantRole",
      "outputs": [],
      "stateMutability": "nonpayable",
      "type": "function"
    },
    {
      "inputs": [
        {
          "internalType": "bytes32",
          "name": "role",
          "type": "bytes32"
        },
        {
          "internalType": "address",
          "name": "account",
          "type": "address"
        }
      ],
      "name": "hasRole",
      "outputs": [
        {
          "internalType": "bool",
          "name": "",
          "type": "bool"
        }
      ],
      "stateMutability": "view",
      "type": "function"
    },
    {
      "inputs": [
        {
          "internalType": "bytes32",
          "name": "",
          "type": "bytes32"
        }
      ],
      "name": "operations",
      "outputs": [
        {
          "internalType": "uint64",
          "name": "readyAtTimestamp",
          "type": "uint64"
        },
        {
          "internalType": "bool",
          "name": "known",
          "type": "bool"
        },
        {
          "internalType": "bool",
          "name": "executed",
          "type": "bool"
        }
      ],
      "stateMutability": "view",
      "type": "function"
    },
    {
      "inputs": [
        {
          "internalType": "bytes32",
          "name": "role",
          "type": "bytes32"
        },
        {
          "internalType": "address",
          "name": "account",
          "type": "address"
        }
      ],
      "name": "renounceRole",
      "outputs": [],
      "stateMutability": "nonpayable",
      "type": "function"
    },
    {
      "inputs": [
        {
          "internalType": "bytes32",
          "name": "role",
          "type": "bytes32"
        },
        {
          "internalType": "address",
          "name": "account",
          "type": "address"
        }
      ],
      "name": "revokeRole",
      "outputs": [],
      "stateMutability": "nonpayable",
      "type": "function"
    },
    {
      "inputs": [
        {
          "internalType": "address[]",
          "name": "targets",
          "type": "address[]"
        },
        {
          "internalType": "uint256[]",
          "name": "values",
          "type": "uint256[]"
        },
        {
          "internalType": "bytes[]",
          "name": "dataElements",
          "type": "bytes[]"
        },
        {
          "internalType": "bytes32",
          "name": "salt",
          "type": "bytes32"
        }
      ],
      "name": "schedule",
      "outputs": [],
      "stateMutability": "nonpayable",
      "type": "function"
    },
    {
      "inputs": [
        {
          "internalType": "bytes4",
          "name": "interfaceId",
          "type": "bytes4"
        }
      ],
      "name": "supportsInterface",
      "outputs": [
        {
          "internalType": "bool",
          "name": "",
          "type": "bool"
        }
      ],
      "stateMutability": "view",
      "type": "function"
    },
    {
      "inputs": [
        {
          "internalType": "uint64",
          "name": "newDelay",
          "type": "uint64"
        }
      ],
      "name": "updateDelay",
      "outputs": [],
      "stateMutability": "nonpayable",
      "type": "function"
    },
    {
      "stateMutability": "payable",
      "type": "receive"
    }
  ],
  "bytecode": "0x6080604052610e10600260006101000a81548167ffffffffffffffff021916908367ffffffffffffffff1602179055503480156200003c57600080fd5b506040516200282738038062002827833981810160405281019062000062919062000396565b620000947fa49807205ce4d355092ef5a8a18f56e8913cf4a201fbe287825b095693c21775806200018460201b60201c565b620000e67fb09aa5aeb3702cfd50b6b62bc4532604938f21248a27a1d5ca736082b6819cc17fa49807205ce4d355092ef5a8a18f56e8913cf4a201fbe287825b095693c217756200018460201b60201c565b620001187fa49807205ce4d355092ef5a8a18f56e8913cf4a201fbe287825b095693c2177583620001e760201b60201c565b6200014a7fa49807205ce4d355092ef5a8a18f56e8913cf4a201fbe287825b095693c2177530620001e760201b60201c565b6200017c7fb09aa5aeb3702cfd50b6b62bc4532604938f21248a27a1d5ca736082b6819cc182620001e760201b60201c565b505062000430565b60006200019783620001fd60201b60201c565b905081600080858152602001908152602001600020600101819055508181847fbd79b86ffe0ab8e8776151514217cd7cacd52c909f66475c3af44e129f0b00ff60405160405180910390a4505050565b620001f982826200021c60201b60201c565b5050565b6000806000838152602001908152602001600020600101549050919050565b6200022e82826200030d60201b60201c565b6200030957600160008084815260200190815260200160002060000160008373ffffffffffffffffffffffffffffffffffffffff1673ffffffffffffffffffffffffffffffffffffffff16815260200190815260200160002060006101000a81548160ff021916908315150217905550620002ae6200037760201b60201c565b73ffffffffffffffffffffffffffffffffffffffff168173ffffffffffffffffffffffffffffffffffffffff16837f2f8788117e7eff1d82e926ec794901d17c78024a50270940304540a733656f0d60405160405180910390a45b5050565b600080600084815260200190815260200160002060000160008373ffffffffffffffffffffffffffffffffffffffff1673ffffffffffffffffffffffffffffffffffffffff16815260200190815260200160002060009054906101000a900460ff16905092915050565b600033905090565b600081519050620003908162000416565b92915050565b60008060408385031215620003b057620003af62000411565b5b6000620003c0858286016200037f565b9250506020620003d3858286016200037f565b9150509250929050565b6000620003ea82620003f1565b9050919050565b600073ffffffffffffffffffffffffffffffffffffffff82169050919050565b600080fd5b6200042181620003dd565b81146200042d57600080fd5b50565b6123e780620004406000396000f3fe6080604052600436106100f75760003560e01c806375b238fc1161008a57806391d148541161005957806391d1485414610338578063a217fddf14610375578063c74f349b146103a0578063d547741f146103df576100fe565b806375b238fc1461027c5780637958004c146102a75780638f61f4f5146102e457806390bd1e6d1461030f576100fe565b80632f2ff15d116100c65780632f2ff15d146101c257806336568abe146101eb57806357f525ed146102145780636a42b8f814610251576100fe565b806301ffc9a714610103578063248a9ca31461014057806324adbc5b1461017d5780632656227d146101a6576100fe565b366100fe57005b600080fd5b34801561010f57600080fd5b5061012a600480360381019061012591906115b7565b610408565b6040516101379190611a90565b60405180910390f35b34801561014c57600080fd5b506101676004803603810190610162919061154a565b610482565b6040516101749190611aab565b60405180910390f35b34801561018957600080fd5b506101a4600480360381019061019f91906115e4565b6104a1565b005b6101c060048036038101906101bb9190611481565b61058b565b005b3480156101ce57600080fd5b506101e960048036038101906101e49190611577565b61077a565b005b3480156101f757600080fd5b50610212600480360381019061020d9190611577565b6107a3565b005b34801561022057600080fd5b5061023b60048036038101906102369190611481565b610826565b6040516102489190611aab565b60405180910390f35b34801561025d57600080fd5b50610266610868565b6040516102739190611c03565b60405180910390f35b34801561028857600080fd5b50610291610882565b60405161029e9190611aab565b60405180910390f35b3480156102b357600080fd5b506102ce60048036038101906102c9919061154a565b6108a6565b6040516102db9190611ac6565b60405180910390f35b3480156102f057600080fd5b506102f9610990565b6040516103069190611aab565b60405180910390f35b34801561031b57600080fd5b5061033660048036038101906103319190611481565b6109b4565b005b34801561034457600080fd5b5061035f600480360381019061035a9190611577565b610b43565b60405161036c9190611a90565b60405180910390f35b34801561038157600080fd5b5061038a610bad565b6040516103979190611aab565b60405180910390f35b3480156103ac57600080fd5b506103c760048036038101906103c2919061154a565b610bb4565b6040516103d693929190611c1e565b60405180910390f35b3480156103eb57600080fd5b5061040660048036038101906104019190611577565b610c0c565b005b60007f7965db0b000000000000000000000000000000000000000000000000000000007bffffffffffffffffffffffffffffffffffffffffffffffffffffffff1916827bffffffffffffffffffffffffffffffffffffffffffffffffffffffff1916148061047b575061047a82610c35565b5b9050919050565b6000806000838152602001908152602001600020600101549050919050565b3073ffffffffffffffffffffffffffffffffffffffff163373ffffffffffffffffffffffffffffffffffffffff161461050f576040517f08c379a000000000000000000000000000000000000000000000000000000000815260040161050690611b43565b60405180910390fd5b621275008167ffffffffffffffff16111561055f576040517f08c379a000000000000000000000000000000000000000000000000000000000815260040161055690611b83565b60405180910390fd5b80600260006101000a81548167ffffffffffffffff021916908367ffffffffffffffff16021790555050565b600087879050116105d1576040517f08c379a00000000000000000000000000000000000000000000000000000000081526004016105c890611b23565b60405180910390fd5b8484905087879050146105e357600080fd5b8282905087879050146105f557600080fd5b600061060688888888888888610826565b905060005b888890508160ff161015610708576106f485858360ff1681811061063257610631612087565b5b90506020028101906106449190611c55565b8080601f016020809104026020016040519081016040528093929190818152602001838380828437600081840152601f19601f8201169050808301925050505050505088888460ff1681811061069d5761069c612087565b5b905060200201358b8b8560ff168181106106ba576106b9612087565b5b90506020020160208101906106cf9190611454565b73ffffffffffffffffffffffffffffffffffffffff16610c9f9092919063ffffffff16565b50808061070090611fff565b91505061060b565b506002600381111561071d5761071c612058565b5b610726826108a6565b600381111561073857610737612058565b5b1461074257600080fd5b600180600083815260200190815260200160002060000160096101000a81548160ff0219169083151502179055505050505050505050565b61078382610482565b6107948161078f610cce565b610cd6565b61079e8383610d73565b505050565b6107ab610cce565b73ffffffffffffffffffffffffffffffffffffffff168173ffffffffffffffffffffffffffffffffffffffff1614610818576040517f08c379a000000000000000000000000000000000000000000000000000000000815260040161080f90611bc3565b60405180910390fd5b6108228282610e53565b5050565b6000878787878787876040516020016108459796959493929190611a30565b604051602081830303815290604052805190602001209050979650505050505050565b600260009054906101000a900467ffffffffffffffff1681565b7fa49807205ce4d355092ef5a8a18f56e8913cf4a201fbe287825b095693c2177581565b600080600160008481526020019081526020016000206040518060600160405290816000820160009054906101000a900467ffffffffffffffff1667ffffffffffffffff1667ffffffffffffffff1681526020016000820160089054906101000a900460ff161515151581526020016000820160099054906101000a900460ff161515151581525050905080604001511561094557600391505061098b565b42816000015167ffffffffffffffff161061096457600291505061098b565b6000816000015167ffffffffffffffff16111561098557600191505061098b565b60009150505b919050565b7fb09aa5aeb3702cfd50b6b62bc4532604938f21248a27a1d5ca736082b6819cc181565b7fb09aa5aeb3702cfd50b6b62bc4532604938f21248a27a1d5ca736082b6819cc16109e6816109e1610cce565b610cd6565b6000888890501180156109fd575061010088889050105b610a0657600080fd5b858590508888905014610a1857600080fd5b838390508888905014610a2a57600080fd5b6000610a3b89898989898989610826565b905060006003811115610a5157610a50612058565b5b610a5a826108a6565b6003811115610a6c57610a6b612058565b5b14610aac576040517f08c379a0000000000000000000000000000000000000000000000000000000008152600401610aa390611be3565b60405180910390fd5b600260009054906101000a900467ffffffffffffffff1642610ace9190611e37565b6001600083815260200190815260200160002060000160006101000a81548167ffffffffffffffff021916908367ffffffffffffffff160217905550600180600083815260200190815260200160002060000160086101000a81548160ff021916908315150217905550505050505050505050565b600080600084815260200190815260200160002060000160008373ffffffffffffffffffffffffffffffffffffffff1673ffffffffffffffffffffffffffffffffffffffff16815260200190815260200160002060009054906101000a900460ff16905092915050565b6000801b81565b60016020528060005260406000206000915090508060000160009054906101000a900467ffffffffffffffff16908060000160089054906101000a900460ff16908060000160099054906101000a900460ff16905083565b610c1582610482565b610c2681610c21610cce565b610cd6565b610c308383610e53565b505050565b60007f01ffc9a7000000000000000000000000000000000000000000000000000000007bffffffffffffffffffffffffffffffffffffffffffffffffffffffff1916827bffffffffffffffffffffffffffffffffffffffffffffffffffffffff1916149050919050565b6060610cc584848460405180606001604052806029815260200161238960299139610f34565b90509392505050565b600033905090565b610ce08282610b43565b610d6f57610d058173ffffffffffffffffffffffffffffffffffffffff166014611048565b610d138360001c6020611048565b604051602001610d249291906119f6565b6040516020818303038152906040526040517f08c379a0000000000000000000000000000000000000000000000000000000008152600401610d669190611ae1565b60405180910390fd5b5050565b610d7d8282610b43565b610e4f57600160008084815260200190815260200160002060000160008373ffffffffffffffffffffffffffffffffffffffff1673ffffffffffffffffffffffffffffffffffffffff16815260200190815260200160002060006101000a81548160ff021916908315150217905550610df4610cce565b73ffffffffffffffffffffffffffffffffffffffff168173ffffffffffffffffffffffffffffffffffffffff16837f2f8788117e7eff1d82e926ec794901d17c78024a50270940304540a733656f0d60405160405180910390a45b5050565b610e5d8282610b43565b15610f3057600080600084815260200190815260200160002060000160008373ffffffffffffffffffffffffffffffffffffffff1673ffffffffffffffffffffffffffffffffffffffff16815260200190815260200160002060006101000a81548160ff021916908315150217905550610ed5610cce565b73ffffffffffffffffffffffffffffffffffffffff168173ffffffffffffffffffffffffffffffffffffffff16837ff6391f5c32d9c69d2a47ea670b442974b53935d1edc7fd64eb21e047a839171b60405160405180910390a45b5050565b606082471015610f79576040517f08c379a0000000000000000000000000000000000000000000000000000000008152600401610f7090611b63565b60405180910390fd5b610f8285611284565b610fc1576040517f08c379a0000000000000000000000000000000000000000000000000000000008152600401610fb890611ba3565b60405180910390fd5b6000808673ffffffffffffffffffffffffffffffffffffffff168587604051610fea91906119df565b60006040518083038185875af1925050503d8060008114611027576040519150601f19603f3d011682016040523d82523d6000602084013e61102c565b606091505b509150915061103c828286611297565b92505050949350505050565b60606000600283600261105b9190611e75565b6110659190611de1565b67ffffffffffffffff81111561107e5761107d6120b6565b5b6040519080825280601f01601f1916602001820160405280156110b05781602001600182028036833780820191505090505b5090507f3000000000000000000000000000000000000000000000000000000000000000816000815181106110e8576110e7612087565b5b60200101907effffffffffffffffffffffffffffffffffffffffffffffffffffffffffffff1916908160001a9053507f78000000000000000000000000000000000000000000000000000000000000008160018151811061114c5761114b612087565b5b60200101907effffffffffffffffffffffffffffffffffffffffffffffffffffffffffffff1916908160001a9053506000600184600261118c9190611e75565b6111969190611de1565b90505b6001811115611236577f3031323334353637383961626364656600000000000000000000000000000000600f8616601081106111d8576111d7612087565b5b1a60f81b8282815181106111ef576111ee612087565b5b60200101907effffffffffffffffffffffffffffffffffffffffffffffffffffffffffffff1916908160001a905350600485901c94508061122f90611fd5565b9050611199565b506000841461127a576040517f08c379a000000000000000000000000000000000000000000000000000000000815260040161127190611b03565b60405180910390fd5b8091505092915050565b600080823b905060008111915050919050565b606083156112a7578290506112f7565b6000835111156112ba5782518084602001fd5b816040517f08c379a00000000000000000000000000000000000000000000000000000000081526004016112ee9190611ae1565b60405180910390fd5b9392505050565b60008135905061130d8161232c565b92915050565b60008083601f840112611329576113286120ef565b5b8235905067ffffffffffffffff811115611346576113456120ea565b5b60208301915083602082028301111561136257611361612103565b5b9250929050565b60008083601f84011261137f5761137e6120ef565b5b8235905067ffffffffffffffff81111561139c5761139b6120ea565b5b6020830191508360208202830111156113b8576113b7612103565b5b9250929050565b60008083601f8401126113d5576113d46120ef565b5b8235905067ffffffffffffffff8111156113f2576113f16120ea565b5b60208301915083602082028301111561140e5761140d612103565b5b9250929050565b60008135905061142481612343565b92915050565b6000813590506114398161235a565b92915050565b60008135905061144e81612371565b92915050565b60006020828403121561146a5761146961211c565b5b6000611478848285016112fe565b91505092915050565b60008060008060008060006080888a0312156114a05761149f61211c565b5b600088013567ffffffffffffffff8111156114be576114bd61210d565b5b6114ca8a828b01611313565b9750975050602088013567ffffffffffffffff8111156114ed576114ec61210d565b5b6114f98a828b016113bf565b9550955050604088013567ffffffffffffffff81111561151c5761151b61210d565b5b6115288a828b01611369565b9350935050606061153b8a828b01611415565b91505092959891949750929550565b6000602082840312156115605761155f61211c565b5b600061156e84828501611415565b91505092915050565b6000806040838503121561158e5761158d61211c565b5b600061159c85828601611415565b92505060206115ad858286016112fe565b9150509250929050565b6000602082840312156115cd576115cc61211c565b5b60006115db8482850161142a565b91505092915050565b6000602082840312156115fa576115f961211c565b5b60006116088482850161143f565b91505092915050565b600061161d838361163f565b60208301905092915050565b600061163684848461179b565b90509392505050565b61164881611ecf565b82525050565b600061165a8385611cfc565b935061166582611cb8565b8060005b8581101561169e5761167b8284611d67565b6116858882611611565b975061169083611ce2565b925050600181019050611669565b5085925050509392505050565b60006116b78385611d0d565b9350836020840285016116c984611cc2565b8060005b8781101561170f5784840389526116e48284611d7e565b6116ef868284611629565b95506116fa84611cef565b935060208b019a5050506001810190506116cd565b50829750879450505050509392505050565b600061172d8385611d1e565b93507f07ffffffffffffffffffffffffffffffffffffffffffffffffffffffffffffff8311156117605761175f612112565b5b602083029250611771838584611f93565b82840190509392505050565b61178681611ee1565b82525050565b61179581611eed565b82525050565b60006117a78385611d2f565b93506117b4838584611f93565b6117bd83612121565b840190509392505050565b60006117d382611ccc565b6117dd8185611d40565b93506117ed818560208601611fa2565b80840191505092915050565b61180281611f81565b82525050565b600061181382611cd7565b61181d8185611d4b565b935061182d818560208601611fa2565b61183681612121565b840191505092915050565b600061184c82611cd7565b6118568185611d5c565b9350611866818560208601611fa2565b80840191505092915050565b600061187f602083611d4b565b915061188a82612132565b602082019050919050565b60006118a2602083611d4b565b91506118ad8261215b565b602082019050919050565b60006118c5601e83611d4b565b91506118d082612184565b602082019050919050565b60006118e8602683611d4b565b91506118f3826121ad565b604082019050919050565b600061190b601d83611d4b565b9150611916826121fc565b602082019050919050565b600061192e601d83611d4b565b915061193982612225565b602082019050919050565b6000611951601783611d5c565b915061195c8261224e565b601782019050919050565b6000611974601183611d5c565b915061197f82612277565b601182019050919050565b6000611997602f83611d4b565b91506119a2826122a0565b604082019050919050565b60006119ba601783611d4b565b91506119c5826122ef565b602082019050919050565b6119d981611f60565b82525050565b60006119eb82846117c8565b915081905092915050565b6000611a0182611944565b9150611a0d8285611841565b9150611a1882611967565b9150611a248284611841565b91508190509392505050565b60006080820190508181036000830152611a4b81898b61164e565b90508181036020830152611a60818789611721565b90508181036040830152611a758185876116ab565b9050611a84606083018461178c565b98975050505050505050565b6000602082019050611aa5600083018461177d565b92915050565b6000602082019050611ac0600083018461178c565b92915050565b6000602082019050611adb60008301846117f9565b92915050565b60006020820190508181036000830152611afb8184611808565b905092915050565b60006020820190508181036000830152611b1c81611872565b9050919050565b60006020820190508181036000830152611b3c81611895565b9050919050565b60006020820190508181036000830152611b5c816118b8565b9050919050565b60006020820190508181036000830152611b7c816118db565b9050919050565b60006020820190508181036000830152611b9c816118fe565b9050919050565b60006020820190508181036000830152611bbc81611921565b9050919050565b60006020820190508181036000830152611bdc8161198a565b9050919050565b60006020820190508181036000830152611bfc816119ad565b9050919050565b6000602082019050611c1860008301846119d0565b92915050565b6000606082019050611c3360008301866119d0565b611c40602083018561177d565b611c4d604083018461177d565b949350505050565b60008083356001602003843603038112611c7257611c716120f9565b5b80840192508235915067ffffffffffffffff821115611c9457611c936120f4565b5b602083019250600182023603831315611cb057611caf612108565b5b509250929050565b6000819050919050565b6000819050919050565b600081519050919050565b600081519050919050565b6000602082019050919050565b6000602082019050919050565b600082825260208201905092915050565b600082825260208201905092915050565b600082825260208201905092915050565b600082825260208201905092915050565b600081905092915050565b600082825260208201905092915050565b600081905092915050565b6000611d7660208401846112fe565b905092915050565b60008083356001602003843603038112611d9b57611d9a612117565b5b83810192508235915060208301925067ffffffffffffffff821115611dc357611dc26120e5565b5b600182023603841315611dd957611dd86120fe565b5b509250929050565b6000611dec82611f56565b9150611df783611f56565b9250827fffffffffffffffffffffffffffffffffffffffffffffffffffffffffffffffff03821115611e2c57611e2b612029565b5b828201905092915050565b6000611e4282611f60565b9150611e4d83611f60565b92508267ffffffffffffffff03821115611e6a57611e69612029565b5b828201905092915050565b6000611e8082611f56565b9150611e8b83611f56565b9250817fffffffffffffffffffffffffffffffffffffffffffffffffffffffffffffffff0483118215151615611ec457611ec3612029565b5b828202905092915050565b6000611eda82611f36565b9050919050565b60008115159050919050565b6000819050919050565b60007fffffffff0000000000000000000000000000000000000000000000000000000082169050919050565b6000819050611f3182612318565b919050565b600073ffffffffffffffffffffffffffffffffffffffff82169050919050565b6000819050919050565b600067ffffffffffffffff82169050919050565b600060ff82169050919050565b6000611f8c82611f23565b9050919050565b82818337600083830152505050565b60005b83811015611fc0578082015181840152602081019050611fa5565b83811115611fcf576000848401525b50505050565b6000611fe082611f56565b91506000821415611ff457611ff3612029565b5b600182039050919050565b600061200a82611f74565b915060ff82141561201e5761201d612029565b5b600182019050919050565b7f4e487b7100000000000000000000000000000000000000000000000000000000600052601160045260246000fd5b7f4e487b7100000000000000000000000000000000000000000000000000000000600052602160045260246000fd5b7f4e487b7100000000000000000000000000000000000000000000000000000000600052603260045260246000fd5b7f4e487b7100000000000000000000000000000000000000000000000000000000600052604160045260246000fd5b600080fd5b600080fd5b600080fd5b600080fd5b600080fd5b600080fd5b600080fd5b600080fd5b600080fd5b600080fd5b600080fd5b600080fd5b6000601f19601f8301169050919050565b7f537472696e67733a20686578206c656e67746820696e73756666696369656e74600082015250565b7f4d7573742070726f76696465206174206c65617374206f6e6520746172676574600082015250565b7f43616c6c6572206d7573742062652074696d656c6f636b20697473656c660000600082015250565b7f416464726573733a20696e73756666696369656e742062616c616e636520666f60008201527f722063616c6c0000000000000000000000000000000000000000000000000000602082015250565b7f44656c6179206d7573742062652031342064617973206f72206c657373000000600082015250565b7f416464726573733a2063616c6c20746f206e6f6e2d636f6e7472616374000000600082015250565b7f416363657373436f6e74726f6c3a206163636f756e7420000000000000000000600082015250565b7f206973206d697373696e6720726f6c6520000000000000000000000000000000600082015250565b7f416363657373436f6e74726f6c3a2063616e206f6e6c792072656e6f756e636560008201527f20726f6c657320666f722073656c660000000000000000000000000000000000602082015250565b7f4f7065726174696f6e20616c7265616479206b6e6f776e000000000000000000600082015250565b6004811061232957612328612058565b5b50565b61233581611ecf565b811461234057600080fd5b50565b61234c81611eed565b811461235757600080fd5b50565b61236381611ef7565b811461236e57600080fd5b50565b61237a81611f60565b811461238557600080fd5b5056fe416464726573733a206c6f772d6c6576656c2063616c6c20776974682076616c7565206661696c6564a2646970667358221220888de73800d77cf7c5bd2783eb8632c92e6ea806e77ba61a2eb2265f18478ed664736f6c63430008070033",
  "linkReferences": {},
  "deployedLinkReferences": {}
}