{
  "_format": "hh-sol-artifact-1",
  "contractName": "SimpleGovernance",
  "sourceName": "contracts/selfie/SimpleGovernance.sol",
  "abi": [
    {
      "inputs": [
        {
          "internalType": "address",
          "name": "governanceTokenAddress",
          "type": "address"
        }
      ],
      "stateMutability": "nonpayable",
      "type": "constructor"
    },
    {
      "anonymous": false,
      "inputs": [
        {
          "indexed": false,
          "internalType": "uint256",
          "name": "actionId",
          "type": "uint256"
        },
        {
          "indexed": true,
          "internalType": "address",
          "name": "caller",
          "type": "address"
        }
      ],
      "name": "ActionExecuted",
      "type": "event"
    },
    {
      "anonymous": false,
      "inputs": [
        {
          "indexed": false,
          "internalType": "uint256",
          "name": "actionId",
          "type": "uint256"
        },
        {
          "indexed": true,
          "internalType": "address",
          "name": "caller",
          "type": "address"
        }
      ],
      "name": "ActionQueued",
      "type": "event"
    },
    {
      "inputs": [
        {
          "internalType": "uint256",
          "name": "",
          "type": "uint256"
        }
      ],
      "name": "actions",
      "outputs": [
        {
          "internalType": "address",
          "name": "receiver",
          "type": "address"
        },
        {
          "internalType": "bytes",
          "name": "data",
          "type": "bytes"
        },
        {
          "internalType": "uint256",
          "name": "weiAmount",
          "type": "uint256"
        },
        {
          "internalType": "uint256",
          "name": "proposedAt",
          "type": "uint256"
        },
        {
          "internalType": "uint256",
          "name": "executedAt",
          "type": "uint256"
        }
      ],
      "stateMutability": "view",
      "type": "function"
    },
    {
      "inputs": [
        {
          "internalType": "uint256",
          "name": "actionId",
          "type": "uint256"
        }
      ],
      "name": "executeAction",
      "outputs": [],
      "stateMutability": "payable",
      "type": "function"
    },
    {
      "inputs": [],
      "name": "getActionDelay",
      "outputs": [
        {
          "internalType": "uint256",
          "name": "",
          "type": "uint256"
        }
      ],
      "stateMutability": "view",
      "type": "function"
    },
    {
      "inputs": [],
      "name": "governanceToken",
      "outputs": [
        {
          "internalType": "contract DamnValuableTokenSnapshot",
          "name": "",
          "type": "address"
        }
      ],
      "stateMutability": "view",
      "type": "function"
    },
    {
      "inputs": [
        {
          "internalType": "address",
          "name": "receiver",
          "type": "address"
        },
        {
          "internalType": "bytes",
          "name": "data",
          "type": "bytes"
        },
        {
          "internalType": "uint256",
          "name": "weiAmount",
          "type": "uint256"
        }
      ],
      "name": "queueAction",
      "outputs": [
        {
          "internalType": "uint256",
          "name": "",
          "type": "uint256"
        }
      ],
      "stateMutability": "nonpayable",
      "type": "function"
    }
  ],
  "bytecode": "0x60806040526202a3006003553480156200001857600080fd5b50604051620015bc380380620015bc83398181016040528101906200003e919062000117565b600073ffffffffffffffffffffffffffffffffffffffff168173ffffffffffffffffffffffffffffffffffffffff161415620000b1576040517f08c379a0000000000000000000000000000000000000000000000000000000008152600401620000a89062000170565b60405180910390fd5b806000806101000a81548173ffffffffffffffffffffffffffffffffffffffff021916908373ffffffffffffffffffffffffffffffffffffffff16021790555060016002819055505062000245565b60008151905062000111816200022b565b92915050565b60006020828403121562000130576200012f620001d7565b5b6000620001408482850162000100565b91505092915050565b60006200015860278362000192565b91506200016582620001dc565b604082019050919050565b600060208201905081810360008301526200018b8162000149565b9050919050565b600082825260208201905092915050565b6000620001b082620001b7565b9050919050565b600073ffffffffffffffffffffffffffffffffffffffff82169050919050565b600080fd5b7f476f7665726e616e636520746f6b656e2063616e6e6f74206265207a65726f2060008201527f6164647265737300000000000000000000000000000000000000000000000000602082015250565b6200023681620001a3565b81146200024257600080fd5b50565b61136780620002556000396000f3fe60806040526004361061004a5760003560e01c806312057a141461004f57806383240f831461007a578063c0c1cf55146100bb578063c21f37ca146100d7578063f96dae0a14610114575b600080fd5b34801561005b57600080fd5b5061006461013f565b6040516100719190610f01565b60405180910390f35b34801561008657600080fd5b506100a1600480360381019061009c9190610bbf565b610149565b6040516100b2959493929190610dca565b60405180910390f35b6100d560048036038101906100d09190610bbf565b610227565b005b3480156100e357600080fd5b506100fe60048036038101906100f99190610b4b565b6103c1565b60405161010b9190610f01565b60405180910390f35b34801561012057600080fd5b50610129610574565b6040516101369190610e24565b60405180910390f35b6000600354905090565b60016020528060005260406000206000915090508060000160009054906101000a900473ffffffffffffffffffffffffffffffffffffffff169080600101805461019290611069565b80601f01602080910402602001604051908101604052809291908181526020018280546101be90611069565b801561020b5780601f106101e05761010080835404028352916020019161020b565b820191906000526020600020905b8154815290600101906020018083116101ee57829003601f168201915b5050505050908060020154908060030154908060040154905085565b61023081610598565b61026f576040517f08c379a000000000000000000000000000000000000000000000000000000000815260040161026690610ee1565b60405180910390fd5b600060016000838152602001908152602001600020905042816004018190555061036e8160010180546102a190611069565b80601f01602080910402602001604051908101604052809291908181526020018280546102cd90611069565b801561031a5780601f106102ef5761010080835404028352916020019161031a565b820191906000526020600020905b8154815290600101906020018083116102fd57829003601f168201915b505050505082600201548360000160009054906101000a900473ffffffffffffffffffffffffffffffffffffffff1673ffffffffffffffffffffffffffffffffffffffff166106ee9092919063ffffffff16565b503373ffffffffffffffffffffffffffffffffffffffff167f78a7d64f64ef6891bedfc1b6854447113cca07ace8747b8a6cf32a0fd5a80b17836040516103b59190610f01565b60405180910390a25050565b60006103cc3361071d565b61040b576040517f08c379a000000000000000000000000000000000000000000000000000000000815260040161040290610ec1565b60405180910390fd5b3073ffffffffffffffffffffffffffffffffffffffff168573ffffffffffffffffffffffffffffffffffffffff16141561047a576040517f08c379a000000000000000000000000000000000000000000000000000000000815260040161047190610e61565b60405180910390fd5b600060025490506000600160008381526020019081526020016000209050868160000160006101000a81548173ffffffffffffffffffffffffffffffffffffffff021916908373ffffffffffffffffffffffffffffffffffffffff16021790555083816002018190555085858260010191906104f7929190610a13565b50428160030181905550600260008154809291906105149061109b565b91905055503373ffffffffffffffffffffffffffffffffffffffff167f4dfd92f69e02f82c8f6705b2e4a364465b588fa4773cda26786c3ca8df43a1958360405161055f9190610f01565b60405180910390a28192505050949350505050565b60008054906101000a900473ffffffffffffffffffffffffffffffffffffffff1681565b600080600160008481526020019081526020016000206040518060a00160405290816000820160009054906101000a900473ffffffffffffffffffffffffffffffffffffffff1673ffffffffffffffffffffffffffffffffffffffff1673ffffffffffffffffffffffffffffffffffffffff16815260200160018201805461061f90611069565b80601f016020809104026020016040519081016040528092919081815260200182805461064b90611069565b80156106985780601f1061066d57610100808354040283529160200191610698565b820191906000526020600020905b81548152906001019060200180831161067b57829003601f168201915b5050505050815260200160028201548152602001600382015481526020016004820154815250509050600081608001511480156106e657506003548160600151426106e39190610f90565b10155b915050919050565b606061071484848460405180606001604052806029815260200161130960299139610885565b90509392505050565b60008060008054906101000a900473ffffffffffffffffffffffffffffffffffffffff1673ffffffffffffffffffffffffffffffffffffffff16634591164e846040518263ffffffff1660e01b81526004016107799190610daf565b60206040518083038186803b15801561079157600080fd5b505afa1580156107a5573d6000803e3d6000fd5b505050506040513d601f19601f820116820180604052508101906107c99190610bec565b90506000600260008054906101000a900473ffffffffffffffffffffffffffffffffffffffff1673ffffffffffffffffffffffffffffffffffffffff1663a3ec73fb6040518163ffffffff1660e01b815260040160206040518083038186803b15801561083557600080fd5b505afa158015610849573d6000803e3d6000fd5b505050506040513d601f19601f8201168201806040525081019061086d9190610bec565b6108779190610f5f565b905080821192505050919050565b6060824710156108ca576040517f08c379a00000000000000000000000000000000000000000000000000000000081526004016108c190610e81565b60405180910390fd5b6108d385610999565b610912576040517f08c379a000000000000000000000000000000000000000000000000000000000815260040161090990610ea1565b60405180910390fd5b6000808673ffffffffffffffffffffffffffffffffffffffff16858760405161093b9190610d98565b60006040518083038185875af1925050503d8060008114610978576040519150601f19603f3d011682016040523d82523d6000602084013e61097d565b606091505b509150915061098d8282866109ac565b92505050949350505050565b600080823b905060008111915050919050565b606083156109bc57829050610a0c565b6000835111156109cf5782518084602001fd5b816040517f08c379a0000000000000000000000000000000000000000000000000000000008152600401610a039190610e3f565b60405180910390fd5b9392505050565b828054610a1f90611069565b90600052602060002090601f016020900481019282610a415760008555610a88565b82601f10610a5a57803560ff1916838001178555610a88565b82800160010185558215610a88579182015b82811115610a87578235825591602001919060010190610a6c565b5b509050610a959190610a99565b5090565b5b80821115610ab2576000816000905550600101610a9a565b5090565b600081359050610ac5816112da565b92915050565b60008083601f840112610ae157610ae0611176565b5b8235905067ffffffffffffffff811115610afe57610afd611171565b5b602083019150836001820283011115610b1a57610b1961117b565b5b9250929050565b600081359050610b30816112f1565b92915050565b600081519050610b45816112f1565b92915050565b60008060008060608587031215610b6557610b64611185565b5b6000610b7387828801610ab6565b945050602085013567ffffffffffffffff811115610b9457610b93611180565b5b610ba087828801610acb565b93509350506040610bb387828801610b21565b91505092959194509250565b600060208284031215610bd557610bd4611185565b5b6000610be384828501610b21565b91505092915050565b600060208284031215610c0257610c01611185565b5b6000610c1084828501610b36565b91505092915050565b610c2281610fc4565b82525050565b6000610c3382610f1c565b610c3d8185610f32565b9350610c4d818560208601611036565b610c568161118a565b840191505092915050565b6000610c6c82610f1c565b610c768185610f43565b9350610c86818560208601611036565b80840191505092915050565b610c9b81611000565b82525050565b6000610cac82610f27565b610cb68185610f4e565b9350610cc6818560208601611036565b610ccf8161118a565b840191505092915050565b6000610ce7602b83610f4e565b9150610cf28261119b565b604082019050919050565b6000610d0a602683610f4e565b9150610d15826111ea565b604082019050919050565b6000610d2d601d83610f4e565b9150610d3882611239565b602082019050919050565b6000610d50602583610f4e565b9150610d5b82611262565b604082019050919050565b6000610d73601a83610f4e565b9150610d7e826112b1565b602082019050919050565b610d9281610ff6565b82525050565b6000610da48284610c61565b915081905092915050565b6000602082019050610dc46000830184610c19565b92915050565b600060a082019050610ddf6000830188610c19565b8181036020830152610df18187610c28565b9050610e006040830186610d89565b610e0d6060830185610d89565b610e1a6080830184610d89565b9695505050505050565b6000602082019050610e396000830184610c92565b92915050565b60006020820190508181036000830152610e598184610ca1565b905092915050565b60006020820190508181036000830152610e7a81610cda565b9050919050565b60006020820190508181036000830152610e9a81610cfd565b9050919050565b60006020820190508181036000830152610eba81610d20565b9050919050565b60006020820190508181036000830152610eda81610d43565b9050919050565b60006020820190508181036000830152610efa81610d66565b9050919050565b6000602082019050610f166000830184610d89565b92915050565b600081519050919050565b600081519050919050565b600082825260208201905092915050565b600081905092915050565b600082825260208201905092915050565b6000610f6a82610ff6565b9150610f7583610ff6565b925082610f8557610f84611113565b5b828204905092915050565b6000610f9b82610ff6565b9150610fa683610ff6565b925082821015610fb957610fb86110e4565b5b828203905092915050565b6000610fcf82610fd6565b9050919050565b600073ffffffffffffffffffffffffffffffffffffffff82169050919050565b6000819050919050565b600061100b82611012565b9050919050565b600061101d82611024565b9050919050565b600061102f82610fd6565b9050919050565b60005b83811015611054578082015181840152602081019050611039565b83811115611063576000848401525b50505050565b6000600282049050600182168061108157607f821691505b6020821081141561109557611094611142565b5b50919050565b60006110a682610ff6565b91507fffffffffffffffffffffffffffffffffffffffffffffffffffffffffffffffff8214156110d9576110d86110e4565b5b600182019050919050565b7f4e487b7100000000000000000000000000000000000000000000000000000000600052601160045260246000fd5b7f4e487b7100000000000000000000000000000000000000000000000000000000600052601260045260246000fd5b7f4e487b7100000000000000000000000000000000000000000000000000000000600052602260045260246000fd5b600080fd5b600080fd5b600080fd5b600080fd5b600080fd5b6000601f19601f8301169050919050565b7f43616e6e6f7420717565756520616374696f6e7320746861742061666665637460008201527f20476f7665726e616e6365000000000000000000000000000000000000000000602082015250565b7f416464726573733a20696e73756666696369656e742062616c616e636520666f60008201527f722063616c6c0000000000000000000000000000000000000000000000000000602082015250565b7f416464726573733a2063616c6c20746f206e6f6e2d636f6e7472616374000000600082015250565b7f4e6f7420656e6f75676820766f74657320746f2070726f706f736520616e206160008201527f6374696f6e000000000000000000000000000000000000000000000000000000602082015250565b7f43616e6e6f742065786563757465207468697320616374696f6e000000000000600082015250565b6112e381610fc4565b81146112ee57600080fd5b50565b6112fa81610ff6565b811461130557600080fd5b5056fe416464726573733a206c6f772d6c6576656c2063616c6c20776974682076616c7565206661696c6564a264697066735822122093350b095c754fbcc02a4bfdc4ca0c8edad9bac0f8786f29424f0e5ccdfa460264736f6c63430008070033",
  "linkReferences": {},
  "deployedLinkReferences": {}
}